{
    "accountLabels": null,
    "dataMap": {
        "-1": {
            "invocation": {
                "address": "0x4d0d746e0f66bf825418e6b3def1a46ec3c0b847",
                "callData": "",
                "decodedMethod": null,
                "errorInfo": "",
                "fromAddress": "",
                "gasUsed": 0,
                "id": -1,
                "methodDecoded": false,
                "operation": "",
                "output": "",
                "revert": false,
                "revertMessage": "",
                "selector": "",
                "status": false,
                "value": ""
            },
            "nodeType": 0
        },
        "0": {
            "invocation": {
                "address": "0x7e5433f02f4bf07c4f2a2d341c450e07d7531428",
                "callData": "0x00000000000000000000000049ad262c49c7aa708cc2df262ed53b64a17dd5ee000000000000000000000000c02aaa39b223fe8d0a0e5c4f27ead9083c756cc20000000000000000000000000000000000000000000000000000000000000080000000000000000000000000000000000000000000000000000000000000000000000000000000000000000000000000000000000000000000000000000000050000000000000000000000002244deba8c0e788a60b30b805ff970e082bdbc5a000000000000000000000000d8aa1a0a09392d03c8829784075edc0dfd17771c0000000000000000000000001277f5266dead289eb6ab3f97a866f5854feb33d000000000000000000000000b9fb6a2ef61dd2514d352a9a1252a3a0ff9d40720000000000000000000000007e5ccbf79f81baf0430a9ed8208580c7157f143c",
                "decodedMethod": null,
                "errorInfo": "",
                "fromAddress": "0x4d0d746e0f66bf825418e6b3def1a46ec3c0b847",
                "gasUsed": 128923,
                "id": 0,
                "methodDecoded": false,
                "operation": "CALL",
                "output": "",
                "revert": false,
                "revertMessage": "",
                "selector": "0x6306e50a",
                "status": true,
                "value": "0"
            },
            "nodeType": 0
        },
        "1": {
            "invocation": {
                "address": "0xc02aaa39b223fe8d0a0e5c4f27ead9083c756cc2",
                "callData": "0x0000000000000000000000002244deba8c0e788a60b30b805ff970e082bdbc5a",
                "decodedMethod": {
                    "callParams": [
                        {
                            "name": "",
                            "type": "address",
                            "value": "0x2244deba8c0e788a60b30b805ff970e082bdbc5a"
                        }
                    ],
                    "constructorArguments": "",
                    "name": "balanceOf",
                    "returnParams": [
                        {
                            "decimalAvailable": true,
                            "name": "",
                            "type": "uint256",
                            "value": "1,025,400,000,000,000,000"
                        }
                    ],
                    "signature": "balanceOf(address)"
                },
                "errorInfo": "",
                "fromAddress": "0x7e5433f02f4bf07c4f2a2d341c450e07d7531428",
                "gasUsed": 2534,
                "id": 1,
                "methodDecoded": true,
                "operation": "STATICCALL",
                "output": "0x0000000000000000000000000000000000000000000000000e3af3de00af8000",
                "revert": false,
                "revertMessage": "",
                "selector": "0x70a08231",
                "status": true,
                "value": "0"
            },
            "nodeType": 0
        },
        "10": {
            "invocation": {
                "address": "0xc02aaa39b223fe8d0a0e5c4f27ead9083c756cc2",
                "callData": "0x0000000000000000000000007e5ccbf79f81baf0430a9ed8208580c7157f143c00000000000000000000000049ad262c49c7aa708cc2df262ed53b64a17dd5ee",
                "decodedMethod": {
                    "callParams": [
                        {
                            "name": "",
                            "type": "address",
                            "value": "0x7e5ccbf79f81baf0430a9ed8208580c7157f143c"
                        },
                        {
                            "name": "",
                            "type": "address",
                            "value": "0x49ad262c49c7aa708cc2df262ed53b64a17dd5ee"
                        }
                    ],
                    "constructorArguments": "",
                    "name": "allowance",
                    "returnParams": [
                        {
                            "decimalAvailable": true,
                            "name": "",
                            "type": "uint256",
                            "value": "115,792,089,237,316,195,423,570,985,008,687,907,853,269,984,665,640,564,039,457,584,007,913,129,639,935"
                        }
                    ],
                    "signature": "allowance(address,address)"
                },
                "errorInfo": "",
                "fromAddress": "0x7e5433f02f4bf07c4f2a2d341c450e07d7531428",
                "gasUsed": 2717,
                "id": 10,
                "methodDecoded": true,
                "operation": "STATICCALL",
                "output": "0xffffffffffffffffffffffffffffffffffffffffffffffffffffffffffffffff",
                "revert": false,
                "revertMessage": "",
                "selector": "0xdd62ed3e",
                "status": true,
                "value": "0"
            },
            "nodeType": 0
        },
        "11": {
            "invocation": {
                "address": "0x49ad262c49c7aa708cc2df262ed53b64a17dd5ee",
                "callData": "0x0000000000000000000000000000000000000000000000000000000000000020000000000000000000000000000000000000000000000000000000000000000500000000000000000000000000000000000000000000000000000000000000a00000000000000000000000000000000000000000000000000000000000000180000000000000000000000000000000000000000000000000000000000000026000000000000000000000000000000000000000000000000000000000000003400000000000000000000000000000000000000000000000000000000000000420000000000000000000000000c02aaa39b223fe8d0a0e5c4f27ead9083c756cc20000000000000000000000000000000000000000000000000000000000000040000000000000000000000000000000000000000000000000000000000000006423b872dd0000000000000000000000002244deba8c0e788a60b30b805ff970e082bdbc5a0000000000000000000000004d0d746e0f66bf825418e6b3def1a46ec3c0b8470000000000000000000000000000000000000000000000000e3af3de00af800000000000000000000000000000000000000000000000000000000000000000000000000000000000c02aaa39b223fe8d0a0e5c4f27ead9083c756cc20000000000000000000000000000000000000000000000000000000000000040000000000000000000000000000000000000000000000000000000000000006423b872dd000000000000000000000000d8aa1a0a09392d03c8829784075edc0dfd17771c0000000000000000000000004d0d746e0f66bf825418e6b3def1a46ec3c0b8470000000000000000000000000000000000000000000000000af03fb953f6800000000000000000000000000000000000000000000000000000000000000000000000000000000000c02aaa39b223fe8d0a0e5c4f27ead9083c756cc20000000000000000000000000000000000000000000000000000000000000040000000000000000000000000000000000000000000000000000000000000006423b872dd0000000000000000000000001277f5266dead289eb6ab3f97a866f5854feb33d0000000000000000000000004d0d746e0f66bf825418e6b3def1a46ec3c0b847000000000000000000000000000000000000000000000000403a50f9c69abd8000000000000000000000000000000000000000000000000000000000000000000000000000000000c02aaa39b223fe8d0a0e5c4f27ead9083c756cc20000000000000000000000000000000000000000000000000000000000000040000000000000000000000000000000000000000000000000000000000000006423b872dd000000000000000000000000b9fb6a2ef61dd2514d352a9a1252a3a0ff9d40720000000000000000000000004d0d746e0f66bf825418e6b3def1a46ec3c0b84700000000000000000000000000000000000000000000000016e6553517df404200000000000000000000000000000000000000000000000000000000000000000000000000000000c02aaa39b223fe8d0a0e5c4f27ead9083c756cc20000000000000000000000000000000000000000000000000000000000000040000000000000000000000000000000000000000000000000000000000000006423b872dd0000000000000000000000007e5ccbf79f81baf0430a9ed8208580c7157f143c0000000000000000000000004d0d746e0f66bf825418e6b3def1a46ec3c0b847000000000000000000000000000000000000000000000000371d4a70a0296fdb00000000000000000000000000000000000000000000000000000000",
                "decodedMethod": {
                    "callParams": [
                        {
                            "name": "calls",
                            "type": "(address,bytes)[]",
                            "value": [
                                [
                                    {
                                        "name": "target",
                                        "type": "address",
                                        "value": "0xc02aaa39b223fe8d0a0e5c4f27ead9083c756cc2"
                                    },
                                    {
                                        "name": "callData",
                                        "type": "bytes",
                                        "value": "0x23b872dd0000000000000000000000002244deba8c0e788a60b30b805ff970e082bdbc5a0000000000000000000000004d0d746e0f66bf825418e6b3def1a46ec3c0b8470000000000000000000000000000000000000000000000000e3af3de00af8000"
                                    }
                                ],
                                [
                                    {
                                        "name": "target",
                                        "type": "address",
                                        "value": "0xc02aaa39b223fe8d0a0e5c4f27ead9083c756cc2"
                                    },
                                    {
                                        "name": "callData",
                                        "type": "bytes",
                                        "value": "0x23b872dd000000000000000000000000d8aa1a0a09392d03c8829784075edc0dfd17771c0000000000000000000000004d0d746e0f66bf825418e6b3def1a46ec3c0b8470000000000000000000000000000000000000000000000000af03fb953f68000"
                                    }
                                ],
                                [
                                    {
                                        "name": "target",
                                        "type": "address",
                                        "value": "0xc02aaa39b223fe8d0a0e5c4f27ead9083c756cc2"
                                    },
                                    {
                                        "name": "callData",
                                        "type": "bytes",
                                        "value": "0x23b872dd0000000000000000000000001277f5266dead289eb6ab3f97a866f5854feb33d0000000000000000000000004d0d746e0f66bf825418e6b3def1a46ec3c0b847000000000000000000000000000000000000000000000000403a50f9c69abd80"
                                    }
                                ],
                                [
                                    {
                                        "name": "target",
                                        "type": "address",
                                        "value": "0xc02aaa39b223fe8d0a0e5c4f27ead9083c756cc2"
                                    },
                                    {
                                        "name": "callData",
                                        "type": "bytes",
                                        "value": "0x23b872dd000000000000000000000000b9fb6a2ef61dd2514d352a9a1252a3a0ff9d40720000000000000000000000004d0d746e0f66bf825418e6b3def1a46ec3c0b84700000000000000000000000000000000000000000000000016e6553517df4042"
                                    }
                                ],
                                [
                                    {
                                        "name": "target",
                                        "type": "address",
                                        "value": "0xc02aaa39b223fe8d0a0e5c4f27ead9083c756cc2"
                                    },
                                    {
                                        "name": "callData",
                                        "type": "bytes",
                                        "value": "0x23b872dd0000000000000000000000007e5ccbf79f81baf0430a9ed8208580c7157f143c0000000000000000000000004d0d746e0f66bf825418e6b3def1a46ec3c0b847000000000000000000000000000000000000000000000000371d4a70a0296fdb"
                                    }
                                ]
                            ]
                        }
                    ],
                    "constructorArguments": "",
                    "name": "extMulticall",
                    "returnParams": [
                        {
                            "name": "",
                            "type": "bytes[]",
                            "value": [
                                "0x0000000000000000000000000000000000000000000000000000000000000001",
                                "0x0000000000000000000000000000000000000000000000000000000000000001",
                                "0x0000000000000000000000000000000000000000000000000000000000000001",
                                "0x0000000000000000000000000000000000000000000000000000000000000001",
                                "0x0000000000000000000000000000000000000000000000000000000000000001"
                            ]
                        }
                    ],
                    "signature": "extMulticall((address,bytes)[])"
                },
                "errorInfo": "",
                "fromAddress": "0x7e5433f02f4bf07c4f2a2d341c450e07d7531428",
                "gasUsed": 69742,
                "id": 11,
                "methodDecoded": true,
                "operation": "CALL",
                "output": "0x0000000000000000000000000000000000000000000000000000000000000020000000000000000000000000000000000000000000000000000000000000000500000000000000000000000000000000000000000000000000000000000000a000000000000000000000000000000000000000000000000000000000000000e00000000000000000000000000000000000000000000000000000000000000120000000000000000000000000000000000000000000000000000000000000016000000000000000000000000000000000000000000000000000000000000001a00000000000000000000000000000000000000000000000000000000000000020000000000000000000000000000000000000000000000000000000000000000100000000000000000000000000000000000000000000000000000000000000200000000000000000000000000000000000000000000000000000000000000001000000000000000000000000000000000000000000000000000000000000002000000000000000000000000000000000000000000000000000000000000000010000000000000000000000000000000000000000000000000000000000000020000000000000000000000000000000000000000000000000000000000000000100000000000000000000000000000000000000000000000000000000000000200000000000000000000000000000000000000000000000000000000000000001",
                "revert": false,
                "revertMessage": "",
                "selector": "0x97e4ee2a",
                "status": true,
                "value": "0"
            },
            "nodeType": 0
        },
        "12": {
            "invocation": {
                "address": "0xc538d17a6aacc5271be5f51b891e2e92c8187edd",
                "callData": "0x0000000000000000000000000000000000000000000000000000000000000020000000000000000000000000000000000000000000000000000000000000000500000000000000000000000000000000000000000000000000000000000000a00000000000000000000000000000000000000000000000000000000000000180000000000000000000000000000000000000000000000000000000000000026000000000000000000000000000000000000000000000000000000000000003400000000000000000000000000000000000000000000000000000000000000420000000000000000000000000c02aaa39b223fe8d0a0e5c4f27ead9083c756cc20000000000000000000000000000000000000000000000000000000000000040000000000000000000000000000000000000000000000000000000000000006423b872dd0000000000000000000000002244deba8c0e788a60b30b805ff970e082bdbc5a0000000000000000000000004d0d746e0f66bf825418e6b3def1a46ec3c0b8470000000000000000000000000000000000000000000000000e3af3de00af800000000000000000000000000000000000000000000000000000000000000000000000000000000000c02aaa39b223fe8d0a0e5c4f27ead9083c756cc20000000000000000000000000000000000000000000000000000000000000040000000000000000000000000000000000000000000000000000000000000006423b872dd000000000000000000000000d8aa1a0a09392d03c8829784075edc0dfd17771c0000000000000000000000004d0d746e0f66bf825418e6b3def1a46ec3c0b8470000000000000000000000000000000000000000000000000af03fb953f6800000000000000000000000000000000000000000000000000000000000000000000000000000000000c02aaa39b223fe8d0a0e5c4f27ead9083c756cc20000000000000000000000000000000000000000000000000000000000000040000000000000000000000000000000000000000000000000000000000000006423b872dd0000000000000000000000001277f5266dead289eb6ab3f97a866f5854feb33d0000000000000000000000004d0d746e0f66bf825418e6b3def1a46ec3c0b847000000000000000000000000000000000000000000000000403a50f9c69abd8000000000000000000000000000000000000000000000000000000000000000000000000000000000c02aaa39b223fe8d0a0e5c4f27ead9083c756cc20000000000000000000000000000000000000000000000000000000000000040000000000000000000000000000000000000000000000000000000000000006423b872dd000000000000000000000000b9fb6a2ef61dd2514d352a9a1252a3a0ff9d40720000000000000000000000004d0d746e0f66bf825418e6b3def1a46ec3c0b84700000000000000000000000000000000000000000000000016e6553517df404200000000000000000000000000000000000000000000000000000000000000000000000000000000c02aaa39b223fe8d0a0e5c4f27ead9083c756cc20000000000000000000000000000000000000000000000000000000000000040000000000000000000000000000000000000000000000000000000000000006423b872dd0000000000000000000000007e5ccbf79f81baf0430a9ed8208580c7157f143c0000000000000000000000004d0d746e0f66bf825418e6b3def1a46ec3c0b847000000000000000000000000000000000000000000000000371d4a70a0296fdb00000000000000000000000000000000000000000000000000000000",
                "decodedMethod": {
                    "callParams": [
                        {
                            "name": "calls",
                            "type": "(address,bytes)[]",
                            "value": [
                                [
                                    {
                                        "name": "target",
                                        "type": "address",
                                        "value": "0xc02aaa39b223fe8d0a0e5c4f27ead9083c756cc2"
                                    },
                                    {
                                        "name": "callData",
                                        "type": "bytes",
                                        "value": "0x23b872dd0000000000000000000000002244deba8c0e788a60b30b805ff970e082bdbc5a0000000000000000000000004d0d746e0f66bf825418e6b3def1a46ec3c0b8470000000000000000000000000000000000000000000000000e3af3de00af8000"
                                    }
                                ],
                                [
                                    {
                                        "name": "target",
                                        "type": "address",
                                        "value": "0xc02aaa39b223fe8d0a0e5c4f27ead9083c756cc2"
                                    },
                                    {
                                        "name": "callData",
                                        "type": "bytes",
                                        "value": "0x23b872dd000000000000000000000000d8aa1a0a09392d03c8829784075edc0dfd17771c0000000000000000000000004d0d746e0f66bf825418e6b3def1a46ec3c0b8470000000000000000000000000000000000000000000000000af03fb953f68000"
                                    }
                                ],
                                [
                                    {
                                        "name": "target",
                                        "type": "address",
                                        "value": "0xc02aaa39b223fe8d0a0e5c4f27ead9083c756cc2"
                                    },
                                    {
                                        "name": "callData",
                                        "type": "bytes",
                                        "value": "0x23b872dd0000000000000000000000001277f5266dead289eb6ab3f97a866f5854feb33d0000000000000000000000004d0d746e0f66bf825418e6b3def1a46ec3c0b847000000000000000000000000000000000000000000000000403a50f9c69abd80"
                                    }
                                ],
                                [
                                    {
                                        "name": "target",
                                        "type": "address",
                                        "value": "0xc02aaa39b223fe8d0a0e5c4f27ead9083c756cc2"
                                    },
                                    {
                                        "name": "callData",
                                        "type": "bytes",
                                        "value": "0x23b872dd000000000000000000000000b9fb6a2ef61dd2514d352a9a1252a3a0ff9d40720000000000000000000000004d0d746e0f66bf825418e6b3def1a46ec3c0b84700000000000000000000000000000000000000000000000016e6553517df4042"
                                    }
                                ],
                                [
                                    {
                                        "name": "target",
                                        "type": "address",
                                        "value": "0xc02aaa39b223fe8d0a0e5c4f27ead9083c756cc2"
                                    },
                                    {
                                        "name": "callData",
                                        "type": "bytes",
                                        "value": "0x23b872dd0000000000000000000000007e5ccbf79f81baf0430a9ed8208580c7157f143c0000000000000000000000004d0d746e0f66bf825418e6b3def1a46ec3c0b847000000000000000000000000000000000000000000000000371d4a70a0296fdb"
                                    }
                                ]
                            ]
                        }
                    ],
                    "constructorArguments": "",
                    "name": "extMulticall",
                    "returnParams": [
                        {
                            "name": "",
                            "type": "bytes[]",
                            "value": [
                                "0x0000000000000000000000000000000000000000000000000000000000000001",
                                "0x0000000000000000000000000000000000000000000000000000000000000001",
                                "0x0000000000000000000000000000000000000000000000000000000000000001",
                                "0x0000000000000000000000000000000000000000000000000000000000000001",
                                "0x0000000000000000000000000000000000000000000000000000000000000001"
                            ]
                        }
                    ],
                    "signature": "extMulticall((address,bytes)[])"
                },
                "errorInfo": "",
                "fromAddress": "0x49ad262c49c7aa708cc2df262ed53b64a17dd5ee",
                "gasUsed": 64562,
                "id": 12,
                "methodDecoded": true,
                "operation": "DELEGATECALL",
                "output": "0x0000000000000000000000000000000000000000000000000000000000000020000000000000000000000000000000000000000000000000000000000000000500000000000000000000000000000000000000000000000000000000000000a000000000000000000000000000000000000000000000000000000000000000e00000000000000000000000000000000000000000000000000000000000000120000000000000000000000000000000000000000000000000000000000000016000000000000000000000000000000000000000000000000000000000000001a00000000000000000000000000000000000000000000000000000000000000020000000000000000000000000000000000000000000000000000000000000000100000000000000000000000000000000000000000000000000000000000000200000000000000000000000000000000000000000000000000000000000000001000000000000000000000000000000000000000000000000000000000000002000000000000000000000000000000000000000000000000000000000000000010000000000000000000000000000000000000000000000000000000000000020000000000000000000000000000000000000000000000000000000000000000100000000000000000000000000000000000000000000000000000000000000200000000000000000000000000000000000000000000000000000000000000001",
                "revert": false,
                "revertMessage": "",
                "selector": "0x97e4ee2a",
                "status": true,
                "value": "0"
            },
            "nodeType": 0
        },
        "13": {
            "invocation": {
                "address": "0xc02aaa39b223fe8d0a0e5c4f27ead9083c756cc2",
                "callData": "0x0000000000000000000000002244deba8c0e788a60b30b805ff970e082bdbc5a0000000000000000000000004d0d746e0f66bf825418e6b3def1a46ec3c0b8470000000000000000000000000000000000000000000000000e3af3de00af8000",
                "decodedMethod": {
                    "callParams": [
                        {
                            "name": "src",
                            "type": "address",
                            "value": "0x2244deba8c0e788a60b30b805ff970e082bdbc5a"
                        },
                        {
                            "name": "dst",
                            "type": "address",
                            "value": "0x4d0d746e0f66bf825418e6b3def1a46ec3c0b847"
                        },
                        {
                            "decimalAvailable": true,
                            "name": "wad",
                            "type": "uint256",
                            "value": "1,025,400,000,000,000,000"
                        }
                    ],
                    "constructorArguments": "",
                    "name": "transferFrom",
                    "returnParams": [
                        {
                            "name": "",
                            "type": "bool",
                            "value": true
                        }
                    ],
                    "signature": "transferFrom(address,address,uint256)"
                },
                "errorInfo": "",
                "fromAddress": "0x49ad262c49c7aa708cc2df262ed53b64a17dd5ee",
                "gasUsed": 28125,
                "id": 13,
                "methodDecoded": true,
                "operation": "CALL",
                "output": "0x0000000000000000000000000000000000000000000000000000000000000001",
                "revert": false,
                "revertMessage": "",
                "selector": "0x23b872dd",
                "status": true,
                "value": "0"
            },
            "nodeType": 0
        },
        "14": {
            "event": {
                "contract": "0xc02aaa39b223fe8d0a0e5c4f27ead9083c756cc2",
                "decodedLog": {
                    "name": "Transfer",
                    "params": [
                        {
                            "name": "src",
                            "type": "address",
                            "value": "0x2244deba8c0e788a60b30b805ff970e082bdbc5a"
                        },
                        {
                            "name": "dst",
                            "type": "address",
                            "value": "0x4d0d746e0f66bf825418e6b3def1a46ec3c0b847"
                        },
                        {
                            "decimalAvailable": true,
                            "name": "wad",
                            "type": "uint256",
                            "value": "1,025,400,000,000,000,000"
                        }
                    ],
                    "signature": "Transfer(address,address,uint256)"
                },
                "id": 14,
                "logData": "0x0000000000000000000000000000000000000000000000000e3af3de00af8000",
                "logDecoded": true,
                "operation": "EVENT",
                "revert": false,
                "status": true,
                "topics": [
                    "0xddf252ad1be2c89b69c2b068fc378daa952ba7f163c4a11628f55a4df523b3ef",
                    "0x0000000000000000000000002244deba8c0e788a60b30b805ff970e082bdbc5a",
                    "0x0000000000000000000000004d0d746e0f66bf825418e6b3def1a46ec3c0b847"
                ]
            },
            "nodeType": 1
        },
        "15": {
            "invocation": {
                "address": "0xc02aaa39b223fe8d0a0e5c4f27ead9083c756cc2",
                "callData": "0x000000000000000000000000d8aa1a0a09392d03c8829784075edc0dfd17771c0000000000000000000000004d0d746e0f66bf825418e6b3def1a46ec3c0b8470000000000000000000000000000000000000000000000000af03fb953f68000",
                "decodedMethod": {
                    "callParams": [
                        {
                            "name": "src",
                            "type": "address",
                            "value": "0xd8aa1a0a09392d03c8829784075edc0dfd17771c"
                        },
                        {
                            "name": "dst",
                            "type": "address",
                            "value": "0x4d0d746e0f66bf825418e6b3def1a46ec3c0b847"
                        },
                        {
                            "decimalAvailable": true,
                            "name": "wad",
                            "type": "uint256",
                            "value": "788,200,000,000,000,000"
                        }
                    ],
                    "constructorArguments": "",
                    "name": "transferFrom",
                    "returnParams": [
                        {
                            "name": "",
                            "type": "bool",
                            "value": true
                        }
                    ],
                    "signature": "transferFrom(address,address,uint256)"
                },
                "errorInfo": "",
                "fromAddress": "0x49ad262c49c7aa708cc2df262ed53b64a17dd5ee",
                "gasUsed": 9748,
                "id": 15,
                "methodDecoded": true,
                "operation": "CALL",
                "output": "0x0000000000000000000000000000000000000000000000000000000000000001",
                "revert": false,
                "revertMessage": "",
                "selector": "0x23b872dd",
                "status": true,
                "value": "0"
            },
            "nodeType": 0
        },
        "16": {
            "event": {
                "contract": "0xc02aaa39b223fe8d0a0e5c4f27ead9083c756cc2",
                "decodedLog": {
                    "name": "Transfer",
                    "params": [
                        {
                            "name": "src",
                            "type": "address",
                            "value": "0xd8aa1a0a09392d03c8829784075edc0dfd17771c"
                        },
                        {
                            "name": "dst",
                            "type": "address",
                            "value": "0x4d0d746e0f66bf825418e6b3def1a46ec3c0b847"
                        },
                        {
                            "decimalAvailable": true,
                            "name": "wad",
                            "type": "uint256",
                            "value": "788,200,000,000,000,000"
                        }
                    ],
                    "signature": "Transfer(address,address,uint256)"
                },
                "id": 16,
                "logData": "0x0000000000000000000000000000000000000000000000000af03fb953f68000",
                "logDecoded": true,
                "operation": "EVENT",
                "revert": false,
                "status": true,
                "topics": [
                    "0xddf252ad1be2c89b69c2b068fc378daa952ba7f163c4a11628f55a4df523b3ef",
                    "0x000000000000000000000000d8aa1a0a09392d03c8829784075edc0dfd17771c",
                    "0x0000000000000000000000004d0d746e0f66bf825418e6b3def1a46ec3c0b847"
                ]
            },
            "nodeType": 1
        },
        "17": {
            "invocation": {
                "address": "0xc02aaa39b223fe8d0a0e5c4f27ead9083c756cc2",
                "callData": "0x0000000000000000000000001277f5266dead289eb6ab3f97a866f5854feb33d0000000000000000000000004d0d746e0f66bf825418e6b3def1a46ec3c0b847000000000000000000000000000000000000000000000000403a50f9c69abd80",
                "decodedMethod": {
                    "callParams": [
                        {
                            "name": "src",
                            "type": "address",
                            "value": "0x1277f5266dead289eb6ab3f97a866f5854feb33d"
                        },
                        {
                            "name": "dst",
                            "type": "address",
                            "value": "0x4d0d746e0f66bf825418e6b3def1a46ec3c0b847"
                        },
                        {
                            "decimalAvailable": true,
                            "name": "wad",
                            "type": "uint256",
                            "value": "4,628,100,600,785,714,560"
                        }
                    ],
                    "constructorArguments": "",
                    "name": "transferFrom",
                    "returnParams": [
                        {
                            "name": "",
                            "type": "bool",
                            "value": true
                        }
                    ],
                    "signature": "transferFrom(address,address,uint256)"
                },
                "errorInfo": "",
                "fromAddress": "0x49ad262c49c7aa708cc2df262ed53b64a17dd5ee",
                "gasUsed": 6225,
                "id": 17,
                "methodDecoded": true,
                "operation": "CALL",
                "output": "0x0000000000000000000000000000000000000000000000000000000000000001",
                "revert": false,
                "revertMessage": "",
                "selector": "0x23b872dd",
                "status": true,
                "value": "0"
            },
            "nodeType": 0
        },
        "18": {
            "event": {
                "contract": "0xc02aaa39b223fe8d0a0e5c4f27ead9083c756cc2",
                "decodedLog": {
                    "name": "Transfer",
                    "params": [
                        {
                            "name": "src",
                            "type": "address",
                            "value": "0x1277f5266dead289eb6ab3f97a866f5854feb33d"
                        },
                        {
                            "name": "dst",
                            "type": "address",
                            "value": "0x4d0d746e0f66bf825418e6b3def1a46ec3c0b847"
                        },
                        {
                            "decimalAvailable": true,
                            "name": "wad",
                            "type": "uint256",
                            "value": "4,628,100,600,785,714,560"
                        }
                    ],
                    "signature": "Transfer(address,address,uint256)"
                },
                "id": 18,
                "logData": "0x000000000000000000000000000000000000000000000000403a50f9c69abd80",
                "logDecoded": true,
                "operation": "EVENT",
                "revert": false,
                "status": true,
                "topics": [
                    "0xddf252ad1be2c89b69c2b068fc378daa952ba7f163c4a11628f55a4df523b3ef",
                    "0x0000000000000000000000001277f5266dead289eb6ab3f97a866f5854feb33d",
                    "0x0000000000000000000000004d0d746e0f66bf825418e6b3def1a46ec3c0b847"
                ]
            },
            "nodeType": 1
        },
        "19": {
            "invocation": {
                "address": "0xc02aaa39b223fe8d0a0e5c4f27ead9083c756cc2",
                "callData": "0x000000000000000000000000b9fb6a2ef61dd2514d352a9a1252a3a0ff9d40720000000000000000000000004d0d746e0f66bf825418e6b3def1a46ec3c0b84700000000000000000000000000000000000000000000000016e6553517df4042",
                "decodedMethod": {
                    "callParams": [
                        {
                            "name": "src",
                            "type": "address",
                            "value": "0xb9fb6a2ef61dd2514d352a9a1252a3a0ff9d4072"
                        },
                        {
                            "name": "dst",
                            "type": "address",
                            "value": "0x4d0d746e0f66bf825418e6b3def1a46ec3c0b847"
                        },
                        {
                            "decimalAvailable": true,
                            "name": "wad",
                            "type": "uint256",
                            "value": "1,650,100,000,000,000,066"
                        }
                    ],
                    "constructorArguments": "",
                    "name": "transferFrom",
                    "returnParams": [
                        {
                            "name": "",
                            "type": "bool",
                            "value": true
                        }
                    ],
                    "signature": "transferFrom(address,address,uint256)"
                },
                "errorInfo": "",
                "fromAddress": "0x49ad262c49c7aa708cc2df262ed53b64a17dd5ee",
                "gasUsed": 6225,
                "id": 19,
                "methodDecoded": true,
                "operation": "CALL",
                "output": "0x0000000000000000000000000000000000000000000000000000000000000001",
                "revert": false,
                "revertMessage": "",
                "selector": "0x23b872dd",
                "status": true,
                "value": "0"
            },
            "nodeType": 0
        },
        "2": {
            "invocation": {
                "address": "0xc02aaa39b223fe8d0a0e5c4f27ead9083c756cc2",
                "callData": "0x0000000000000000000000002244deba8c0e788a60b30b805ff970e082bdbc5a00000000000000000000000049ad262c49c7aa708cc2df262ed53b64a17dd5ee",
                "decodedMethod": {
                    "callParams": [
                        {
                            "name": "",
                            "type": "address",
                            "value": "0x2244deba8c0e788a60b30b805ff970e082bdbc5a"
                        },
                        {
                            "name": "",
                            "type": "address",
                            "value": "0x49ad262c49c7aa708cc2df262ed53b64a17dd5ee"
                        }
                    ],
                    "constructorArguments": "",
                    "name": "allowance",
                    "returnParams": [
                        {
                            "decimalAvailable": true,
                            "name": "",
                            "type": "uint256",
                            "value": "115,792,089,237,316,195,423,570,985,008,687,907,853,269,984,665,640,564,039,457,584,007,913,129,639,935"
                        }
                    ],
                    "signature": "allowance(address,address)"
                },
                "errorInfo": "",
                "fromAddress": "0x7e5433f02f4bf07c4f2a2d341c450e07d7531428",
                "gasUsed": 2717,
                "id": 2,
                "methodDecoded": true,
                "operation": "STATICCALL",
                "output": "0xffffffffffffffffffffffffffffffffffffffffffffffffffffffffffffffff",
                "revert": false,
                "revertMessage": "",
                "selector": "0xdd62ed3e",
                "status": true,
                "value": "0"
            },
            "nodeType": 0
        },
        "20": {
            "event": {
                "contract": "0xc02aaa39b223fe8d0a0e5c4f27ead9083c756cc2",
                "decodedLog": {
                    "name": "Transfer",
                    "params": [
                        {
                            "name": "src",
                            "type": "address",
                            "value": "0xb9fb6a2ef61dd2514d352a9a1252a3a0ff9d4072"
                        },
                        {
                            "name": "dst",
                            "type": "address",
                            "value": "0x4d0d746e0f66bf825418e6b3def1a46ec3c0b847"
                        },
                        {
                            "decimalAvailable": true,
                            "name": "wad",
                            "type": "uint256",
                            "value": "1,650,100,000,000,000,066"
                        }
                    ],
                    "signature": "Transfer(address,address,uint256)"
                },
                "id": 20,
                "logData": "0x00000000000000000000000000000000000000000000000016e6553517df4042",
                "logDecoded": true,
                "operation": "EVENT",
                "revert": false,
                "status": true,
                "topics": [
                    "0xddf252ad1be2c89b69c2b068fc378daa952ba7f163c4a11628f55a4df523b3ef",
                    "0x000000000000000000000000b9fb6a2ef61dd2514d352a9a1252a3a0ff9d4072",
                    "0x0000000000000000000000004d0d746e0f66bf825418e6b3def1a46ec3c0b847"
                ]
            },
            "nodeType": 1
        },
        "21": {
            "invocation": {
                "address": "0xc02aaa39b223fe8d0a0e5c4f27ead9083c756cc2",
                "callData": "0x0000000000000000000000007e5ccbf79f81baf0430a9ed8208580c7157f143c0000000000000000000000004d0d746e0f66bf825418e6b3def1a46ec3c0b847000000000000000000000000000000000000000000000000371d4a70a0296fdb",
                "decodedMethod": {
                    "callParams": [
                        {
                            "name": "src",
                            "type": "address",
                            "value": "0x7e5ccbf79f81baf0430a9ed8208580c7157f143c"
                        },
                        {
                            "name": "dst",
                            "type": "address",
                            "value": "0x4d0d746e0f66bf825418e6b3def1a46ec3c0b847"
                        },
                        {
                            "decimalAvailable": true,
                            "name": "wad",
                            "type": "uint256",
                            "value": "3,971,412,293,994,508,251"
                        }
                    ],
                    "constructorArguments": "",
                    "name": "transferFrom",
                    "returnParams": [
                        {
                            "name": "",
                            "type": "bool",
                            "value": true
                        }
                    ],
                    "signature": "transferFrom(address,address,uint256)"
                },
                "errorInfo": "",
                "fromAddress": "0x49ad262c49c7aa708cc2df262ed53b64a17dd5ee",
                "gasUsed": 6225,
                "id": 21,
                "methodDecoded": true,
                "operation": "CALL",
                "output": "0x0000000000000000000000000000000000000000000000000000000000000001",
                "revert": false,
                "revertMessage": "",
                "selector": "0x23b872dd",
                "status": true,
                "value": "0"
            },
            "nodeType": 0
        },
        "22": {
            "event": {
                "contract": "0xc02aaa39b223fe8d0a0e5c4f27ead9083c756cc2",
                "decodedLog": {
                    "name": "Transfer",
                    "params": [
                        {
                            "name": "src",
                            "type": "address",
                            "value": "0x7e5ccbf79f81baf0430a9ed8208580c7157f143c"
                        },
                        {
                            "name": "dst",
                            "type": "address",
                            "value": "0x4d0d746e0f66bf825418e6b3def1a46ec3c0b847"
                        },
                        {
                            "decimalAvailable": true,
                            "name": "wad",
                            "type": "uint256",
                            "value": "3,971,412,293,994,508,251"
                        }
                    ],
                    "signature": "Transfer(address,address,uint256)"
                },
                "id": 22,
                "logData": "0x000000000000000000000000000000000000000000000000371d4a70a0296fdb",
                "logDecoded": true,
                "operation": "EVENT",
                "revert": false,
                "status": true,
                "topics": [
                    "0xddf252ad1be2c89b69c2b068fc378daa952ba7f163c4a11628f55a4df523b3ef",
                    "0x0000000000000000000000007e5ccbf79f81baf0430a9ed8208580c7157f143c",
                    "0x0000000000000000000000004d0d746e0f66bf825418e6b3def1a46ec3c0b847"
                ]
            },
            "nodeType": 1
        },
        "3": {
            "invocation": {
                "address": "0xc02aaa39b223fe8d0a0e5c4f27ead9083c756cc2",
                "callData": "0x000000000000000000000000d8aa1a0a09392d03c8829784075edc0dfd17771c",
                "decodedMethod": {
                    "callParams": [
                        {
                            "name": "",
                            "type": "address",
                            "value": "0xd8aa1a0a09392d03c8829784075edc0dfd17771c"
                        }
                    ],
                    "constructorArguments": "",
                    "name": "balanceOf",
                    "returnParams": [
                        {
                            "decimalAvailable": true,
                            "name": "",
                            "type": "uint256",
                            "value": "788,200,000,000,000,000"
                        }
                    ],
                    "signature": "balanceOf(address)"
                },
                "errorInfo": "",
                "fromAddress": "0x7e5433f02f4bf07c4f2a2d341c450e07d7531428",
                "gasUsed": 2534,
                "id": 3,
                "methodDecoded": true,
                "operation": "STATICCALL",
                "output": "0x0000000000000000000000000000000000000000000000000af03fb953f68000",
                "revert": false,
                "revertMessage": "",
                "selector": "0x70a08231",
                "status": true,
                "value": "0"
            },
            "nodeType": 0
        },
        "4": {
            "invocation": {
                "address": "0xc02aaa39b223fe8d0a0e5c4f27ead9083c756cc2",
                "callData": "0x000000000000000000000000d8aa1a0a09392d03c8829784075edc0dfd17771c00000000000000000000000049ad262c49c7aa708cc2df262ed53b64a17dd5ee",
                "decodedMethod": {
                    "callParams": [
                        {
                            "name": "",
                            "type": "address",
                            "value": "0xd8aa1a0a09392d03c8829784075edc0dfd17771c"
                        },
                        {
                            "name": "",
                            "type": "address",
                            "value": "0x49ad262c49c7aa708cc2df262ed53b64a17dd5ee"
                        }
                    ],
                    "constructorArguments": "",
                    "name": "allowance",
                    "returnParams": [
                        {
                            "decimalAvailable": true,
                            "name": "",
                            "type": "uint256",
                            "value": "7,000,000,000,000,000,000"
                        }
                    ],
                    "signature": "allowance(address,address)"
                },
                "errorInfo": "",
                "fromAddress": "0x7e5433f02f4bf07c4f2a2d341c450e07d7531428",
                "gasUsed": 2717,
                "id": 4,
                "methodDecoded": true,
                "operation": "STATICCALL",
                "output": "0x0000000000000000000000000000000000000000000000006124fee993bc0000",
                "revert": false,
                "revertMessage": "",
                "selector": "0xdd62ed3e",
                "status": true,
                "value": "0"
            },
            "nodeType": 0
        },
        "5": {
            "invocation": {
                "address": "0xc02aaa39b223fe8d0a0e5c4f27ead9083c756cc2",
                "callData": "0x0000000000000000000000001277f5266dead289eb6ab3f97a866f5854feb33d",
                "decodedMethod": {
                    "callParams": [
                        {
                            "name": "",
                            "type": "address",
                            "value": "0x1277f5266dead289eb6ab3f97a866f5854feb33d"
                        }
                    ],
                    "constructorArguments": "",
                    "name": "balanceOf",
                    "returnParams": [
                        {
                            "decimalAvailable": true,
                            "name": "",
                            "type": "uint256",
                            "value": "4,628,100,600,785,714,560"
                        }
                    ],
                    "signature": "balanceOf(address)"
                },
                "errorInfo": "",
                "fromAddress": "0x7e5433f02f4bf07c4f2a2d341c450e07d7531428",
                "gasUsed": 2534,
                "id": 5,
                "methodDecoded": true,
                "operation": "STATICCALL",
                "output": "0x000000000000000000000000000000000000000000000000403a50f9c69abd80",
                "revert": false,
                "revertMessage": "",
                "selector": "0x70a08231",
                "status": true,
                "value": "0"
            },
            "nodeType": 0
        },
        "6": {
            "invocation": {
                "address": "0xc02aaa39b223fe8d0a0e5c4f27ead9083c756cc2",
                "callData": "0x0000000000000000000000001277f5266dead289eb6ab3f97a866f5854feb33d00000000000000000000000049ad262c49c7aa708cc2df262ed53b64a17dd5ee",
                "decodedMethod": {
                    "callParams": [
                        {
                            "name": "",
                            "type": "address",
                            "value": "0x1277f5266dead289eb6ab3f97a866f5854feb33d"
                        },
                        {
                            "name": "",
                            "type": "address",
                            "value": "0x49ad262c49c7aa708cc2df262ed53b64a17dd5ee"
                        }
                    ],
                    "constructorArguments": "",
                    "name": "allowance",
                    "returnParams": [
                        {
                            "decimalAvailable": true,
                            "name": "",
                            "type": "uint256",
                            "value": "115,792,089,237,316,195,423,570,985,008,687,907,853,269,984,665,640,564,039,457,584,007,913,129,639,935"
                        }
                    ],
                    "signature": "allowance(address,address)"
                },
                "errorInfo": "",
                "fromAddress": "0x7e5433f02f4bf07c4f2a2d341c450e07d7531428",
                "gasUsed": 2717,
                "id": 6,
                "methodDecoded": true,
                "operation": "STATICCALL",
                "output": "0xffffffffffffffffffffffffffffffffffffffffffffffffffffffffffffffff",
                "revert": false,
                "revertMessage": "",
                "selector": "0xdd62ed3e",
                "status": true,
                "value": "0"
            },
            "nodeType": 0
        },
        "7": {
            "invocation": {
                "address": "0xc02aaa39b223fe8d0a0e5c4f27ead9083c756cc2",
                "callData": "0x000000000000000000000000b9fb6a2ef61dd2514d352a9a1252a3a0ff9d4072",
                "decodedMethod": {
                    "callParams": [
                        {
                            "name": "",
                            "type": "address",
                            "value": "0xb9fb6a2ef61dd2514d352a9a1252a3a0ff9d4072"
                        }
                    ],
                    "constructorArguments": "",
                    "name": "balanceOf",
                    "returnParams": [
                        {
                            "decimalAvailable": true,
                            "name": "",
                            "type": "uint256",
                            "value": "1,650,100,000,000,000,066"
                        }
                    ],
                    "signature": "balanceOf(address)"
                },
                "errorInfo": "",
                "fromAddress": "0x7e5433f02f4bf07c4f2a2d341c450e07d7531428",
                "gasUsed": 2534,
                "id": 7,
                "methodDecoded": true,
                "operation": "STATICCALL",
                "output": "0x00000000000000000000000000000000000000000000000016e6553517df4042",
                "revert": false,
                "revertMessage": "",
                "selector": "0x70a08231",
                "status": true,
                "value": "0"
            },
            "nodeType": 0
        },
        "8": {
            "invocation": {
                "address": "0xc02aaa39b223fe8d0a0e5c4f27ead9083c756cc2",
                "callData": "0x000000000000000000000000b9fb6a2ef61dd2514d352a9a1252a3a0ff9d407200000000000000000000000049ad262c49c7aa708cc2df262ed53b64a17dd5ee",
                "decodedMethod": {
                    "callParams": [
                        {
                            "name": "",
                            "type": "address",
                            "value": "0xb9fb6a2ef61dd2514d352a9a1252a3a0ff9d4072"
                        },
                        {
                            "name": "",
                            "type": "address",
                            "value": "0x49ad262c49c7aa708cc2df262ed53b64a17dd5ee"
                        }
                    ],
                    "constructorArguments": "",
                    "name": "allowance",
                    "returnParams": [
                        {
                            "decimalAvailable": true,
                            "name": "",
                            "type": "uint256",
                            "value": "115,792,089,237,316,195,423,570,985,008,687,907,853,269,984,665,640,564,039,457,584,007,913,129,639,935"
                        }
                    ],
                    "signature": "allowance(address,address)"
                },
                "errorInfo": "",
                "fromAddress": "0x7e5433f02f4bf07c4f2a2d341c450e07d7531428",
                "gasUsed": 2717,
                "id": 8,
                "methodDecoded": true,
                "operation": "STATICCALL",
                "output": "0xffffffffffffffffffffffffffffffffffffffffffffffffffffffffffffffff",
                "revert": false,
                "revertMessage": "",
                "selector": "0xdd62ed3e",
                "status": true,
                "value": "0"
            },
            "nodeType": 0
        },
        "9": {
            "invocation": {
                "address": "0xc02aaa39b223fe8d0a0e5c4f27ead9083c756cc2",
                "callData": "0x0000000000000000000000007e5ccbf79f81baf0430a9ed8208580c7157f143c",
                "decodedMethod": {
                    "callParams": [
                        {
                            "name": "",
                            "type": "address",
                            "value": "0x7e5ccbf79f81baf0430a9ed8208580c7157f143c"
                        }
                    ],
                    "constructorArguments": "",
                    "name": "balanceOf",
                    "returnParams": [
                        {
                            "decimalAvailable": true,
                            "name": "",
                            "type": "uint256",
                            "value": "3,971,412,293,994,508,251"
                        }
                    ],
                    "signature": "balanceOf(address)"
                },
                "errorInfo": "",
                "fromAddress": "0x7e5433f02f4bf07c4f2a2d341c450e07d7531428",
                "gasUsed": 2534,
                "id": 9,
                "methodDecoded": true,
                "operation": "STATICCALL",
                "output": "0x000000000000000000000000000000000000000000000000371d4a70a0296fdb",
                "revert": false,
                "revertMessage": "",
                "selector": "0x70a08231",
                "status": true,
                "value": "0"
            },
            "nodeType": 0
        }
    },
    "gasFlame": [
        {
            "children": [
                {
                    "children": [
                        {
                            "children": [],
                            "depth": 0,
                            "name": "Initial Gas",
                            "value": 24048
                        },
                        {
                            "children": [
                                {
                                    "children": [],
                                    "depth": 1,
                                    "name": "balanceOf",
                                    "value": 2534
                                },
                                {
                                    "children": [],
                                    "depth": 1,
                                    "name": "allowance",
                                    "value": 2717
                                },
                                {
                                    "children": [],
                                    "depth": 1,
                                    "name": "balanceOf",
                                    "value": 2534
                                },
                                {
                                    "children": [],
                                    "depth": 1,
                                    "name": "allowance",
                                    "value": 2717
                                },
                                {
                                    "children": [],
                                    "depth": 1,
                                    "name": "balanceOf",
                                    "value": 2534
                                },
                                {
                                    "children": [],
                                    "depth": 1,
                                    "name": "allowance",
                                    "value": 2717
                                },
                                {
                                    "children": [],
                                    "depth": 1,
                                    "name": "balanceOf",
                                    "value": 2534
                                },
                                {
                                    "children": [],
                                    "depth": 1,
                                    "name": "allowance",
                                    "value": 2717
                                },
                                {
                                    "children": [],
                                    "depth": 1,
                                    "name": "balanceOf",
                                    "value": 2534
                                },
                                {
                                    "children": [],
                                    "depth": 1,
                                    "name": "allowance",
                                    "value": 2717
                                },
                                {
                                    "children": [
                                        {
                                            "children": [
                                                {
                                                    "children": [],
                                                    "depth": 3,
                                                    "name": "transferFrom",
                                                    "value": 28125
                                                },
                                                {
                                                    "children": [],
                                                    "depth": 3,
                                                    "name": "transferFrom",
                                                    "value": 9748
                                                },
                                                {
                                                    "children": [],
                                                    "depth": 3,
                                                    "name": "transferFrom",
                                                    "value": 6225
                                                },
                                                {
                                                    "children": [],
                                                    "depth": 3,
                                                    "name": "transferFrom",
                                                    "value": 6225
                                                },
                                                {
                                                    "children": [],
                                                    "depth": 3,
                                                    "name": "transferFrom",
                                                    "value": 6225
                                                }
                                            ],
                                            "depth": 2,
                                            "name": "extMulticall",
                                            "value": 64562
                                        }
                                    ],
                                    "depth": 1,
                                    "name": "extMulticall",
                                    "value": 69742
                                }
                            ],
                            "depth": 0,
                            "name": "Executed Gas",
                            "value": 128875
                        }
                    ],
                    "depth": -1,
                    "name": "Actual Gas Used",
                    "value": 128923
                },
                {
                    "children": [],
                    "depth": -1,
                    "name": "Refunded Gas",
                    "value": 24000
                }
            ],
            "depth": -2,
            "name": "Total Gas",
            "value": 152923
        }
    ],
    "isConfirmed": true,
    "mainTrace": [
        {
            "children": [
                {
                    "children": [
                        {
                            "children": [],
                            "depth": 1,
                            "id": 1,
                            "order": 1
                        },
                        {
                            "children": [],
                            "depth": 1,
                            "id": 2,
                            "order": 2
                        },
                        {
                            "children": [],
                            "depth": 1,
                            "id": 3,
                            "order": 3
                        },
                        {
                            "children": [],
                            "depth": 1,
                            "id": 4,
                            "order": 4
                        },
                        {
                            "children": [],
                            "depth": 1,
                            "id": 5,
                            "order": 5
                        },
                        {
                            "children": [],
                            "depth": 1,
                            "id": 6,
                            "order": 6
                        },
                        {
                            "children": [],
                            "depth": 1,
                            "id": 7,
                            "order": 7
                        },
                        {
                            "children": [],
                            "depth": 1,
                            "id": 8,
                            "order": 8
                        },
                        {
                            "children": [],
                            "depth": 1,
                            "id": 9,
                            "order": 9
                        },
                        {
                            "children": [],
                            "depth": 1,
                            "id": 10,
                            "order": 10
                        },
                        {
                            "children": [
                                {
                                    "children": [
                                        {
                                            "children": [
                                                {
                                                    "children": [],
                                                    "depth": 4,
                                                    "id": 14,
                                                    "order": 14
                                                }
                                            ],
                                            "depth": 3,
                                            "id": 13,
                                            "order": 13
                                        },
                                        {
                                            "children": [
                                                {
                                                    "children": [],
                                                    "depth": 4,
                                                    "id": 16,
                                                    "order": 16
                                                }
                                            ],
                                            "depth": 3,
                                            "id": 15,
                                            "order": 15
                                        },
                                        {
                                            "children": [
                                                {
                                                    "children": [],
                                                    "depth": 4,
                                                    "id": 18,
                                                    "order": 18
                                                }
                                            ],
                                            "depth": 3,
                                            "id": 17,
                                            "order": 17
                                        },
                                        {
                                            "children": [
                                                {
                                                    "children": [],
                                                    "depth": 4,
                                                    "id": 20,
                                                    "order": 20
                                                }
                                            ],
                                            "depth": 3,
                                            "id": 19,
                                            "order": 19
                                        },
                                        {
                                            "children": [
                                                {
                                                    "children": [],
                                                    "depth": 4,
                                                    "id": 22,
                                                    "order": 22
                                                }
                                            ],
                                            "depth": 3,
                                            "id": 21,
                                            "order": 21
                                        }
                                    ],
                                    "depth": 2,
                                    "id": 12,
                                    "order": 12
                                }
                            ],
                            "depth": 1,
                            "id": 11,
                            "order": 11
                        }
                    ],
                    "depth": 0,
                    "id": 0,
                    "order": 0
                }
            ],
            "depth": -1,
            "id": -1,
            "order": -1
        }
    ],
    "mainTraceNodeCount": 23,
    "parentIdMap": {
        "0": -1,
        "1": 0,
        "10": 0,
        "11": 0,
        "12": 11,
        "13": 12,
        "14": 13,
        "15": 12,
        "16": 15,
        "17": 12,
        "18": 17,
        "19": 12,
        "2": 0,
        "20": 19,
        "21": 12,
        "22": 21,
        "3": 0,
        "4": 0,
        "5": 0,
        "6": 0,
        "7": 0,
        "8": 0,
        "9": 0
    },
    "tidyTrace": [
        {
            "children": [
                {
                    "children": [
                        {
                            "children": [
                                {
                                    "children": [
                                        {
                                            "children": [
                                                {
                                                    "children": [],
                                                    "depth": 4,
                                                    "id": 14,
                                                    "order": 14
                                                }
                                            ],
                                            "depth": 3,
                                            "id": 13,
                                            "order": 13
                                        },
                                        {
                                            "children": [
                                                {
                                                    "children": [],
                                                    "depth": 4,
                                                    "id": 16,
                                                    "order": 16
                                                }
                                            ],
                                            "depth": 3,
                                            "id": 15,
                                            "order": 15
                                        },
                                        {
                                            "children": [
                                                {
                                                    "children": [],
                                                    "depth": 4,
                                                    "id": 18,
                                                    "order": 18
                                                }
                                            ],
                                            "depth": 3,
                                            "id": 17,
                                            "order": 17
                                        },
                                        {
                                            "children": [
                                                {
                                                    "children": [],
                                                    "depth": 4,
                                                    "id": 20,
                                                    "order": 20
                                                }
                                            ],
                                            "depth": 3,
                                            "id": 19,
                                            "order": 19
                                        },
                                        {
                                            "children": [
                                                {
                                                    "children": [],
                                                    "depth": 4,
                                                    "id": 22,
                                                    "order": 22
                                                }
                                            ],
                                            "depth": 3,
                                            "id": 21,
                                            "order": 21
                                        }
                                    ],
                                    "depth": 2,
                                    "id": 12,
                                    "order": 12
                                }
                            ],
                            "depth": 1,
                            "id": 11,
                            "order": 11
                        }
                    ],
                    "depth": 0,
                    "id": 0,
                    "order": 0
                }
            ],
            "depth": -1,
            "id": -1,
            "order": -1
        }
    ],
    "tidyTraceNodeCount": 13
}