{
    "accountLabels": null,
    "dataMap": {
        "-1": {
            "invocation": {
                "address": "0x5d0d99e9886581ff8fcb01f35804317f5ed80bbb",
                "callData": "",
                "decodedMethod": null,
                "errorInfo": "",
                "fromAddress": "",
                "gasUsed": 0,
                "id": -1,
                "methodDecoded": false,
                "operation": "",
                "output": "",
                "revert": false,
                "revertMessage": "",
                "selector": "",
                "status": false,
                "value": ""
            },
            "nodeType": 0
        },
        "0": {
            "invocation": {
                "address": "0xa78aefd483ce3919c0ad55c8a2e5c97cbac1caf8",
                "callData": "0x00000000000000000000000000000000000000000000000000000000000000400000000000000000000000000000000000000000000000000000000000000100000000000000000000000000000000000000000000000000000000000000000500000000000000000000000037ff10390f22fabdc2137e428a6e6965960d60b600000000000000000000000037ff10390f22fabdc2137e428a6e6965960d60b600000000000000000000000037ff10390f22fabdc2137e428a6e6965960d60b600000000000000000000000037ff10390f22fabdc2137e428a6e6965960d60b6000000000000000000000000e3b81318b1b6776f0877c3770afddff97b9f5fe50000000000000000000000000000000000000000000000000000000000000004000000000000000000000000000000000000000000000000000000000000008000000000000000000000000000000000000000000000000000000000000001c0000000000000000000000000000000000000000000000000000000000000030000000000000000000000000000000000000000000000000000000000000004400000000000000000000000000000000000000000000000000000000000000104134008d3000000000000000000000000e3b81318b1b6776f0877c3770afddff97b9f5fe5000000000000000000000000000000000000000000000000000000000000000000000000000000000000000000000000000000000000000000000000000000a00000000000000000000000000000000000000000000000000000000000000000476d385370ae53ff1c1003ab3ce694f2c75ebe40422b0ba11def4846668bc84c0000000000000000000000000000000000000000000000000000000000000024fca7820b0000000000000000000000000000000000000000000000000429d069189e000000000000000000000000000000000000000000000000000000000000000000000000000000000000000000000000000000000000000000000000000000000000000000000000000000000000000000000000000000000104134008d3000000000000000000000000e3b81318b1b6776f0877c3770afddff97b9f5fe5000000000000000000000000000000000000000000000000000000000000000000000000000000000000000000000000000000000000000000000000000000a00000000000000000000000000000000000000000000000000000000000000000a57973a3d5a5d99d454c54117d7d30a57a8aca089891f505f120174216edaf420000000000000000000000000000000000000000000000000000000000000024f2b3abbd0000000000000000000000007320bd5fa56f8a7ea959a425f0c0b8cac56f741e00000000000000000000000000000000000000000000000000000000000000000000000000000000000000000000000000000000000000000000000000000000000000000000000000000000000000000000000000000104134008d300000000000000000000000060cf091cd3f50420d50fd7f707414d0df4751c58000000000000000000000000000000000000000000000000000000000000000000000000000000000000000000000000000000000000000000000000000000a0000000000000000000000000000000000000000000000000000000000000000042408274449fd7829d7fb6abe2e89a618a853acf68d1553b2f6b8b671ac443fd000000000000000000000000000000000000000000000000000000000000002455ee1fe100000000000000000000000022c7e5ce392bc951f63b68a8020b121a8e1c0fea00000000000000000000000000000000000000000000000000000000000000000000000000000000000000000000000000000000000000000000000000000000000000000000000000000000000000000000000000000104134008d300000000000000000000000060cf091cd3f50420d50fd7f707414d0df4751c58000000000000000000000000000000000000000000000000000000000000000000000000000000000000000000000000000000000000000000000000000000a00000000000000000000000000000000000000000000000000000000000000000b02c80e66eae74aef841e5d998aef03d201de66590950b6353e9a28b289c8c8b0000000000000000000000000000000000000000000000000000000000000024a76b3fda000000000000000000000000e3b81318b1b6776f0877c3770afddff97b9f5fe50000000000000000000000000000000000000000000000000000000000000000000000000000000000000000000000000000000000000000",
                "decodedMethod": null,
                "errorInfo": "",
                "fromAddress": "0x5d0d99e9886581ff8fcb01f35804317f5ed80bbb",
                "gasUsed": 624782,
                "id": 0,
                "methodDecoded": false,
                "operation": "CALL",
                "output": "",
                "revert": false,
                "revertMessage": "",
                "selector": "0x065a2b07",
                "status": true,
                "value": "0"
            },
            "nodeType": 0
        },
        "1": {
            "invocation": {
                "address": "0x37ff10390f22fabdc2137e428a6e6965960d60b6",
                "callData": "0x000000000000000000000000e3b81318b1b6776f0877c3770afddff97b9f5fe5000000000000000000000000000000000000000000000000000000000000000000000000000000000000000000000000000000000000000000000000000000a00000000000000000000000000000000000000000000000000000000000000000476d385370ae53ff1c1003ab3ce694f2c75ebe40422b0ba11def4846668bc84c0000000000000000000000000000000000000000000000000000000000000024fca7820b0000000000000000000000000000000000000000000000000429d069189e000000000000000000000000000000000000000000000000000000000000",
                "decodedMethod": {
                    "callParams": [
                        {
                            "name": "target",
                            "type": "address",
                            "value": "0xe3b81318b1b6776f0877c3770afddff97b9f5fe5"
                        },
                        {
                            "name": "value",
                            "type": "uint256",
                            "value": "0"
                        },
                        {
                            "name": "data",
                            "type": "bytes",
                            "value": "0xfca7820b0000000000000000000000000000000000000000000000000429d069189e0000"
                        },
                        {
                            "name": "predecessor",
                            "type": "bytes32",
                            "value": "0x0000000000000000000000000000000000000000000000000000000000000000"
                        },
                        {
                            "name": "salt",
                            "type": "bytes32",
                            "value": "0x476d385370ae53ff1c1003ab3ce694f2c75ebe40422b0ba11def4846668bc84c"
                        }
                    ],
                    "constructorArguments": "",
                    "name": "execute",
                    "returnParams": [],
                    "signature": "execute(address,uint256,bytes,bytes32,bytes32)"
                },
                "errorInfo": "",
                "fromAddress": "0xa78aefd483ce3919c0ad55c8a2e5c97cbac1caf8",
                "gasUsed": 85500,
                "id": 1,
                "methodDecoded": true,
                "operation": "CALL",
                "output": "",
                "revert": false,
                "revertMessage": "",
                "selector": "0x134008d3",
                "status": true,
                "value": "0"
            },
            "nodeType": 0
        },
        "10": {
            "invocation": {
                "address": "0x7320bd5fa56f8a7ea959a425f0c0b8cac56f741e",
                "callData": "0x",
                "decodedMethod": {
                    "callParams": [],
                    "constructorArguments": "",
                    "name": "isInterestRateModel",
                    "returnParams": [
                        {
                            "name": "",
                            "type": "bool",
                            "value": true
                        }
                    ],
                    "signature": "isInterestRateModel()"
                },
                "errorInfo": "",
                "fromAddress": "0xe3b81318b1b6776f0877c3770afddff97b9f5fe5",
                "gasUsed": 291,
                "id": 10,
                "methodDecoded": true,
                "operation": "STATICCALL",
                "output": "0x0000000000000000000000000000000000000000000000000000000000000001",
                "revert": false,
                "revertMessage": "",
                "selector": "0x2191f92a",
                "status": true,
                "value": "0"
            },
            "nodeType": 0
        },
        "11": {
            "event": {
                "contract": "0xe3b81318b1b6776f0877c3770afddff97b9f5fe5",
                "decodedLog": {
                    "name": "NewMarketInterestRateModel",
                    "params": [
                        {
                            "name": "oldInterestRateModel",
                            "type": "address",
                            "value": "0x7320bd5fa56f8a7ea959a425f0c0b8cac56f741e"
                        },
                        {
                            "name": "newInterestRateModel",
                            "type": "address",
                            "value": "0x7320bd5fa56f8a7ea959a425f0c0b8cac56f741e"
                        }
                    ],
                    "signature": "NewMarketInterestRateModel(address,address)"
                },
                "id": 11,
                "logData": "0x0000000000000000000000007320bd5fa56f8a7ea959a425f0c0b8cac56f741e0000000000000000000000007320bd5fa56f8a7ea959a425f0c0b8cac56f741e",
                "logDecoded": true,
                "operation": "EVENT",
                "revert": false,
                "status": true,
                "topics": [
                    "0xedffc32e068c7c95dfd4bdfd5c4d939a084d6b11c4199eac8436ed234d72f926"
                ]
            },
            "nodeType": 1
        },
        "12": {
            "event": {
                "contract": "0x37ff10390f22fabdc2137e428a6e6965960d60b6",
                "decodedLog": {
                    "name": "CallExecuted",
                    "params": [
                        {
                            "name": "id",
                            "type": "bytes32",
                            "value": "0xadd3d68a29000218b77c3733db66b9d8e041e2c5a883d483d12f8888865d147b"
                        },
                        {
                            "name": "index",
                            "type": "uint256",
                            "value": "0"
                        },
                        {
                            "name": "target",
                            "type": "address",
                            "value": "0xe3b81318b1b6776f0877c3770afddff97b9f5fe5"
                        },
                        {
                            "name": "value",
                            "type": "uint256",
                            "value": "0"
                        },
                        {
                            "name": "data",
                            "type": "bytes",
                            "value": "0xf2b3abbd0000000000000000000000007320bd5fa56f8a7ea959a425f0c0b8cac56f741e"
                        }
                    ],
                    "signature": "CallExecuted(bytes32,uint256,address,uint256,bytes)"
                },
                "id": 12,
                "logData": "0x000000000000000000000000e3b81318b1b6776f0877c3770afddff97b9f5fe5000000000000000000000000000000000000000000000000000000000000000000000000000000000000000000000000000000000000000000000000000000600000000000000000000000000000000000000000000000000000000000000024f2b3abbd0000000000000000000000007320bd5fa56f8a7ea959a425f0c0b8cac56f741e00000000000000000000000000000000000000000000000000000000",
                "logDecoded": true,
                "operation": "EVENT",
                "revert": false,
                "status": true,
                "topics": [
                    "0xc2617efa69bab66782fa219543714338489c4e9e178271560a91b82c3f612b58",
                    "0xadd3d68a29000218b77c3733db66b9d8e041e2c5a883d483d12f8888865d147b",
                    "0x0000000000000000000000000000000000000000000000000000000000000000"
                ]
            },
            "nodeType": 1
        },
        "13": {
            "invocation": {
                "address": "0x37ff10390f22fabdc2137e428a6e6965960d60b6",
                "callData": "0x00000000000000000000000060cf091cd3f50420d50fd7f707414d0df4751c58000000000000000000000000000000000000000000000000000000000000000000000000000000000000000000000000000000000000000000000000000000a0000000000000000000000000000000000000000000000000000000000000000042408274449fd7829d7fb6abe2e89a618a853acf68d1553b2f6b8b671ac443fd000000000000000000000000000000000000000000000000000000000000002455ee1fe100000000000000000000000022c7e5ce392bc951f63b68a8020b121a8e1c0fea00000000000000000000000000000000000000000000000000000000",
                "decodedMethod": {
                    "callParams": [
                        {
                            "name": "target",
                            "type": "address",
                            "value": "0x60cf091cd3f50420d50fd7f707414d0df4751c58"
                        },
                        {
                            "name": "value",
                            "type": "uint256",
                            "value": "0"
                        },
                        {
                            "name": "data",
                            "type": "bytes",
                            "value": "0x55ee1fe100000000000000000000000022c7e5ce392bc951f63b68a8020b121a8e1c0fea"
                        },
                        {
                            "name": "predecessor",
                            "type": "bytes32",
                            "value": "0x0000000000000000000000000000000000000000000000000000000000000000"
                        },
                        {
                            "name": "salt",
                            "type": "bytes32",
                            "value": "0x42408274449fd7829d7fb6abe2e89a618a853acf68d1553b2f6b8b671ac443fd"
                        }
                    ],
                    "constructorArguments": "",
                    "name": "execute",
                    "returnParams": [],
                    "signature": "execute(address,uint256,bytes,bytes32,bytes32)"
                },
                "errorInfo": "",
                "fromAddress": "0xa78aefd483ce3919c0ad55c8a2e5c97cbac1caf8",
                "gasUsed": 27842,
                "id": 13,
                "methodDecoded": true,
                "operation": "CALL",
                "output": "",
                "revert": false,
                "revertMessage": "",
                "selector": "0x134008d3",
                "status": true,
                "value": "0"
            },
            "nodeType": 0
        },
        "14": {
            "invocation": {
                "address": "0x60cf091cd3f50420d50fd7f707414d0df4751c58",
                "callData": "0x00000000000000000000000022c7e5ce392bc951f63b68a8020b121a8e1c0fea",
                "decodedMethod": {
                    "callParams": [
                        {
                            "name": "newOracle",
                            "type": "address",
                            "value": "0x22c7e5ce392bc951f63b68a8020b121a8e1c0fea"
                        }
                    ],
                    "constructorArguments": "",
                    "name": "_setPriceOracle",
                    "returnParams": [
                        {
                            "name": "",
                            "type": "uint256",
                            "value": "0"
                        }
                    ],
                    "signature": "_setPriceOracle(address)"
                },
                "errorInfo": "",
                "fromAddress": "0x37ff10390f22fabdc2137e428a6e6965960d60b6",
                "gasUsed": 14342,
                "id": 14,
                "methodDecoded": true,
                "operation": "CALL",
                "output": "0x0000000000000000000000000000000000000000000000000000000000000000",
                "revert": false,
                "revertMessage": "",
                "selector": "0x55ee1fe1",
                "status": true,
                "value": "0"
            },
            "nodeType": 0
        },
        "15": {
            "invocation": {
                "address": "0xe8ff1489227fa74f77e49c688903e69e1583c03f",
                "callData": "0x00000000000000000000000022c7e5ce392bc951f63b68a8020b121a8e1c0fea",
                "decodedMethod": {
                    "callParams": [
                        {
                            "name": "newOracle",
                            "type": "address",
                            "value": "0x22c7e5ce392bc951f63b68a8020b121a8e1c0fea"
                        }
                    ],
                    "constructorArguments": "",
                    "name": "_setPriceOracle",
                    "returnParams": [
                        {
                            "name": "",
                            "type": "uint256",
                            "value": "0"
                        }
                    ],
                    "signature": "_setPriceOracle(address)"
                },
                "errorInfo": "",
                "fromAddress": "0x60cf091cd3f50420d50fd7f707414d0df4751c58",
                "gasUsed": 9153,
                "id": 15,
                "methodDecoded": true,
                "operation": "DELEGATECALL",
                "output": "0x0000000000000000000000000000000000000000000000000000000000000000",
                "revert": false,
                "revertMessage": "",
                "selector": "0x55ee1fe1",
                "status": true,
                "value": "0"
            },
            "nodeType": 0
        },
        "16": {
            "event": {
                "contract": "0x60cf091cd3f50420d50fd7f707414d0df4751c58",
                "decodedLog": {
                    "name": "NewPriceOracle",
                    "params": [
                        {
                            "name": "oldPriceOracle",
                            "type": "address",
                            "value": "0x3176fa5060033a5d781b29de50d4a0f9e3d14f8f"
                        },
                        {
                            "name": "newPriceOracle",
                            "type": "address",
                            "value": "0x22c7e5ce392bc951f63b68a8020b121a8e1c0fea"
                        }
                    ],
                    "signature": "NewPriceOracle(address,address)"
                },
                "id": 16,
                "logData": "0x0000000000000000000000003176fa5060033a5d781b29de50d4a0f9e3d14f8f00000000000000000000000022c7e5ce392bc951f63b68a8020b121a8e1c0fea",
                "logDecoded": true,
                "operation": "EVENT",
                "revert": false,
                "status": true,
                "topics": [
                    "0xd52b2b9b7e9ee655fcb95d2e5b9e0c9f69e7ef2b8e9d2d0ea78402d576d22e22"
                ]
            },
            "nodeType": 1
        },
        "17": {
            "event": {
                "contract": "0x37ff10390f22fabdc2137e428a6e6965960d60b6",
                "decodedLog": {
                    "name": "CallExecuted",
                    "params": [
                        {
                            "name": "id",
                            "type": "bytes32",
                            "value": "0x143bf42140340b31637567dc86601a9c0c934d0dc133347f2221af060a18e0c4"
                        },
                        {
                            "name": "index",
                            "type": "uint256",
                            "value": "0"
                        },
                        {
                            "name": "target",
                            "type": "address",
                            "value": "0x60cf091cd3f50420d50fd7f707414d0df4751c58"
                        },
                        {
                            "name": "value",
                            "type": "uint256",
                            "value": "0"
                        },
                        {
                            "name": "data",
                            "type": "bytes",
                            "value": "0x55ee1fe100000000000000000000000022c7e5ce392bc951f63b68a8020b121a8e1c0fea"
                        }
                    ],
                    "signature": "CallExecuted(bytes32,uint256,address,uint256,bytes)"
                },
                "id": 17,
                "logData": "0x00000000000000000000000060cf091cd3f50420d50fd7f707414d0df4751c5800000000000000000000000000000000000000000000000000000000000000000000000000000000000000000000000000000000000000000000000000000060000000000000000000000000000000000000000000000000000000000000002455ee1fe100000000000000000000000022c7e5ce392bc951f63b68a8020b121a8e1c0fea00000000000000000000000000000000000000000000000000000000",
                "logDecoded": true,
                "operation": "EVENT",
                "revert": false,
                "status": true,
                "topics": [
                    "0xc2617efa69bab66782fa219543714338489c4e9e178271560a91b82c3f612b58",
                    "0x143bf42140340b31637567dc86601a9c0c934d0dc133347f2221af060a18e0c4",
                    "0x0000000000000000000000000000000000000000000000000000000000000000"
                ]
            },
            "nodeType": 1
        },
        "18": {
            "invocation": {
                "address": "0x37ff10390f22fabdc2137e428a6e6965960d60b6",
                "callData": "0x00000000000000000000000060cf091cd3f50420d50fd7f707414d0df4751c58000000000000000000000000000000000000000000000000000000000000000000000000000000000000000000000000000000000000000000000000000000a00000000000000000000000000000000000000000000000000000000000000000b02c80e66eae74aef841e5d998aef03d201de66590950b6353e9a28b289c8c8b0000000000000000000000000000000000000000000000000000000000000024a76b3fda000000000000000000000000e3b81318b1b6776f0877c3770afddff97b9f5fe500000000000000000000000000000000000000000000000000000000",
                "decodedMethod": {
                    "callParams": [
                        {
                            "name": "target",
                            "type": "address",
                            "value": "0x60cf091cd3f50420d50fd7f707414d0df4751c58"
                        },
                        {
                            "name": "value",
                            "type": "uint256",
                            "value": "0"
                        },
                        {
                            "name": "data",
                            "type": "bytes",
                            "value": "0xa76b3fda000000000000000000000000e3b81318b1b6776f0877c3770afddff97b9f5fe5"
                        },
                        {
                            "name": "predecessor",
                            "type": "bytes32",
                            "value": "0x0000000000000000000000000000000000000000000000000000000000000000"
                        },
                        {
                            "name": "salt",
                            "type": "bytes32",
                            "value": "0xb02c80e66eae74aef841e5d998aef03d201de66590950b6353e9a28b289c8c8b"
                        }
                    ],
                    "constructorArguments": "",
                    "name": "execute",
                    "returnParams": [],
                    "signature": "execute(address,uint256,bytes,bytes32,bytes32)"
                },
                "errorInfo": "",
                "fromAddress": "0xa78aefd483ce3919c0ad55c8a2e5c97cbac1caf8",
                "gasUsed": 144582,
                "id": 18,
                "methodDecoded": true,
                "operation": "CALL",
                "output": "",
                "revert": false,
                "revertMessage": "",
                "selector": "0x134008d3",
                "status": true,
                "value": "0"
            },
            "nodeType": 0
        },
        "19": {
            "invocation": {
                "address": "0x60cf091cd3f50420d50fd7f707414d0df4751c58",
                "callData": "0x000000000000000000000000e3b81318b1b6776f0877c3770afddff97b9f5fe5",
                "decodedMethod": {
                    "callParams": [
                        {
                            "name": "cToken",
                            "type": "address",
                            "value": "0xe3b81318b1b6776f0877c3770afddff97b9f5fe5"
                        }
                    ],
                    "constructorArguments": "",
                    "name": "_supportMarket",
                    "returnParams": [
                        {
                            "name": "",
                            "type": "uint256",
                            "value": "0"
                        }
                    ],
                    "signature": "_supportMarket(address)"
                },
                "errorInfo": "",
                "fromAddress": "0x37ff10390f22fabdc2137e428a6e6965960d60b6",
                "gasUsed": 133582,
                "id": 19,
                "methodDecoded": true,
                "operation": "CALL",
                "output": "0x0000000000000000000000000000000000000000000000000000000000000000",
                "revert": false,
                "revertMessage": "",
                "selector": "0xa76b3fda",
                "status": true,
                "value": "0"
            },
            "nodeType": 0
        },
        "2": {
            "invocation": {
                "address": "0xe3b81318b1b6776f0877c3770afddff97b9f5fe5",
                "callData": "0x0000000000000000000000000000000000000000000000000429d069189e0000",
                "decodedMethod": {
                    "callParams": [
                        {
                            "name": "newReserveFactorMantissa",
                            "type": "uint256",
                            "value": "300,000,000,000,000,000"
                        }
                    ],
                    "constructorArguments": "",
                    "name": "_setReserveFactor",
                    "returnParams": [
                        {
                            "name": "",
                            "type": "uint256",
                            "value": "0"
                        }
                    ],
                    "signature": "_setReserveFactor(uint256)"
                },
                "errorInfo": "",
                "fromAddress": "0x37ff10390f22fabdc2137e428a6e6965960d60b6",
                "gasUsed": 70000,
                "id": 2,
                "methodDecoded": true,
                "operation": "CALL",
                "output": "0x0000000000000000000000000000000000000000000000000000000000000000",
                "revert": false,
                "revertMessage": "",
                "selector": "0xfca7820b",
                "status": true,
                "value": "0"
            },
            "nodeType": 0
        },
        "20": {
            "invocation": {
                "address": "0xe8ff1489227fa74f77e49c688903e69e1583c03f",
                "callData": "0x000000000000000000000000e3b81318b1b6776f0877c3770afddff97b9f5fe5",
                "decodedMethod": {
                    "callParams": [
                        {
                            "name": "cToken",
                            "type": "address",
                            "value": "0xe3b81318b1b6776f0877c3770afddff97b9f5fe5"
                        }
                    ],
                    "constructorArguments": "",
                    "name": "_supportMarket",
                    "returnParams": [
                        {
                            "name": "",
                            "type": "uint256",
                            "value": "0"
                        }
                    ],
                    "signature": "_supportMarket(address)"
                },
                "errorInfo": "",
                "fromAddress": "0x60cf091cd3f50420d50fd7f707414d0df4751c58",
                "gasUsed": 132893,
                "id": 20,
                "methodDecoded": true,
                "operation": "DELEGATECALL",
                "output": "0x0000000000000000000000000000000000000000000000000000000000000000",
                "revert": false,
                "revertMessage": "",
                "selector": "0xa76b3fda",
                "status": true,
                "value": "0"
            },
            "nodeType": 0
        },
        "21": {
            "invocation": {
                "address": "0xe3b81318b1b6776f0877c3770afddff97b9f5fe5",
                "callData": "0x",
                "decodedMethod": {
                    "callParams": [],
                    "constructorArguments": "",
                    "name": "isCToken",
                    "returnParams": [
                        {
                            "name": "",
                            "type": "bool",
                            "value": true
                        }
                    ],
                    "signature": "isCToken()"
                },
                "errorInfo": "",
                "fromAddress": "0x60cf091cd3f50420d50fd7f707414d0df4751c58",
                "gasUsed": 333,
                "id": 21,
                "methodDecoded": true,
                "operation": "STATICCALL",
                "output": "0x0000000000000000000000000000000000000000000000000000000000000001",
                "revert": false,
                "revertMessage": "",
                "selector": "0xfe9c44ae",
                "status": true,
                "value": "0"
            },
            "nodeType": 0
        },
        "22": {
            "event": {
                "contract": "0x60cf091cd3f50420d50fd7f707414d0df4751c58",
                "decodedLog": {
                    "name": "MarketListed",
                    "params": [
                        {
                            "name": "cToken",
                            "type": "address",
                            "value": "0xe3b81318b1b6776f0877c3770afddff97b9f5fe5"
                        }
                    ],
                    "signature": "MarketListed(address)"
                },
                "id": 22,
                "logData": "0x000000000000000000000000e3b81318b1b6776f0877c3770afddff97b9f5fe5",
                "logDecoded": true,
                "operation": "EVENT",
                "revert": false,
                "status": true,
                "topics": [
                    "0xcf583bb0c569eb967f806b11601c4cb93c10310485c67add5f8362c2f212321f"
                ]
            },
            "nodeType": 1
        },
        "23": {
            "event": {
                "contract": "0x37ff10390f22fabdc2137e428a6e6965960d60b6",
                "decodedLog": {
                    "name": "CallExecuted",
                    "params": [
                        {
                            "name": "id",
                            "type": "bytes32",
                            "value": "0xe437c90721c0e6e17369a5e368d55200fc79e4521a410ec2471327c922958082"
                        },
                        {
                            "name": "index",
                            "type": "uint256",
                            "value": "0"
                        },
                        {
                            "name": "target",
                            "type": "address",
                            "value": "0x60cf091cd3f50420d50fd7f707414d0df4751c58"
                        },
                        {
                            "name": "value",
                            "type": "uint256",
                            "value": "0"
                        },
                        {
                            "name": "data",
                            "type": "bytes",
                            "value": "0xa76b3fda000000000000000000000000e3b81318b1b6776f0877c3770afddff97b9f5fe5"
                        }
                    ],
                    "signature": "CallExecuted(bytes32,uint256,address,uint256,bytes)"
                },
                "id": 23,
                "logData": "0x00000000000000000000000060cf091cd3f50420d50fd7f707414d0df4751c58000000000000000000000000000000000000000000000000000000000000000000000000000000000000000000000000000000000000000000000000000000600000000000000000000000000000000000000000000000000000000000000024a76b3fda000000000000000000000000e3b81318b1b6776f0877c3770afddff97b9f5fe500000000000000000000000000000000000000000000000000000000",
                "logDecoded": true,
                "operation": "EVENT",
                "revert": false,
                "status": true,
                "topics": [
                    "0xc2617efa69bab66782fa219543714338489c4e9e178271560a91b82c3f612b58",
                    "0xe437c90721c0e6e17369a5e368d55200fc79e4521a410ec2471327c922958082",
                    "0x0000000000000000000000000000000000000000000000000000000000000000"
                ]
            },
            "nodeType": 1
        },
        "24": {
            "invocation": {
                "address": "0xe3b81318b1b6776f0877c3770afddff97b9f5fe5",
                "callData": "0x",
                "decodedMethod": {
                    "callParams": [],
                    "constructorArguments": "",
                    "name": "underlying",
                    "returnParams": [
                        {
                            "name": "",
                            "type": "address",
                            "value": "0x9560e827af36c94d2ac33a39bce1fe78631088db"
                        }
                    ],
                    "signature": "underlying()"
                },
                "errorInfo": "",
                "fromAddress": "0xa78aefd483ce3919c0ad55c8a2e5c97cbac1caf8",
                "gasUsed": 426,
                "id": 24,
                "methodDecoded": true,
                "operation": "CALL",
                "output": "0x0000000000000000000000009560e827af36c94d2ac33a39bce1fe78631088db",
                "revert": false,
                "revertMessage": "",
                "selector": "0x6f307dc3",
                "status": true,
                "value": "0"
            },
            "nodeType": 0
        },
        "25": {
            "invocation": {
                "address": "0x9560e827af36c94d2ac33a39bce1fe78631088db",
                "callData": "0x000000000000000000000000e3b81318b1b6776f0877c3770afddff97b9f5fe5ffffffffffffffffffffffffffffffffffffffffffffffffffffffffffffffff",
                "decodedMethod": {
                    "callParams": [
                        {
                            "name": "spender",
                            "type": "address",
                            "value": "0xe3b81318b1b6776f0877c3770afddff97b9f5fe5"
                        },
                        {
                            "decimalAvailable": true,
                            "name": "amount",
                            "type": "uint256",
                            "value": "115,792,089,237,316,195,423,570,985,008,687,907,853,269,984,665,640,564,039,457,584,007,913,129,639,935"
                        }
                    ],
                    "constructorArguments": "",
                    "name": "approve",
                    "returnParams": [
                        {
                            "name": "",
                            "type": "bool",
                            "value": true
                        }
                    ],
                    "signature": "approve(address,uint256)"
                },
                "errorInfo": "",
                "fromAddress": "0xa78aefd483ce3919c0ad55c8a2e5c97cbac1caf8",
                "gasUsed": 24673,
                "id": 25,
                "methodDecoded": true,
                "operation": "CALL",
                "output": "0x0000000000000000000000000000000000000000000000000000000000000001",
                "revert": false,
                "revertMessage": "",
                "selector": "0x095ea7b3",
                "status": true,
                "value": "0"
            },
            "nodeType": 0
        },
        "26": {
            "event": {
                "contract": "0x9560e827af36c94d2ac33a39bce1fe78631088db",
                "decodedLog": {
                    "name": "Approval",
                    "params": [
                        {
                            "name": "owner",
                            "type": "address",
                            "value": "0xa78aefd483ce3919c0ad55c8a2e5c97cbac1caf8"
                        },
                        {
                            "name": "spender",
                            "type": "address",
                            "value": "0xe3b81318b1b6776f0877c3770afddff97b9f5fe5"
                        },
                        {
                            "decimalAvailable": true,
                            "name": "value",
                            "type": "uint256",
                            "value": "115,792,089,237,316,195,423,570,985,008,687,907,853,269,984,665,640,564,039,457,584,007,913,129,639,935"
                        }
                    ],
                    "signature": "Approval(address,address,uint256)"
                },
                "id": 26,
                "logData": "0xffffffffffffffffffffffffffffffffffffffffffffffffffffffffffffffff",
                "logDecoded": true,
                "operation": "EVENT",
                "revert": false,
                "status": true,
                "topics": [
                    "0x8c5be1e5ebec7d5bd14f71427d1e84f3dd0314c0f7b2291e5b200ac8c7c3b925",
                    "0x000000000000000000000000a78aefd483ce3919c0ad55c8a2e5c97cbac1caf8",
                    "0x000000000000000000000000e3b81318b1b6776f0877c3770afddff97b9f5fe5"
                ]
            },
            "nodeType": 1
        },
        "27": {
            "invocation": {
                "address": "0xe3b81318b1b6776f0877c3770afddff97b9f5fe5",
                "callData": "0x0000000000000000000000000000000000000000000000000000000017d78401",
                "decodedMethod": {
                    "callParams": [
                        {
                            "name": "mintAmount",
                            "type": "uint256",
                            "value": "400,000,001"
                        }
                    ],
                    "constructorArguments": "",
                    "name": "mint",
                    "returnParams": [
                        {
                            "name": "",
                            "type": "uint256",
                            "value": "0"
                        }
                    ],
                    "signature": "mint(uint256)"
                },
                "errorInfo": "",
                "fromAddress": "0xa78aefd483ce3919c0ad55c8a2e5c97cbac1caf8",
                "gasUsed": 179332,
                "id": 27,
                "methodDecoded": true,
                "operation": "CALL",
                "output": "0x0000000000000000000000000000000000000000000000000000000000000000",
                "revert": false,
                "revertMessage": "",
                "selector": "0xa0712d68",
                "status": true,
                "value": "0"
            },
            "nodeType": 0
        },
        "28": {
            "invocation": {
                "address": "0x60cf091cd3f50420d50fd7f707414d0df4751c58",
                "callData": "0x000000000000000000000000e3b81318b1b6776f0877c3770afddff97b9f5fe5000000000000000000000000a78aefd483ce3919c0ad55c8a2e5c97cbac1caf80000000000000000000000000000000000000000000000000000000017d78401",
                "decodedMethod": {
                    "callParams": [
                        {
                            "name": "cToken",
                            "type": "address",
                            "value": "0xe3b81318b1b6776f0877c3770afddff97b9f5fe5"
                        },
                        {
                            "name": "minter",
                            "type": "address",
                            "value": "0xa78aefd483ce3919c0ad55c8a2e5c97cbac1caf8"
                        },
                        {
                            "name": "mintAmount",
                            "type": "uint256",
                            "value": "400,000,001"
                        }
                    ],
                    "constructorArguments": "",
                    "name": "mintAllowed",
                    "returnParams": [
                        {
                            "name": "",
                            "type": "uint256",
                            "value": "0"
                        }
                    ],
                    "signature": "mintAllowed(address,address,uint256)"
                },
                "errorInfo": "",
                "fromAddress": "0xe3b81318b1b6776f0877c3770afddff97b9f5fe5",
                "gasUsed": 88943,
                "id": 28,
                "methodDecoded": true,
                "operation": "CALL",
                "output": "0x0000000000000000000000000000000000000000000000000000000000000000",
                "revert": false,
                "revertMessage": "",
                "selector": "0x4ef4c3e1",
                "status": true,
                "value": "0"
            },
            "nodeType": 0
        },
        "29": {
            "invocation": {
                "address": "0xe8ff1489227fa74f77e49c688903e69e1583c03f",
                "callData": "0x000000000000000000000000e3b81318b1b6776f0877c3770afddff97b9f5fe5000000000000000000000000a78aefd483ce3919c0ad55c8a2e5c97cbac1caf80000000000000000000000000000000000000000000000000000000017d78401",
                "decodedMethod": {
                    "callParams": [
                        {
                            "name": "cToken",
                            "type": "address",
                            "value": "0xe3b81318b1b6776f0877c3770afddff97b9f5fe5"
                        },
                        {
                            "name": "minter",
                            "type": "address",
                            "value": "0xa78aefd483ce3919c0ad55c8a2e5c97cbac1caf8"
                        },
                        {
                            "name": "mintAmount",
                            "type": "uint256",
                            "value": "400,000,001"
                        }
                    ],
                    "constructorArguments": "",
                    "name": "mintAllowed",
                    "returnParams": [
                        {
                            "name": "",
                            "type": "uint256",
                            "value": "0"
                        }
                    ],
                    "signature": "mintAllowed(address,address,uint256)"
                },
                "errorInfo": "",
                "fromAddress": "0x60cf091cd3f50420d50fd7f707414d0df4751c58",
                "gasUsed": 88242,
                "id": 29,
                "methodDecoded": true,
                "operation": "DELEGATECALL",
                "output": "0x0000000000000000000000000000000000000000000000000000000000000000",
                "revert": false,
                "revertMessage": "",
                "selector": "0x4ef4c3e1",
                "status": true,
                "value": "0"
            },
            "nodeType": 0
        },
        "3": {
            "invocation": {
                "address": "0x9560e827af36c94d2ac33a39bce1fe78631088db",
                "callData": "0x000000000000000000000000e3b81318b1b6776f0877c3770afddff97b9f5fe5",
                "decodedMethod": {
                    "callParams": [
                        {
                            "name": "account",
                            "type": "address",
                            "value": "0xe3b81318b1b6776f0877c3770afddff97b9f5fe5"
                        }
                    ],
                    "constructorArguments": "",
                    "name": "balanceOf",
                    "returnParams": [
                        {
                            "decimalAvailable": true,
                            "name": "",
                            "type": "uint256",
                            "value": "0"
                        }
                    ],
                    "signature": "balanceOf(address)"
                },
                "errorInfo": "",
                "fromAddress": "0xe3b81318b1b6776f0877c3770afddff97b9f5fe5",
                "gasUsed": 2563,
                "id": 3,
                "methodDecoded": true,
                "operation": "STATICCALL",
                "output": "0x0000000000000000000000000000000000000000000000000000000000000000",
                "revert": false,
                "revertMessage": "",
                "selector": "0x70a08231",
                "status": true,
                "value": "0"
            },
            "nodeType": 0
        },
        "30": {
            "invocation": {
                "address": "0x493f11252dd0eac438c512c801f331fda42c9402",
                "callData": "0x000000000000000000000000e3b81318b1b6776f0877c3770afddff97b9f5fe5",
                "decodedMethod": {
                    "callParams": [
                        {
                            "name": "cToken",
                            "type": "address",
                            "value": "0xe3b81318b1b6776f0877c3770afddff97b9f5fe5"
                        }
                    ],
                    "constructorArguments": "",
                    "name": "notifySupplyIndex",
                    "returnParams": [],
                    "signature": "notifySupplyIndex(address)"
                },
                "errorInfo": "",
                "fromAddress": "0x60cf091cd3f50420d50fd7f707414d0df4751c58",
                "gasUsed": 39247,
                "id": 30,
                "methodDecoded": true,
                "operation": "CALL",
                "output": "",
                "revert": false,
                "revertMessage": "",
                "selector": "0xe86b2fbe",
                "status": true,
                "value": "0"
            },
            "nodeType": 0
        },
        "31": {
            "invocation": {
                "address": "0x9117ecd2da25fe1c62c989ed7dc3353a89389b6a",
                "callData": "0x000000000000000000000000e3b81318b1b6776f0877c3770afddff97b9f5fe5",
                "decodedMethod": {
                    "callParams": [
                        {
                            "name": "cToken",
                            "type": "address",
                            "value": "0xe3b81318b1b6776f0877c3770afddff97b9f5fe5"
                        }
                    ],
                    "constructorArguments": "",
                    "name": "notifySupplyIndex",
                    "returnParams": [],
                    "signature": "notifySupplyIndex(address)"
                },
                "errorInfo": "",
                "fromAddress": "0x493f11252dd0eac438c512c801f331fda42c9402",
                "gasUsed": 32001,
                "id": 31,
                "methodDecoded": true,
                "operation": "DELEGATECALL",
                "output": "",
                "revert": false,
                "revertMessage": "",
                "selector": "0xe86b2fbe",
                "status": true,
                "value": "0"
            },
            "nodeType": 0
        },
        "32": {
            "invocation": {
                "address": "0xe3b81318b1b6776f0877c3770afddff97b9f5fe5",
                "callData": "0x000000000000000000000000a78aefd483ce3919c0ad55c8a2e5c97cbac1caf8",
                "decodedMethod": {
                    "callParams": [
                        {
                            "name": "owner",
                            "type": "address",
                            "value": "0xa78aefd483ce3919c0ad55c8a2e5c97cbac1caf8"
                        }
                    ],
                    "constructorArguments": "",
                    "name": "balanceOf",
                    "returnParams": [
                        {
                            "decimalAvailable": true,
                            "name": "",
                            "type": "uint256",
                            "value": "0"
                        }
                    ],
                    "signature": "balanceOf(address)"
                },
                "errorInfo": "",
                "fromAddress": "0x60cf091cd3f50420d50fd7f707414d0df4751c58",
                "gasUsed": 2642,
                "id": 32,
                "methodDecoded": true,
                "operation": "STATICCALL",
                "output": "0x0000000000000000000000000000000000000000000000000000000000000000",
                "revert": false,
                "revertMessage": "",
                "selector": "0x70a08231",
                "status": true,
                "value": "0"
            },
            "nodeType": 0
        },
        "33": {
            "event": {
                "contract": "0x60cf091cd3f50420d50fd7f707414d0df4751c58",
                "decodedLog": {
                    "name": "DistributedSupplierComp",
                    "params": [
                        {
                            "name": "cToken",
                            "type": "address",
                            "value": "0xe3b81318b1b6776f0877c3770afddff97b9f5fe5"
                        },
                        {
                            "name": "supplier",
                            "type": "address",
                            "value": "0xa78aefd483ce3919c0ad55c8a2e5c97cbac1caf8"
                        },
                        {
                            "name": "compDelta",
                            "type": "uint256",
                            "value": "0"
                        },
                        {
                            "name": "compSupplyIndex",
                            "type": "uint256",
                            "value": "1,000,000,000,000,000,000,000,000,000,000,000,000"
                        }
                    ],
                    "signature": "DistributedSupplierComp(address,address,uint256,uint256)"
                },
                "id": 33,
                "logData": "0x00000000000000000000000000000000000000000000000000000000000000000000000000000000000000000000000000c097ce7bc90715b34b9f1000000000",
                "logDecoded": true,
                "operation": "EVENT",
                "revert": false,
                "status": true,
                "topics": [
                    "0x2caecd17d02f56fa897705dcc740da2d237c373f70686f4e0d9bd3bf0400ea7a",
                    "0x000000000000000000000000e3b81318b1b6776f0877c3770afddff97b9f5fe5",
                    "0x000000000000000000000000a78aefd483ce3919c0ad55c8a2e5c97cbac1caf8"
                ]
            },
            "nodeType": 1
        },
        "34": {
            "invocation": {
                "address": "0x493f11252dd0eac438c512c801f331fda42c9402",
                "callData": "0x000000000000000000000000e3b81318b1b6776f0877c3770afddff97b9f5fe5000000000000000000000000a78aefd483ce3919c0ad55c8a2e5c97cbac1caf8",
                "decodedMethod": {
                    "callParams": [
                        {
                            "name": "cToken",
                            "type": "address",
                            "value": "0xe3b81318b1b6776f0877c3770afddff97b9f5fe5"
                        },
                        {
                            "name": "supplier",
                            "type": "address",
                            "value": "0xa78aefd483ce3919c0ad55c8a2e5c97cbac1caf8"
                        }
                    ],
                    "constructorArguments": "",
                    "name": "notifySupplier",
                    "returnParams": [],
                    "signature": "notifySupplier(address,address)"
                },
                "errorInfo": "",
                "fromAddress": "0x60cf091cd3f50420d50fd7f707414d0df4751c58",
                "gasUsed": 8623,
                "id": 34,
                "methodDecoded": true,
                "operation": "CALL",
                "output": "",
                "revert": false,
                "revertMessage": "",
                "selector": "0x45a49d3c",
                "status": true,
                "value": "0"
            },
            "nodeType": 0
        },
        "35": {
            "invocation": {
                "address": "0x9117ecd2da25fe1c62c989ed7dc3353a89389b6a",
                "callData": "0x000000000000000000000000e3b81318b1b6776f0877c3770afddff97b9f5fe5000000000000000000000000a78aefd483ce3919c0ad55c8a2e5c97cbac1caf8",
                "decodedMethod": {
                    "callParams": [
                        {
                            "name": "cToken",
                            "type": "address",
                            "value": "0xe3b81318b1b6776f0877c3770afddff97b9f5fe5"
                        },
                        {
                            "name": "supplier",
                            "type": "address",
                            "value": "0xa78aefd483ce3919c0ad55c8a2e5c97cbac1caf8"
                        }
                    ],
                    "constructorArguments": "",
                    "name": "notifySupplier",
                    "returnParams": [],
                    "signature": "notifySupplier(address,address)"
                },
                "errorInfo": "",
                "fromAddress": "0x493f11252dd0eac438c512c801f331fda42c9402",
                "gasUsed": 7895,
                "id": 35,
                "methodDecoded": true,
                "operation": "DELEGATECALL",
                "output": "",
                "revert": false,
                "revertMessage": "",
                "selector": "0x45a49d3c",
                "status": true,
                "value": "0"
            },
            "nodeType": 0
        },
        "36": {
            "invocation": {
                "address": "0xe3b81318b1b6776f0877c3770afddff97b9f5fe5",
                "callData": "0x000000000000000000000000a78aefd483ce3919c0ad55c8a2e5c97cbac1caf8",
                "decodedMethod": {
                    "callParams": [
                        {
                            "name": "owner",
                            "type": "address",
                            "value": "0xa78aefd483ce3919c0ad55c8a2e5c97cbac1caf8"
                        }
                    ],
                    "constructorArguments": "",
                    "name": "balanceOf",
                    "returnParams": [
                        {
                            "decimalAvailable": true,
                            "name": "",
                            "type": "uint256",
                            "value": "0"
                        }
                    ],
                    "signature": "balanceOf(address)"
                },
                "errorInfo": "",
                "fromAddress": "0x493f11252dd0eac438c512c801f331fda42c9402",
                "gasUsed": 642,
                "id": 36,
                "methodDecoded": true,
                "operation": "STATICCALL",
                "output": "0x0000000000000000000000000000000000000000000000000000000000000000",
                "revert": false,
                "revertMessage": "",
                "selector": "0x70a08231",
                "status": true,
                "value": "0"
            },
            "nodeType": 0
        },
        "37": {
            "invocation": {
                "address": "0x9560e827af36c94d2ac33a39bce1fe78631088db",
                "callData": "0x000000000000000000000000e3b81318b1b6776f0877c3770afddff97b9f5fe5",
                "decodedMethod": {
                    "callParams": [
                        {
                            "name": "account",
                            "type": "address",
                            "value": "0xe3b81318b1b6776f0877c3770afddff97b9f5fe5"
                        }
                    ],
                    "constructorArguments": "",
                    "name": "balanceOf",
                    "returnParams": [
                        {
                            "decimalAvailable": true,
                            "name": "",
                            "type": "uint256",
                            "value": "0"
                        }
                    ],
                    "signature": "balanceOf(address)"
                },
                "errorInfo": "",
                "fromAddress": "0xe3b81318b1b6776f0877c3770afddff97b9f5fe5",
                "gasUsed": 563,
                "id": 37,
                "methodDecoded": true,
                "operation": "STATICCALL",
                "output": "0x0000000000000000000000000000000000000000000000000000000000000000",
                "revert": false,
                "revertMessage": "",
                "selector": "0x70a08231",
                "status": true,
                "value": "0"
            },
            "nodeType": 0
        },
        "38": {
            "invocation": {
                "address": "0x9560e827af36c94d2ac33a39bce1fe78631088db",
                "callData": "0x000000000000000000000000a78aefd483ce3919c0ad55c8a2e5c97cbac1caf8000000000000000000000000e3b81318b1b6776f0877c3770afddff97b9f5fe50000000000000000000000000000000000000000000000000000000017d78401",
                "decodedMethod": {
                    "callParams": [
                        {
                            "name": "from",
                            "type": "address",
                            "value": "0xa78aefd483ce3919c0ad55c8a2e5c97cbac1caf8"
                        },
                        {
                            "name": "to",
                            "type": "address",
                            "value": "0xe3b81318b1b6776f0877c3770afddff97b9f5fe5"
                        },
                        {
                            "decimalAvailable": true,
                            "name": "amount",
                            "type": "uint256",
                            "value": "400,000,001"
                        }
                    ],
                    "constructorArguments": "",
                    "name": "transferFrom",
                    "returnParams": [
                        {
                            "name": "",
                            "type": "bool",
                            "value": true
                        }
                    ],
                    "signature": "transferFrom(address,address,uint256)"
                },
                "errorInfo": "",
                "fromAddress": "0xe3b81318b1b6776f0877c3770afddff97b9f5fe5",
                "gasUsed": 28343,
                "id": 38,
                "methodDecoded": true,
                "operation": "CALL",
                "output": "0x0000000000000000000000000000000000000000000000000000000000000001",
                "revert": false,
                "revertMessage": "",
                "selector": "0x23b872dd",
                "status": true,
                "value": "0"
            },
            "nodeType": 0
        },
        "39": {
            "event": {
                "contract": "0x9560e827af36c94d2ac33a39bce1fe78631088db",
                "decodedLog": {
                    "name": "Transfer",
                    "params": [
                        {
                            "name": "from",
                            "type": "address",
                            "value": "0xa78aefd483ce3919c0ad55c8a2e5c97cbac1caf8"
                        },
                        {
                            "name": "to",
                            "type": "address",
                            "value": "0xe3b81318b1b6776f0877c3770afddff97b9f5fe5"
                        },
                        {
                            "decimalAvailable": true,
                            "name": "value",
                            "type": "uint256",
                            "value": "400,000,001"
                        }
                    ],
                    "signature": "Transfer(address,address,uint256)"
                },
                "id": 39,
                "logData": "0x0000000000000000000000000000000000000000000000000000000017d78401",
                "logDecoded": true,
                "operation": "EVENT",
                "revert": false,
                "status": true,
                "topics": [
                    "0xddf252ad1be2c89b69c2b068fc378daa952ba7f163c4a11628f55a4df523b3ef",
                    "0x000000000000000000000000a78aefd483ce3919c0ad55c8a2e5c97cbac1caf8",
                    "0x000000000000000000000000e3b81318b1b6776f0877c3770afddff97b9f5fe5"
                ]
            },
            "nodeType": 1
        },
        "4": {
            "invocation": {
                "address": "0x7320bd5fa56f8a7ea959a425f0c0b8cac56f741e",
                "callData": "0x000000000000000000000000000000000000000000000000000000000000000000000000000000000000000000000000000000000000000000000000000000000000000000000000000000000000000000000000000000000000000000000000",
                "decodedMethod": {
                    "callParams": [
                        {
                            "name": "cash",
                            "type": "uint256",
                            "value": "0"
                        },
                        {
                            "name": "borrows",
                            "type": "uint256",
                            "value": "0"
                        },
                        {
                            "name": "reserves",
                            "type": "uint256",
                            "value": "0"
                        }
                    ],
                    "constructorArguments": "",
                    "name": "getBorrowRate",
                    "returnParams": [
                        {
                            "name": "",
                            "type": "uint256",
                            "value": "792,744,799"
                        }
                    ],
                    "signature": "getBorrowRate(uint256,uint256,uint256)"
                },
                "errorInfo": "",
                "fromAddress": "0xe3b81318b1b6776f0877c3770afddff97b9f5fe5",
                "gasUsed": 7229,
                "id": 4,
                "methodDecoded": true,
                "operation": "STATICCALL",
                "output": "0x000000000000000000000000000000000000000000000000000000002f40535f",
                "revert": false,
                "revertMessage": "",
                "selector": "0x15f24053",
                "status": true,
                "value": "0"
            },
            "nodeType": 0
        },
        "40": {
            "invocation": {
                "address": "0x9560e827af36c94d2ac33a39bce1fe78631088db",
                "callData": "0x000000000000000000000000e3b81318b1b6776f0877c3770afddff97b9f5fe5",
                "decodedMethod": {
                    "callParams": [
                        {
                            "name": "account",
                            "type": "address",
                            "value": "0xe3b81318b1b6776f0877c3770afddff97b9f5fe5"
                        }
                    ],
                    "constructorArguments": "",
                    "name": "balanceOf",
                    "returnParams": [
                        {
                            "decimalAvailable": true,
                            "name": "",
                            "type": "uint256",
                            "value": "400,000,001"
                        }
                    ],
                    "signature": "balanceOf(address)"
                },
                "errorInfo": "",
                "fromAddress": "0xe3b81318b1b6776f0877c3770afddff97b9f5fe5",
                "gasUsed": 563,
                "id": 40,
                "methodDecoded": true,
                "operation": "STATICCALL",
                "output": "0x0000000000000000000000000000000000000000000000000000000017d78401",
                "revert": false,
                "revertMessage": "",
                "selector": "0x70a08231",
                "status": true,
                "value": "0"
            },
            "nodeType": 0
        },
        "41": {
            "event": {
                "contract": "0xe3b81318b1b6776f0877c3770afddff97b9f5fe5",
                "decodedLog": {
                    "name": "Mint",
                    "params": [
                        {
                            "name": "minter",
                            "type": "address",
                            "value": "0xa78aefd483ce3919c0ad55c8a2e5c97cbac1caf8"
                        },
                        {
                            "name": "mintAmount",
                            "type": "uint256",
                            "value": "400,000,001"
                        },
                        {
                            "name": "mintTokens",
                            "type": "uint256",
                            "value": "2"
                        }
                    ],
                    "signature": "Mint(address,uint256,uint256)"
                },
                "id": 41,
                "logData": "0x000000000000000000000000a78aefd483ce3919c0ad55c8a2e5c97cbac1caf80000000000000000000000000000000000000000000000000000000017d784010000000000000000000000000000000000000000000000000000000000000002",
                "logDecoded": true,
                "operation": "EVENT",
                "revert": false,
                "status": true,
                "topics": [
                    "0x4c209b5fc8ad50758f13e2e1088ba56a560dff690a1c6fef26394f4c03821c4f"
                ]
            },
            "nodeType": 1
        },
        "42": {
            "event": {
                "contract": "0xe3b81318b1b6776f0877c3770afddff97b9f5fe5",
                "decodedLog": {
                    "name": "Transfer",
                    "params": [
                        {
                            "name": "from",
                            "type": "address",
                            "value": "0xe3b81318b1b6776f0877c3770afddff97b9f5fe5"
                        },
                        {
                            "name": "to",
                            "type": "address",
                            "value": "0xa78aefd483ce3919c0ad55c8a2e5c97cbac1caf8"
                        },
                        {
                            "decimalAvailable": true,
                            "name": "amount",
                            "type": "uint256",
                            "value": "2"
                        }
                    ],
                    "signature": "Transfer(address,address,uint256)"
                },
                "id": 42,
                "logData": "0x0000000000000000000000000000000000000000000000000000000000000002",
                "logDecoded": true,
                "operation": "EVENT",
                "revert": false,
                "status": true,
                "topics": [
                    "0xddf252ad1be2c89b69c2b068fc378daa952ba7f163c4a11628f55a4df523b3ef",
                    "0x000000000000000000000000e3b81318b1b6776f0877c3770afddff97b9f5fe5",
                    "0x000000000000000000000000a78aefd483ce3919c0ad55c8a2e5c97cbac1caf8"
                ]
            },
            "nodeType": 1
        },
        "43": {
            "invocation": {
                "address": "0x60cf091cd3f50420d50fd7f707414d0df4751c58",
                "callData": "0x000000000000000000000000e3b81318b1b6776f0877c3770afddff97b9f5fe5000000000000000000000000a78aefd483ce3919c0ad55c8a2e5c97cbac1caf80000000000000000000000000000000000000000000000000000000017d784010000000000000000000000000000000000000000000000000000000000000002",
                "decodedMethod": {
                    "callParams": [
                        {
                            "name": "cToken",
                            "type": "address",
                            "value": "0xe3b81318b1b6776f0877c3770afddff97b9f5fe5"
                        },
                        {
                            "name": "minter",
                            "type": "address",
                            "value": "0xa78aefd483ce3919c0ad55c8a2e5c97cbac1caf8"
                        },
                        {
                            "name": "actualMintAmount",
                            "type": "uint256",
                            "value": "400,000,001"
                        },
                        {
                            "name": "mintTokens",
                            "type": "uint256",
                            "value": "2"
                        }
                    ],
                    "constructorArguments": "",
                    "name": "mintVerify",
                    "returnParams": [],
                    "signature": "mintVerify(address,address,uint256,uint256)"
                },
                "errorInfo": "",
                "fromAddress": "0xe3b81318b1b6776f0877c3770afddff97b9f5fe5",
                "gasUsed": 3459,
                "id": 43,
                "methodDecoded": true,
                "operation": "CALL",
                "output": "",
                "revert": false,
                "revertMessage": "",
                "selector": "0x41c728b9",
                "status": true,
                "value": "0"
            },
            "nodeType": 0
        },
        "44": {
            "invocation": {
                "address": "0xe8ff1489227fa74f77e49c688903e69e1583c03f",
                "callData": "0x000000000000000000000000e3b81318b1b6776f0877c3770afddff97b9f5fe5000000000000000000000000a78aefd483ce3919c0ad55c8a2e5c97cbac1caf80000000000000000000000000000000000000000000000000000000017d784010000000000000000000000000000000000000000000000000000000000000002",
                "decodedMethod": {
                    "callParams": [
                        {
                            "name": "cToken",
                            "type": "address",
                            "value": "0xe3b81318b1b6776f0877c3770afddff97b9f5fe5"
                        },
                        {
                            "name": "minter",
                            "type": "address",
                            "value": "0xa78aefd483ce3919c0ad55c8a2e5c97cbac1caf8"
                        },
                        {
                            "name": "actualMintAmount",
                            "type": "uint256",
                            "value": "400,000,001"
                        },
                        {
                            "name": "mintTokens",
                            "type": "uint256",
                            "value": "2"
                        }
                    ],
                    "constructorArguments": "",
                    "name": "mintVerify",
                    "returnParams": [],
                    "signature": "mintVerify(address,address,uint256,uint256)"
                },
                "errorInfo": "",
                "fromAddress": "0x60cf091cd3f50420d50fd7f707414d0df4751c58",
                "gasUsed": 2825,
                "id": 44,
                "methodDecoded": true,
                "operation": "DELEGATECALL",
                "output": "",
                "revert": false,
                "revertMessage": "",
                "selector": "0x41c728b9",
                "status": true,
                "value": "0"
            },
            "nodeType": 0
        },
        "45": {
            "invocation": {
                "address": "0xe3b81318b1b6776f0877c3770afddff97b9f5fe5",
                "callData": "0x000000000000000000000000a78aefd483ce3919c0ad55c8a2e5c97cbac1caf8",
                "decodedMethod": {
                    "callParams": [
                        {
                            "name": "owner",
                            "type": "address",
                            "value": "0xa78aefd483ce3919c0ad55c8a2e5c97cbac1caf8"
                        }
                    ],
                    "constructorArguments": "",
                    "name": "balanceOf",
                    "returnParams": [
                        {
                            "decimalAvailable": true,
                            "name": "",
                            "type": "uint256",
                            "value": "2"
                        }
                    ],
                    "signature": "balanceOf(address)"
                },
                "errorInfo": "",
                "fromAddress": "0xa78aefd483ce3919c0ad55c8a2e5c97cbac1caf8",
                "gasUsed": 642,
                "id": 45,
                "methodDecoded": true,
                "operation": "STATICCALL",
                "output": "0x0000000000000000000000000000000000000000000000000000000000000002",
                "revert": false,
                "revertMessage": "",
                "selector": "0x70a08231",
                "status": true,
                "value": "0"
            },
            "nodeType": 0
        },
        "46": {
            "invocation": {
                "address": "0xe3b81318b1b6776f0877c3770afddff97b9f5fe5",
                "callData": "0x",
                "decodedMethod": {
                    "callParams": [],
                    "constructorArguments": "",
                    "name": "totalSupply",
                    "returnParams": [
                        {
                            "name": "",
                            "type": "uint256",
                            "value": "2"
                        }
                    ],
                    "signature": "totalSupply()"
                },
                "errorInfo": "",
                "fromAddress": "0xa78aefd483ce3919c0ad55c8a2e5c97cbac1caf8",
                "gasUsed": 452,
                "id": 46,
                "methodDecoded": true,
                "operation": "CALL",
                "output": "0x0000000000000000000000000000000000000000000000000000000000000002",
                "revert": false,
                "revertMessage": "",
                "selector": "0x18160ddd",
                "status": true,
                "value": "0"
            },
            "nodeType": 0
        },
        "47": {
            "invocation": {
                "address": "0x9560e827af36c94d2ac33a39bce1fe78631088db",
                "callData": "0x000000000000000000000000a78aefd483ce3919c0ad55c8a2e5c97cbac1caf8",
                "decodedMethod": {
                    "callParams": [
                        {
                            "name": "account",
                            "type": "address",
                            "value": "0xa78aefd483ce3919c0ad55c8a2e5c97cbac1caf8"
                        }
                    ],
                    "constructorArguments": "",
                    "name": "balanceOf",
                    "returnParams": [
                        {
                            "decimalAvailable": true,
                            "name": "",
                            "type": "uint256",
                            "value": "2,552,964,259,704,265,837,526"
                        }
                    ],
                    "signature": "balanceOf(address)"
                },
                "errorInfo": "",
                "fromAddress": "0xa78aefd483ce3919c0ad55c8a2e5c97cbac1caf8",
                "gasUsed": 563,
                "id": 47,
                "methodDecoded": true,
                "operation": "STATICCALL",
                "output": "0x00000000000000000000000000000000000000000000008a657f0c0444dd0bd6",
                "revert": false,
                "revertMessage": "",
                "selector": "0x70a08231",
                "status": true,
                "value": "0"
            },
            "nodeType": 0
        },
        "48": {
            "invocation": {
                "address": "0x9560e827af36c94d2ac33a39bce1fe78631088db",
                "callData": "0x000000000000000000000000e3b81318b1b6776f0877c3770afddff97b9f5fe500000000000000000000000000000000000000000000008a657f0c0444dd0bd6",
                "decodedMethod": {
                    "callParams": [
                        {
                            "name": "to",
                            "type": "address",
                            "value": "0xe3b81318b1b6776f0877c3770afddff97b9f5fe5"
                        },
                        {
                            "decimalAvailable": true,
                            "name": "amount",
                            "type": "uint256",
                            "value": "2,552,964,259,704,265,837,526"
                        }
                    ],
                    "constructorArguments": "",
                    "name": "transfer",
                    "returnParams": [
                        {
                            "name": "",
                            "type": "bool",
                            "value": true
                        }
                    ],
                    "signature": "transfer(address,uint256)"
                },
                "errorInfo": "",
                "fromAddress": "0xa78aefd483ce3919c0ad55c8a2e5c97cbac1caf8",
                "gasUsed": 3094,
                "id": 48,
                "methodDecoded": true,
                "operation": "CALL",
                "output": "0x0000000000000000000000000000000000000000000000000000000000000001",
                "revert": false,
                "revertMessage": "",
                "selector": "0xa9059cbb",
                "status": true,
                "value": "0"
            },
            "nodeType": 0
        },
        "49": {
            "event": {
                "contract": "0x9560e827af36c94d2ac33a39bce1fe78631088db",
                "decodedLog": {
                    "name": "Transfer",
                    "params": [
                        {
                            "name": "from",
                            "type": "address",
                            "value": "0xa78aefd483ce3919c0ad55c8a2e5c97cbac1caf8"
                        },
                        {
                            "name": "to",
                            "type": "address",
                            "value": "0xe3b81318b1b6776f0877c3770afddff97b9f5fe5"
                        },
                        {
                            "decimalAvailable": true,
                            "name": "value",
                            "type": "uint256",
                            "value": "2,552,964,259,704,265,837,526"
                        }
                    ],
                    "signature": "Transfer(address,address,uint256)"
                },
                "id": 49,
                "logData": "0x00000000000000000000000000000000000000000000008a657f0c0444dd0bd6",
                "logDecoded": true,
                "operation": "EVENT",
                "revert": false,
                "status": true,
                "topics": [
                    "0xddf252ad1be2c89b69c2b068fc378daa952ba7f163c4a11628f55a4df523b3ef",
                    "0x000000000000000000000000a78aefd483ce3919c0ad55c8a2e5c97cbac1caf8",
                    "0x000000000000000000000000e3b81318b1b6776f0877c3770afddff97b9f5fe5"
                ]
            },
            "nodeType": 1
        },
        "5": {
            "event": {
                "contract": "0xe3b81318b1b6776f0877c3770afddff97b9f5fe5",
                "decodedLog": {
                    "name": "AccrueInterest",
                    "params": [
                        {
                            "name": "cashPrior",
                            "type": "uint256",
                            "value": "0"
                        },
                        {
                            "name": "interestAccumulated",
                            "type": "uint256",
                            "value": "0"
                        },
                        {
                            "name": "borrowIndex",
                            "type": "uint256",
                            "value": "1,000,297,556,760,304,650"
                        },
                        {
                            "name": "totalBorrows",
                            "type": "uint256",
                            "value": "0"
                        }
                    ],
                    "signature": "AccrueInterest(uint256,uint256,uint256,uint256)"
                },
                "id": 5,
                "logData": "0x000000000000000000000000000000000000000000000000000000000000000000000000000000000000000000000000000000000000000000000000000000000000000000000000000000000000000000000000000000000de1c553fc639c0a0000000000000000000000000000000000000000000000000000000000000000",
                "logDecoded": true,
                "operation": "EVENT",
                "revert": false,
                "status": true,
                "topics": [
                    "0x4dec04e750ca11537cabcd8a9eab06494de08da3735bc8871cd41250e190bc04"
                ]
            },
            "nodeType": 1
        },
        "50": {
            "invocation": {
                "address": "0x797f57921b942fcc3849dc63932dfad0ab47e161",
                "callData": "0x",
                "decodedMethod": null,
                "errorInfo": "",
                "fromAddress": "0xa78aefd483ce3919c0ad55c8a2e5c97cbac1caf8",
                "gasUsed": 3835,
                "id": 50,
                "methodDecoded": false,
                "operation": "STATICCALL",
                "output": "0x0000000000000000000000000000000000000000000000000000000000000001",
                "revert": false,
                "revertMessage": "",
                "selector": "0xd3477d5f",
                "status": true,
                "value": "0"
            },
            "nodeType": 0
        },
        "51": {
            "invocation": {
                "address": "0xa78aefd483ce3919c0ad55c8a2e5c97cbac1caf8",
                "callData": "0x",
                "decodedMethod": {
                    "callParams": [],
                    "constructorArguments": "",
                    "name": "expo",
                    "returnParams": [
                        {
                            "name": "",
                            "type": "address",
                            "value": "0x797f57921b942fcc3849dc63932dfad0ab47e161"
                        }
                    ],
                    "signature": "expo()"
                },
                "errorInfo": "",
                "fromAddress": "0x797f57921b942fcc3849dc63932dfad0ab47e161",
                "gasUsed": 602,
                "id": 51,
                "methodDecoded": true,
                "operation": "STATICCALL",
                "output": "0x000000000000000000000000797f57921b942fcc3849dc63932dfad0ab47e161",
                "revert": false,
                "revertMessage": "",
                "selector": "0xb0065d4b",
                "status": true,
                "value": "0"
            },
            "nodeType": 0
        },
        "52": {
            "invocation": {
                "address": "0xe3b81318b1b6776f0877c3770afddff97b9f5fe5",
                "callData": "0x000000000000000000000000797f57921b942fcc3849dc63932dfad0ab47e1610000000000000000000000000000000000000000000000000000000000000002",
                "decodedMethod": {
                    "callParams": [
                        {
                            "name": "dst",
                            "type": "address",
                            "value": "0x797f57921b942fcc3849dc63932dfad0ab47e161"
                        },
                        {
                            "decimalAvailable": true,
                            "name": "amount",
                            "type": "uint256",
                            "value": "2"
                        }
                    ],
                    "constructorArguments": "",
                    "name": "transfer",
                    "returnParams": [
                        {
                            "name": "",
                            "type": "bool",
                            "value": true
                        }
                    ],
                    "signature": "transfer(address,uint256)"
                },
                "errorInfo": "",
                "fromAddress": "0xa78aefd483ce3919c0ad55c8a2e5c97cbac1caf8",
                "gasUsed": 87774,
                "id": 52,
                "methodDecoded": true,
                "operation": "CALL",
                "output": "0x0000000000000000000000000000000000000000000000000000000000000001",
                "revert": false,
                "revertMessage": "",
                "selector": "0xa9059cbb",
                "status": true,
                "value": "0"
            },
            "nodeType": 0
        },
        "53": {
            "invocation": {
                "address": "0x60cf091cd3f50420d50fd7f707414d0df4751c58",
                "callData": "0x000000000000000000000000e3b81318b1b6776f0877c3770afddff97b9f5fe5000000000000000000000000a78aefd483ce3919c0ad55c8a2e5c97cbac1caf8000000000000000000000000797f57921b942fcc3849dc63932dfad0ab47e1610000000000000000000000000000000000000000000000000000000000000002",
                "decodedMethod": {
                    "callParams": [
                        {
                            "name": "cToken",
                            "type": "address",
                            "value": "0xe3b81318b1b6776f0877c3770afddff97b9f5fe5"
                        },
                        {
                            "name": "src",
                            "type": "address",
                            "value": "0xa78aefd483ce3919c0ad55c8a2e5c97cbac1caf8"
                        },
                        {
                            "name": "dst",
                            "type": "address",
                            "value": "0x797f57921b942fcc3849dc63932dfad0ab47e161"
                        },
                        {
                            "name": "transferTokens",
                            "type": "uint256",
                            "value": "2"
                        }
                    ],
                    "constructorArguments": "",
                    "name": "transferAllowed",
                    "returnParams": [
                        {
                            "name": "",
                            "type": "uint256",
                            "value": "0"
                        }
                    ],
                    "signature": "transferAllowed(address,address,address,uint256)"
                },
                "errorInfo": "",
                "fromAddress": "0xe3b81318b1b6776f0877c3770afddff97b9f5fe5",
                "gasUsed": 60311,
                "id": 53,
                "methodDecoded": true,
                "operation": "CALL",
                "output": "0x0000000000000000000000000000000000000000000000000000000000000000",
                "revert": false,
                "revertMessage": "",
                "selector": "0xbdcdc258",
                "status": true,
                "value": "0"
            },
            "nodeType": 0
        },
        "54": {
            "invocation": {
                "address": "0xe8ff1489227fa74f77e49c688903e69e1583c03f",
                "callData": "0x000000000000000000000000e3b81318b1b6776f0877c3770afddff97b9f5fe5000000000000000000000000a78aefd483ce3919c0ad55c8a2e5c97cbac1caf8000000000000000000000000797f57921b942fcc3849dc63932dfad0ab47e1610000000000000000000000000000000000000000000000000000000000000002",
                "decodedMethod": {
                    "callParams": [
                        {
                            "name": "cToken",
                            "type": "address",
                            "value": "0xe3b81318b1b6776f0877c3770afddff97b9f5fe5"
                        },
                        {
                            "name": "src",
                            "type": "address",
                            "value": "0xa78aefd483ce3919c0ad55c8a2e5c97cbac1caf8"
                        },
                        {
                            "name": "dst",
                            "type": "address",
                            "value": "0x797f57921b942fcc3849dc63932dfad0ab47e161"
                        },
                        {
                            "name": "transferTokens",
                            "type": "uint256",
                            "value": "2"
                        }
                    ],
                    "constructorArguments": "",
                    "name": "transferAllowed",
                    "returnParams": [
                        {
                            "name": "",
                            "type": "uint256",
                            "value": "0"
                        }
                    ],
                    "signature": "transferAllowed(address,address,address,uint256)"
                },
                "errorInfo": "",
                "fromAddress": "0x60cf091cd3f50420d50fd7f707414d0df4751c58",
                "gasUsed": 59604,
                "id": 54,
                "methodDecoded": true,
                "operation": "DELEGATECALL",
                "output": "0x0000000000000000000000000000000000000000000000000000000000000000",
                "revert": false,
                "revertMessage": "",
                "selector": "0xbdcdc258",
                "status": true,
                "value": "0"
            },
            "nodeType": 0
        },
        "55": {
            "invocation": {
                "address": "0x493f11252dd0eac438c512c801f331fda42c9402",
                "callData": "0x000000000000000000000000e3b81318b1b6776f0877c3770afddff97b9f5fe5",
                "decodedMethod": {
                    "callParams": [
                        {
                            "name": "cToken",
                            "type": "address",
                            "value": "0xe3b81318b1b6776f0877c3770afddff97b9f5fe5"
                        }
                    ],
                    "constructorArguments": "",
                    "name": "notifySupplyIndex",
                    "returnParams": [],
                    "signature": "notifySupplyIndex(address)"
                },
                "errorInfo": "",
                "fromAddress": "0x60cf091cd3f50420d50fd7f707414d0df4751c58",
                "gasUsed": 2463,
                "id": 55,
                "methodDecoded": true,
                "operation": "CALL",
                "output": "",
                "revert": false,
                "revertMessage": "",
                "selector": "0xe86b2fbe",
                "status": true,
                "value": "0"
            },
            "nodeType": 0
        },
        "56": {
            "invocation": {
                "address": "0x9117ecd2da25fe1c62c989ed7dc3353a89389b6a",
                "callData": "0x000000000000000000000000e3b81318b1b6776f0877c3770afddff97b9f5fe5",
                "decodedMethod": {
                    "callParams": [
                        {
                            "name": "cToken",
                            "type": "address",
                            "value": "0xe3b81318b1b6776f0877c3770afddff97b9f5fe5"
                        }
                    ],
                    "constructorArguments": "",
                    "name": "notifySupplyIndex",
                    "returnParams": [],
                    "signature": "notifySupplyIndex(address)"
                },
                "errorInfo": "",
                "fromAddress": "0x493f11252dd0eac438c512c801f331fda42c9402",
                "gasUsed": 1717,
                "id": 56,
                "methodDecoded": true,
                "operation": "DELEGATECALL",
                "output": "",
                "revert": false,
                "revertMessage": "",
                "selector": "0xe86b2fbe",
                "status": true,
                "value": "0"
            },
            "nodeType": 0
        },
        "57": {
            "invocation": {
                "address": "0xe3b81318b1b6776f0877c3770afddff97b9f5fe5",
                "callData": "0x000000000000000000000000a78aefd483ce3919c0ad55c8a2e5c97cbac1caf8",
                "decodedMethod": {
                    "callParams": [
                        {
                            "name": "owner",
                            "type": "address",
                            "value": "0xa78aefd483ce3919c0ad55c8a2e5c97cbac1caf8"
                        }
                    ],
                    "constructorArguments": "",
                    "name": "balanceOf",
                    "returnParams": [
                        {
                            "decimalAvailable": true,
                            "name": "",
                            "type": "uint256",
                            "value": "2"
                        }
                    ],
                    "signature": "balanceOf(address)"
                },
                "errorInfo": "",
                "fromAddress": "0x60cf091cd3f50420d50fd7f707414d0df4751c58",
                "gasUsed": 642,
                "id": 57,
                "methodDecoded": true,
                "operation": "STATICCALL",
                "output": "0x0000000000000000000000000000000000000000000000000000000000000002",
                "revert": false,
                "revertMessage": "",
                "selector": "0x70a08231",
                "status": true,
                "value": "0"
            },
            "nodeType": 0
        },
        "58": {
            "event": {
                "contract": "0x60cf091cd3f50420d50fd7f707414d0df4751c58",
                "decodedLog": {
                    "name": "DistributedSupplierComp",
                    "params": [
                        {
                            "name": "cToken",
                            "type": "address",
                            "value": "0xe3b81318b1b6776f0877c3770afddff97b9f5fe5"
                        },
                        {
                            "name": "supplier",
                            "type": "address",
                            "value": "0xa78aefd483ce3919c0ad55c8a2e5c97cbac1caf8"
                        },
                        {
                            "name": "compDelta",
                            "type": "uint256",
                            "value": "0"
                        },
                        {
                            "name": "compSupplyIndex",
                            "type": "uint256",
                            "value": "1,000,000,000,000,000,000,000,000,000,000,000,000"
                        }
                    ],
                    "signature": "DistributedSupplierComp(address,address,uint256,uint256)"
                },
                "id": 58,
                "logData": "0x00000000000000000000000000000000000000000000000000000000000000000000000000000000000000000000000000c097ce7bc90715b34b9f1000000000",
                "logDecoded": true,
                "operation": "EVENT",
                "revert": false,
                "status": true,
                "topics": [
                    "0x2caecd17d02f56fa897705dcc740da2d237c373f70686f4e0d9bd3bf0400ea7a",
                    "0x000000000000000000000000e3b81318b1b6776f0877c3770afddff97b9f5fe5",
                    "0x000000000000000000000000a78aefd483ce3919c0ad55c8a2e5c97cbac1caf8"
                ]
            },
            "nodeType": 1
        },
        "59": {
            "invocation": {
                "address": "0x493f11252dd0eac438c512c801f331fda42c9402",
                "callData": "0x000000000000000000000000e3b81318b1b6776f0877c3770afddff97b9f5fe5000000000000000000000000a78aefd483ce3919c0ad55c8a2e5c97cbac1caf8",
                "decodedMethod": {
                    "callParams": [
                        {
                            "name": "cToken",
                            "type": "address",
                            "value": "0xe3b81318b1b6776f0877c3770afddff97b9f5fe5"
                        },
                        {
                            "name": "supplier",
                            "type": "address",
                            "value": "0xa78aefd483ce3919c0ad55c8a2e5c97cbac1caf8"
                        }
                    ],
                    "constructorArguments": "",
                    "name": "notifySupplier",
                    "returnParams": [],
                    "signature": "notifySupplier(address,address)"
                },
                "errorInfo": "",
                "fromAddress": "0x60cf091cd3f50420d50fd7f707414d0df4751c58",
                "gasUsed": 4623,
                "id": 59,
                "methodDecoded": true,
                "operation": "CALL",
                "output": "",
                "revert": false,
                "revertMessage": "",
                "selector": "0x45a49d3c",
                "status": true,
                "value": "0"
            },
            "nodeType": 0
        },
        "6": {
            "event": {
                "contract": "0xe3b81318b1b6776f0877c3770afddff97b9f5fe5",
                "decodedLog": {
                    "name": "NewReserveFactor",
                    "params": [
                        {
                            "name": "oldReserveFactorMantissa",
                            "type": "uint256",
                            "value": "0"
                        },
                        {
                            "name": "newReserveFactorMantissa",
                            "type": "uint256",
                            "value": "300,000,000,000,000,000"
                        }
                    ],
                    "signature": "NewReserveFactor(uint256,uint256)"
                },
                "id": 6,
                "logData": "0x00000000000000000000000000000000000000000000000000000000000000000000000000000000000000000000000000000000000000000429d069189e0000",
                "logDecoded": true,
                "operation": "EVENT",
                "revert": false,
                "status": true,
                "topics": [
                    "0xaaa68312e2ea9d50e16af5068410ab56e1a1fd06037b1a35664812c30f821460"
                ]
            },
            "nodeType": 1
        },
        "60": {
            "invocation": {
                "address": "0x9117ecd2da25fe1c62c989ed7dc3353a89389b6a",
                "callData": "0x000000000000000000000000e3b81318b1b6776f0877c3770afddff97b9f5fe5000000000000000000000000a78aefd483ce3919c0ad55c8a2e5c97cbac1caf8",
                "decodedMethod": {
                    "callParams": [
                        {
                            "name": "cToken",
                            "type": "address",
                            "value": "0xe3b81318b1b6776f0877c3770afddff97b9f5fe5"
                        },
                        {
                            "name": "supplier",
                            "type": "address",
                            "value": "0xa78aefd483ce3919c0ad55c8a2e5c97cbac1caf8"
                        }
                    ],
                    "constructorArguments": "",
                    "name": "notifySupplier",
                    "returnParams": [],
                    "signature": "notifySupplier(address,address)"
                },
                "errorInfo": "",
                "fromAddress": "0x493f11252dd0eac438c512c801f331fda42c9402",
                "gasUsed": 3895,
                "id": 60,
                "methodDecoded": true,
                "operation": "DELEGATECALL",
                "output": "",
                "revert": false,
                "revertMessage": "",
                "selector": "0x45a49d3c",
                "status": true,
                "value": "0"
            },
            "nodeType": 0
        },
        "61": {
            "invocation": {
                "address": "0xe3b81318b1b6776f0877c3770afddff97b9f5fe5",
                "callData": "0x000000000000000000000000a78aefd483ce3919c0ad55c8a2e5c97cbac1caf8",
                "decodedMethod": {
                    "callParams": [
                        {
                            "name": "owner",
                            "type": "address",
                            "value": "0xa78aefd483ce3919c0ad55c8a2e5c97cbac1caf8"
                        }
                    ],
                    "constructorArguments": "",
                    "name": "balanceOf",
                    "returnParams": [
                        {
                            "decimalAvailable": true,
                            "name": "",
                            "type": "uint256",
                            "value": "2"
                        }
                    ],
                    "signature": "balanceOf(address)"
                },
                "errorInfo": "",
                "fromAddress": "0x493f11252dd0eac438c512c801f331fda42c9402",
                "gasUsed": 642,
                "id": 61,
                "methodDecoded": true,
                "operation": "STATICCALL",
                "output": "0x0000000000000000000000000000000000000000000000000000000000000002",
                "revert": false,
                "revertMessage": "",
                "selector": "0x70a08231",
                "status": true,
                "value": "0"
            },
            "nodeType": 0
        },
        "62": {
            "invocation": {
                "address": "0xe3b81318b1b6776f0877c3770afddff97b9f5fe5",
                "callData": "0x000000000000000000000000797f57921b942fcc3849dc63932dfad0ab47e161",
                "decodedMethod": {
                    "callParams": [
                        {
                            "name": "owner",
                            "type": "address",
                            "value": "0x797f57921b942fcc3849dc63932dfad0ab47e161"
                        }
                    ],
                    "constructorArguments": "",
                    "name": "balanceOf",
                    "returnParams": [
                        {
                            "decimalAvailable": true,
                            "name": "",
                            "type": "uint256",
                            "value": "0"
                        }
                    ],
                    "signature": "balanceOf(address)"
                },
                "errorInfo": "",
                "fromAddress": "0x60cf091cd3f50420d50fd7f707414d0df4751c58",
                "gasUsed": 2642,
                "id": 62,
                "methodDecoded": true,
                "operation": "STATICCALL",
                "output": "0x0000000000000000000000000000000000000000000000000000000000000000",
                "revert": false,
                "revertMessage": "",
                "selector": "0x70a08231",
                "status": true,
                "value": "0"
            },
            "nodeType": 0
        },
        "63": {
            "event": {
                "contract": "0x60cf091cd3f50420d50fd7f707414d0df4751c58",
                "decodedLog": {
                    "name": "DistributedSupplierComp",
                    "params": [
                        {
                            "name": "cToken",
                            "type": "address",
                            "value": "0xe3b81318b1b6776f0877c3770afddff97b9f5fe5"
                        },
                        {
                            "name": "supplier",
                            "type": "address",
                            "value": "0x797f57921b942fcc3849dc63932dfad0ab47e161"
                        },
                        {
                            "name": "compDelta",
                            "type": "uint256",
                            "value": "0"
                        },
                        {
                            "name": "compSupplyIndex",
                            "type": "uint256",
                            "value": "1,000,000,000,000,000,000,000,000,000,000,000,000"
                        }
                    ],
                    "signature": "DistributedSupplierComp(address,address,uint256,uint256)"
                },
                "id": 63,
                "logData": "0x00000000000000000000000000000000000000000000000000000000000000000000000000000000000000000000000000c097ce7bc90715b34b9f1000000000",
                "logDecoded": true,
                "operation": "EVENT",
                "revert": false,
                "status": true,
                "topics": [
                    "0x2caecd17d02f56fa897705dcc740da2d237c373f70686f4e0d9bd3bf0400ea7a",
                    "0x000000000000000000000000e3b81318b1b6776f0877c3770afddff97b9f5fe5",
                    "0x000000000000000000000000797f57921b942fcc3849dc63932dfad0ab47e161"
                ]
            },
            "nodeType": 1
        },
        "64": {
            "invocation": {
                "address": "0x493f11252dd0eac438c512c801f331fda42c9402",
                "callData": "0x000000000000000000000000e3b81318b1b6776f0877c3770afddff97b9f5fe5000000000000000000000000797f57921b942fcc3849dc63932dfad0ab47e161",
                "decodedMethod": {
                    "callParams": [
                        {
                            "name": "cToken",
                            "type": "address",
                            "value": "0xe3b81318b1b6776f0877c3770afddff97b9f5fe5"
                        },
                        {
                            "name": "supplier",
                            "type": "address",
                            "value": "0x797f57921b942fcc3849dc63932dfad0ab47e161"
                        }
                    ],
                    "constructorArguments": "",
                    "name": "notifySupplier",
                    "returnParams": [],
                    "signature": "notifySupplier(address,address)"
                },
                "errorInfo": "",
                "fromAddress": "0x60cf091cd3f50420d50fd7f707414d0df4751c58",
                "gasUsed": 8623,
                "id": 64,
                "methodDecoded": true,
                "operation": "CALL",
                "output": "",
                "revert": false,
                "revertMessage": "",
                "selector": "0x45a49d3c",
                "status": true,
                "value": "0"
            },
            "nodeType": 0
        },
        "65": {
            "invocation": {
                "address": "0x9117ecd2da25fe1c62c989ed7dc3353a89389b6a",
                "callData": "0x000000000000000000000000e3b81318b1b6776f0877c3770afddff97b9f5fe5000000000000000000000000797f57921b942fcc3849dc63932dfad0ab47e161",
                "decodedMethod": {
                    "callParams": [
                        {
                            "name": "cToken",
                            "type": "address",
                            "value": "0xe3b81318b1b6776f0877c3770afddff97b9f5fe5"
                        },
                        {
                            "name": "supplier",
                            "type": "address",
                            "value": "0x797f57921b942fcc3849dc63932dfad0ab47e161"
                        }
                    ],
                    "constructorArguments": "",
                    "name": "notifySupplier",
                    "returnParams": [],
                    "signature": "notifySupplier(address,address)"
                },
                "errorInfo": "",
                "fromAddress": "0x493f11252dd0eac438c512c801f331fda42c9402",
                "gasUsed": 7895,
                "id": 65,
                "methodDecoded": true,
                "operation": "DELEGATECALL",
                "output": "",
                "revert": false,
                "revertMessage": "",
                "selector": "0x45a49d3c",
                "status": true,
                "value": "0"
            },
            "nodeType": 0
        },
        "66": {
            "invocation": {
                "address": "0xe3b81318b1b6776f0877c3770afddff97b9f5fe5",
                "callData": "0x000000000000000000000000797f57921b942fcc3849dc63932dfad0ab47e161",
                "decodedMethod": {
                    "callParams": [
                        {
                            "name": "owner",
                            "type": "address",
                            "value": "0x797f57921b942fcc3849dc63932dfad0ab47e161"
                        }
                    ],
                    "constructorArguments": "",
                    "name": "balanceOf",
                    "returnParams": [
                        {
                            "decimalAvailable": true,
                            "name": "",
                            "type": "uint256",
                            "value": "0"
                        }
                    ],
                    "signature": "balanceOf(address)"
                },
                "errorInfo": "",
                "fromAddress": "0x493f11252dd0eac438c512c801f331fda42c9402",
                "gasUsed": 642,
                "id": 66,
                "methodDecoded": true,
                "operation": "STATICCALL",
                "output": "0x0000000000000000000000000000000000000000000000000000000000000000",
                "revert": false,
                "revertMessage": "",
                "selector": "0x70a08231",
                "status": true,
                "value": "0"
            },
            "nodeType": 0
        },
        "67": {
            "event": {
                "contract": "0xe3b81318b1b6776f0877c3770afddff97b9f5fe5",
                "decodedLog": {
                    "name": "Transfer",
                    "params": [
                        {
                            "name": "from",
                            "type": "address",
                            "value": "0xa78aefd483ce3919c0ad55c8a2e5c97cbac1caf8"
                        },
                        {
                            "name": "to",
                            "type": "address",
                            "value": "0x797f57921b942fcc3849dc63932dfad0ab47e161"
                        },
                        {
                            "decimalAvailable": true,
                            "name": "amount",
                            "type": "uint256",
                            "value": "2"
                        }
                    ],
                    "signature": "Transfer(address,address,uint256)"
                },
                "id": 67,
                "logData": "0x0000000000000000000000000000000000000000000000000000000000000002",
                "logDecoded": true,
                "operation": "EVENT",
                "revert": false,
                "status": true,
                "topics": [
                    "0xddf252ad1be2c89b69c2b068fc378daa952ba7f163c4a11628f55a4df523b3ef",
                    "0x000000000000000000000000a78aefd483ce3919c0ad55c8a2e5c97cbac1caf8",
                    "0x000000000000000000000000797f57921b942fcc3849dc63932dfad0ab47e161"
                ]
            },
            "nodeType": 1
        },
        "68": {
            "invocation": {
                "address": "0xe3b81318b1b6776f0877c3770afddff97b9f5fe5",
                "callData": "0x000000000000000000000000797f57921b942fcc3849dc63932dfad0ab47e161",
                "decodedMethod": {
                    "callParams": [
                        {
                            "name": "owner",
                            "type": "address",
                            "value": "0x797f57921b942fcc3849dc63932dfad0ab47e161"
                        }
                    ],
                    "constructorArguments": "",
                    "name": "balanceOf",
                    "returnParams": [
                        {
                            "decimalAvailable": true,
                            "name": "",
                            "type": "uint256",
                            "value": "2"
                        }
                    ],
                    "signature": "balanceOf(address)"
                },
                "errorInfo": "",
                "fromAddress": "0xa78aefd483ce3919c0ad55c8a2e5c97cbac1caf8",
                "gasUsed": 642,
                "id": 68,
                "methodDecoded": true,
                "operation": "STATICCALL",
                "output": "0x0000000000000000000000000000000000000000000000000000000000000002",
                "revert": false,
                "revertMessage": "",
                "selector": "0x70a08231",
                "status": true,
                "value": "0"
            },
            "nodeType": 0
        },
        "7": {
            "event": {
                "contract": "0x37ff10390f22fabdc2137e428a6e6965960d60b6",
                "decodedLog": {
                    "name": "CallExecuted",
                    "params": [
                        {
                            "name": "id",
                            "type": "bytes32",
                            "value": "0x9335d83fd2c1d9008f590541659249f2ae6d06ae51a85edf3eea1da0067922f7"
                        },
                        {
                            "name": "index",
                            "type": "uint256",
                            "value": "0"
                        },
                        {
                            "name": "target",
                            "type": "address",
                            "value": "0xe3b81318b1b6776f0877c3770afddff97b9f5fe5"
                        },
                        {
                            "name": "value",
                            "type": "uint256",
                            "value": "0"
                        },
                        {
                            "name": "data",
                            "type": "bytes",
                            "value": "0xfca7820b0000000000000000000000000000000000000000000000000429d069189e0000"
                        }
                    ],
                    "signature": "CallExecuted(bytes32,uint256,address,uint256,bytes)"
                },
                "id": 7,
                "logData": "0x000000000000000000000000e3b81318b1b6776f0877c3770afddff97b9f5fe5000000000000000000000000000000000000000000000000000000000000000000000000000000000000000000000000000000000000000000000000000000600000000000000000000000000000000000000000000000000000000000000024fca7820b0000000000000000000000000000000000000000000000000429d069189e000000000000000000000000000000000000000000000000000000000000",
                "logDecoded": true,
                "operation": "EVENT",
                "revert": false,
                "status": true,
                "topics": [
                    "0xc2617efa69bab66782fa219543714338489c4e9e178271560a91b82c3f612b58",
                    "0x9335d83fd2c1d9008f590541659249f2ae6d06ae51a85edf3eea1da0067922f7",
                    "0x0000000000000000000000000000000000000000000000000000000000000000"
                ]
            },
            "nodeType": 1
        },
        "8": {
            "invocation": {
                "address": "0x37ff10390f22fabdc2137e428a6e6965960d60b6",
                "callData": "0x000000000000000000000000e3b81318b1b6776f0877c3770afddff97b9f5fe5000000000000000000000000000000000000000000000000000000000000000000000000000000000000000000000000000000000000000000000000000000a00000000000000000000000000000000000000000000000000000000000000000a57973a3d5a5d99d454c54117d7d30a57a8aca089891f505f120174216edaf420000000000000000000000000000000000000000000000000000000000000024f2b3abbd0000000000000000000000007320bd5fa56f8a7ea959a425f0c0b8cac56f741e00000000000000000000000000000000000000000000000000000000",
                "decodedMethod": {
                    "callParams": [
                        {
                            "name": "target",
                            "type": "address",
                            "value": "0xe3b81318b1b6776f0877c3770afddff97b9f5fe5"
                        },
                        {
                            "name": "value",
                            "type": "uint256",
                            "value": "0"
                        },
                        {
                            "name": "data",
                            "type": "bytes",
                            "value": "0xf2b3abbd0000000000000000000000007320bd5fa56f8a7ea959a425f0c0b8cac56f741e"
                        },
                        {
                            "name": "predecessor",
                            "type": "bytes32",
                            "value": "0x0000000000000000000000000000000000000000000000000000000000000000"
                        },
                        {
                            "name": "salt",
                            "type": "bytes32",
                            "value": "0xa57973a3d5a5d99d454c54117d7d30a57a8aca089891f505f120174216edaf42"
                        }
                    ],
                    "constructorArguments": "",
                    "name": "execute",
                    "returnParams": [],
                    "signature": "execute(address,uint256,bytes,bytes32,bytes32)"
                },
                "errorInfo": "",
                "fromAddress": "0xa78aefd483ce3919c0ad55c8a2e5c97cbac1caf8",
                "gasUsed": 14397,
                "id": 8,
                "methodDecoded": true,
                "operation": "CALL",
                "output": "",
                "revert": false,
                "revertMessage": "",
                "selector": "0x134008d3",
                "status": true,
                "value": "0"
            },
            "nodeType": 0
        },
        "9": {
            "invocation": {
                "address": "0xe3b81318b1b6776f0877c3770afddff97b9f5fe5",
                "callData": "0x0000000000000000000000007320bd5fa56f8a7ea959a425f0c0b8cac56f741e",
                "decodedMethod": {
                    "callParams": [
                        {
                            "name": "newInterestRateModel",
                            "type": "address",
                            "value": "0x7320bd5fa56f8a7ea959a425f0c0b8cac56f741e"
                        }
                    ],
                    "constructorArguments": "",
                    "name": "_setInterestRateModel",
                    "returnParams": [
                        {
                            "name": "",
                            "type": "uint256",
                            "value": "0"
                        }
                    ],
                    "signature": "_setInterestRateModel(address)"
                },
                "errorInfo": "",
                "fromAddress": "0x37ff10390f22fabdc2137e428a6e6965960d60b6",
                "gasUsed": 3397,
                "id": 9,
                "methodDecoded": true,
                "operation": "CALL",
                "output": "0x0000000000000000000000000000000000000000000000000000000000000000",
                "revert": false,
                "revertMessage": "",
                "selector": "0xf2b3abbd",
                "status": true,
                "value": "0"
            },
            "nodeType": 0
        }
    },
    "gasFlame": [
        {
            "children": [
                {
                    "children": [
                        {
                            "children": [],
                            "depth": 0,
                            "name": "Initial Gas",
                            "value": 33032
                        },
                        {
                            "children": [
                                {
                                    "children": [
                                        {
                                            "children": [
                                                {
                                                    "children": [],
                                                    "depth": 3,
                                                    "name": "balanceOf",
                                                    "value": 2563
                                                },
                                                {
                                                    "children": [],
                                                    "depth": 3,
                                                    "name": "getBorrowRate",
                                                    "value": 7229
                                                }
                                            ],
                                            "depth": 2,
                                            "name": "_setReserveFactor",
                                            "value": 70000
                                        }
                                    ],
                                    "depth": 1,
                                    "name": "execute",
                                    "value": 85500
                                },
                                {
                                    "children": [
                                        {
                                            "children": [
                                                {
                                                    "children": [],
                                                    "depth": 3,
                                                    "name": "isInterestRateModel",
                                                    "value": 291
                                                }
                                            ],
                                            "depth": 2,
                                            "name": "_setInterestRateModel",
                                            "value": 3397
                                        }
                                    ],
                                    "depth": 1,
                                    "name": "execute",
                                    "value": 14397
                                },
                                {
                                    "children": [
                                        {
                                            "children": [
                                                {
                                                    "children": [],
                                                    "depth": 3,
                                                    "name": "_setPriceOracle",
                                                    "value": 9153
                                                }
                                            ],
                                            "depth": 2,
                                            "name": "_setPriceOracle",
                                            "value": 14342
                                        }
                                    ],
                                    "depth": 1,
                                    "name": "execute",
                                    "value": 27842
                                },
                                {
                                    "children": [
                                        {
                                            "children": [
                                                {
                                                    "children": [
                                                        {
                                                            "children": [],
                                                            "depth": 4,
                                                            "name": "isCToken",
                                                            "value": 333
                                                        }
                                                    ],
                                                    "depth": 3,
                                                    "name": "_supportMarket",
                                                    "value": 132893
                                                }
                                            ],
                                            "depth": 2,
                                            "name": "_supportMarket",
                                            "value": 133582
                                        }
                                    ],
                                    "depth": 1,
                                    "name": "execute",
                                    "value": 144582
                                },
                                {
                                    "children": [],
                                    "depth": 1,
                                    "name": "underlying",
                                    "value": 426
                                },
                                {
                                    "children": [],
                                    "depth": 1,
                                    "name": "approve",
                                    "value": 24673
                                },
                                {
                                    "children": [
                                        {
                                            "children": [
                                                {
                                                    "children": [
                                                        {
                                                            "children": [
                                                                {
                                                                    "children": [],
                                                                    "depth": 5,
                                                                    "name": "notifySupplyIndex",
                                                                    "value": 32001
                                                                }
                                                            ],
                                                            "depth": 4,
                                                            "name": "notifySupplyIndex",
                                                            "value": 39247
                                                        },
                                                        {
                                                            "children": [],
                                                            "depth": 4,
                                                            "name": "balanceOf",
                                                            "value": 2642
                                                        },
                                                        {
                                                            "children": [
                                                                {
                                                                    "children": [
                                                                        {
                                                                            "children": [],
                                                                            "depth": 6,
                                                                            "name": "balanceOf",
                                                                            "value": 642
                                                                        }
                                                                    ],
                                                                    "depth": 5,
                                                                    "name": "notifySupplier",
                                                                    "value": 7895
                                                                }
                                                            ],
                                                            "depth": 4,
                                                            "name": "notifySupplier",
                                                            "value": 8623
                                                        }
                                                    ],
                                                    "depth": 3,
                                                    "name": "mintAllowed",
                                                    "value": 88242
                                                }
                                            ],
                                            "depth": 2,
                                            "name": "mintAllowed",
                                            "value": 88943
                                        },
                                        {
                                            "children": [],
                                            "depth": 2,
                                            "name": "balanceOf",
                                            "value": 563
                                        },
                                        {
                                            "children": [],
                                            "depth": 2,
                                            "name": "transferFrom",
                                            "value": 28343
                                        },
                                        {
                                            "children": [],
                                            "depth": 2,
                                            "name": "balanceOf",
                                            "value": 563
                                        },
                                        {
                                            "children": [
                                                {
                                                    "children": [],
                                                    "depth": 3,
                                                    "name": "mintVerify",
                                                    "value": 2825
                                                }
                                            ],
                                            "depth": 2,
                                            "name": "mintVerify",
                                            "value": 3459
                                        }
                                    ],
                                    "depth": 1,
                                    "name": "mint",
                                    "value": 179332
                                },
                                {
                                    "children": [],
                                    "depth": 1,
                                    "name": "balanceOf",
                                    "value": 642
                                },
                                {
                                    "children": [],
                                    "depth": 1,
                                    "name": "totalSupply",
                                    "value": 452
                                },
                                {
                                    "children": [],
                                    "depth": 1,
                                    "name": "balanceOf",
                                    "value": 563
                                },
                                {
                                    "children": [],
                                    "depth": 1,
                                    "name": "transfer",
                                    "value": 3094
                                },
                                {
                                    "children": [
                                        {
                                            "children": [],
                                            "depth": 2,
                                            "name": "expo",
                                            "value": 602
                                        }
                                    ],
                                    "depth": 1,
                                    "name": "0xd3477d5f",
                                    "value": 3835
                                },
                                {
                                    "children": [
                                        {
                                            "children": [
                                                {
                                                    "children": [
                                                        {
                                                            "children": [
                                                                {
                                                                    "children": [],
                                                                    "depth": 5,
                                                                    "name": "notifySupplyIndex",
                                                                    "value": 1717
                                                                }
                                                            ],
                                                            "depth": 4,
                                                            "name": "notifySupplyIndex",
                                                            "value": 2463
                                                        },
                                                        {
                                                            "children": [],
                                                            "depth": 4,
                                                            "name": "balanceOf",
                                                            "value": 642
                                                        },
                                                        {
                                                            "children": [
                                                                {
                                                                    "children": [
                                                                        {
                                                                            "children": [],
                                                                            "depth": 6,
                                                                            "name": "balanceOf",
                                                                            "value": 642
                                                                        }
                                                                    ],
                                                                    "depth": 5,
                                                                    "name": "notifySupplier",
                                                                    "value": 3895
                                                                }
                                                            ],
                                                            "depth": 4,
                                                            "name": "notifySupplier",
                                                            "value": 4623
                                                        },
                                                        {
                                                            "children": [],
                                                            "depth": 4,
                                                            "name": "balanceOf",
                                                            "value": 2642
                                                        },
                                                        {
                                                            "children": [
                                                                {
                                                                    "children": [
                                                                        {
                                                                            "children": [],
                                                                            "depth": 6,
                                                                            "name": "balanceOf",
                                                                            "value": 642
                                                                        }
                                                                    ],
                                                                    "depth": 5,
                                                                    "name": "notifySupplier",
                                                                    "value": 7895
                                                                }
                                                            ],
                                                            "depth": 4,
                                                            "name": "notifySupplier",
                                                            "value": 8623
                                                        }
                                                    ],
                                                    "depth": 3,
                                                    "name": "transferAllowed",
                                                    "value": 59604
                                                }
                                            ],
                                            "depth": 2,
                                            "name": "transferAllowed",
                                            "value": 60311
                                        }
                                    ],
                                    "depth": 1,
                                    "name": "transfer",
                                    "value": 87774
                                },
                                {
                                    "children": [],
                                    "depth": 1,
                                    "name": "balanceOf",
                                    "value": 642
                                }
                            ],
                            "depth": 0,
                            "name": "Executed Gas",
                            "value": 624850
                        }
                    ],
                    "depth": -1,
                    "name": "Actual Gas Used",
                    "value": 624782
                },
                {
                    "children": [],
                    "depth": -1,
                    "name": "Refunded Gas",
                    "value": 33100
                }
            ],
            "depth": -2,
            "name": "Total Gas",
            "value": 657882
        }
    ],
    "isConfirmed": true,
    "mainTrace": [
        {
            "children": [
                {
                    "children": [
                        {
                            "children": [
                                {
                                    "children": [
                                        {
                                            "children": [],
                                            "depth": 3,
                                            "id": 3,
                                            "order": 3
                                        },
                                        {
                                            "children": [],
                                            "depth": 3,
                                            "id": 4,
                                            "order": 4
                                        },
                                        {
                                            "children": [],
                                            "depth": 3,
                                            "id": 5,
                                            "order": 5
                                        },
                                        {
                                            "children": [],
                                            "depth": 3,
                                            "id": 6,
                                            "order": 6
                                        }
                                    ],
                                    "depth": 2,
                                    "id": 2,
                                    "order": 2
                                },
                                {
                                    "children": [],
                                    "depth": 2,
                                    "id": 7,
                                    "order": 7
                                }
                            ],
                            "depth": 1,
                            "id": 1,
                            "order": 1
                        },
                        {
                            "children": [
                                {
                                    "children": [
                                        {
                                            "children": [],
                                            "depth": 3,
                                            "id": 10,
                                            "order": 10
                                        },
                                        {
                                            "children": [],
                                            "depth": 3,
                                            "id": 11,
                                            "order": 11
                                        }
                                    ],
                                    "depth": 2,
                                    "id": 9,
                                    "order": 9
                                },
                                {
                                    "children": [],
                                    "depth": 2,
                                    "id": 12,
                                    "order": 12
                                }
                            ],
                            "depth": 1,
                            "id": 8,
                            "order": 8
                        },
                        {
                            "children": [
                                {
                                    "children": [
                                        {
                                            "children": [
                                                {
                                                    "children": [],
                                                    "depth": 4,
                                                    "id": 16,
                                                    "order": 16
                                                }
                                            ],
                                            "depth": 3,
                                            "id": 15,
                                            "order": 15
                                        }
                                    ],
                                    "depth": 2,
                                    "id": 14,
                                    "order": 14
                                },
                                {
                                    "children": [],
                                    "depth": 2,
                                    "id": 17,
                                    "order": 17
                                }
                            ],
                            "depth": 1,
                            "id": 13,
                            "order": 13
                        },
                        {
                            "children": [
                                {
                                    "children": [
                                        {
                                            "children": [
                                                {
                                                    "children": [],
                                                    "depth": 4,
                                                    "id": 21,
                                                    "order": 21
                                                },
                                                {
                                                    "children": [],
                                                    "depth": 4,
                                                    "id": 22,
                                                    "order": 22
                                                }
                                            ],
                                            "depth": 3,
                                            "id": 20,
                                            "order": 20
                                        }
                                    ],
                                    "depth": 2,
                                    "id": 19,
                                    "order": 19
                                },
                                {
                                    "children": [],
                                    "depth": 2,
                                    "id": 23,
                                    "order": 23
                                }
                            ],
                            "depth": 1,
                            "id": 18,
                            "order": 18
                        },
                        {
                            "children": [],
                            "depth": 1,
                            "id": 24,
                            "order": 24
                        },
                        {
                            "children": [
                                {
                                    "children": [],
                                    "depth": 2,
                                    "id": 26,
                                    "order": 26
                                }
                            ],
                            "depth": 1,
                            "id": 25,
                            "order": 25
                        },
                        {
                            "children": [
                                {
                                    "children": [
                                        {
                                            "children": [
                                                {
                                                    "children": [
                                                        {
                                                            "children": [],
                                                            "depth": 5,
                                                            "id": 31,
                                                            "order": 31
                                                        }
                                                    ],
                                                    "depth": 4,
                                                    "id": 30,
                                                    "order": 30
                                                },
                                                {
                                                    "children": [],
                                                    "depth": 4,
                                                    "id": 32,
                                                    "order": 32
                                                },
                                                {
                                                    "children": [],
                                                    "depth": 4,
                                                    "id": 33,
                                                    "order": 33
                                                },
                                                {
                                                    "children": [
                                                        {
                                                            "children": [
                                                                {
                                                                    "children": [],
                                                                    "depth": 6,
                                                                    "id": 36,
                                                                    "order": 36
                                                                }
                                                            ],
                                                            "depth": 5,
                                                            "id": 35,
                                                            "order": 35
                                                        }
                                                    ],
                                                    "depth": 4,
                                                    "id": 34,
                                                    "order": 34
                                                }
                                            ],
                                            "depth": 3,
                                            "id": 29,
                                            "order": 29
                                        }
                                    ],
                                    "depth": 2,
                                    "id": 28,
                                    "order": 28
                                },
                                {
                                    "children": [],
                                    "depth": 2,
                                    "id": 37,
                                    "order": 37
                                },
                                {
                                    "children": [
                                        {
                                            "children": [],
                                            "depth": 3,
                                            "id": 39,
                                            "order": 39
                                        }
                                    ],
                                    "depth": 2,
                                    "id": 38,
                                    "order": 38
                                },
                                {
                                    "children": [],
                                    "depth": 2,
                                    "id": 40,
                                    "order": 40
                                },
                                {
                                    "children": [],
                                    "depth": 2,
                                    "id": 41,
                                    "order": 41
                                },
                                {
                                    "children": [],
                                    "depth": 2,
                                    "id": 42,
                                    "order": 42
                                },
                                {
                                    "children": [
                                        {
                                            "children": [],
                                            "depth": 3,
                                            "id": 44,
                                            "order": 44
                                        }
                                    ],
                                    "depth": 2,
                                    "id": 43,
                                    "order": 43
                                }
                            ],
                            "depth": 1,
                            "id": 27,
                            "order": 27
                        },
                        {
                            "children": [],
                            "depth": 1,
                            "id": 45,
                            "order": 45
                        },
                        {
                            "children": [],
                            "depth": 1,
                            "id": 46,
                            "order": 46
                        },
                        {
                            "children": [],
                            "depth": 1,
                            "id": 47,
                            "order": 47
                        },
                        {
                            "children": [
                                {
                                    "children": [],
                                    "depth": 2,
                                    "id": 49,
                                    "order": 49
                                }
                            ],
                            "depth": 1,
                            "id": 48,
                            "order": 48
                        },
                        {
                            "children": [
                                {
                                    "children": [],
                                    "depth": 2,
                                    "id": 51,
                                    "order": 51
                                }
                            ],
                            "depth": 1,
                            "id": 50,
                            "order": 50
                        },
                        {
                            "children": [
                                {
                                    "children": [
                                        {
                                            "children": [
                                                {
                                                    "children": [
                                                        {
                                                            "children": [],
                                                            "depth": 5,
                                                            "id": 56,
                                                            "order": 56
                                                        }
                                                    ],
                                                    "depth": 4,
                                                    "id": 55,
                                                    "order": 55
                                                },
                                                {
                                                    "children": [],
                                                    "depth": 4,
                                                    "id": 57,
                                                    "order": 57
                                                },
                                                {
                                                    "children": [],
                                                    "depth": 4,
                                                    "id": 58,
                                                    "order": 58
                                                },
                                                {
                                                    "children": [
                                                        {
                                                            "children": [
                                                                {
                                                                    "children": [],
                                                                    "depth": 6,
                                                                    "id": 61,
                                                                    "order": 61
                                                                }
                                                            ],
                                                            "depth": 5,
                                                            "id": 60,
                                                            "order": 60
                                                        }
                                                    ],
                                                    "depth": 4,
                                                    "id": 59,
                                                    "order": 59
                                                },
                                                {
                                                    "children": [],
                                                    "depth": 4,
                                                    "id": 62,
                                                    "order": 62
                                                },
                                                {
                                                    "children": [],
                                                    "depth": 4,
                                                    "id": 63,
                                                    "order": 63
                                                },
                                                {
                                                    "children": [
                                                        {
                                                            "children": [
                                                                {
                                                                    "children": [],
                                                                    "depth": 6,
                                                                    "id": 66,
                                                                    "order": 66
                                                                }
                                                            ],
                                                            "depth": 5,
                                                            "id": 65,
                                                            "order": 65
                                                        }
                                                    ],
                                                    "depth": 4,
                                                    "id": 64,
                                                    "order": 64
                                                }
                                            ],
                                            "depth": 3,
                                            "id": 54,
                                            "order": 54
                                        }
                                    ],
                                    "depth": 2,
                                    "id": 53,
                                    "order": 53
                                },
                                {
                                    "children": [],
                                    "depth": 2,
                                    "id": 67,
                                    "order": 67
                                }
                            ],
                            "depth": 1,
                            "id": 52,
                            "order": 52
                        },
                        {
                            "children": [],
                            "depth": 1,
                            "id": 68,
                            "order": 68
                        }
                    ],
                    "depth": 0,
                    "id": 0,
                    "order": 0
                }
            ],
            "depth": -1,
            "id": -1,
            "order": -1
        }
    ],
    "mainTraceNodeCount": 69,
    "parentIdMap": {
        "0": -1,
        "1": 0,
        "10": 9,
        "11": 9,
        "12": 8,
        "13": 0,
        "14": 13,
        "15": 14,
        "16": 15,
        "17": 13,
        "18": 0,
        "19": 18,
        "2": 1,
        "20": 19,
        "21": 20,
        "22": 20,
        "23": 18,
        "24": 0,
        "25": 0,
        "26": 25,
        "27": 0,
        "28": 27,
        "29": 28,
        "3": 2,
        "30": 29,
        "31": 30,
        "32": 29,
        "33": 29,
        "34": 29,
        "35": 34,
        "36": 35,
        "37": 27,
        "38": 27,
        "39": 38,
        "4": 2,
        "40": 27,
        "41": 27,
        "42": 27,
        "43": 27,
        "44": 43,
        "45": 0,
        "46": 0,
        "47": 0,
        "48": 0,
        "49": 48,
        "5": 2,
        "50": 0,
        "51": 50,
        "52": 0,
        "53": 52,
        "54": 53,
        "55": 54,
        "56": 55,
        "57": 54,
        "58": 54,
        "59": 54,
        "6": 2,
        "60": 59,
        "61": 60,
        "62": 54,
        "63": 54,
        "64": 54,
        "65": 64,
        "66": 65,
        "67": 52,
        "68": 0,
        "7": 1,
        "8": 0,
        "9": 8
    },
    "tidyTrace": [
        {
            "children": [
                {
                    "children": [
                        {
                            "children": [
                                {
                                    "children": [
                                        {
                                            "children": [],
                                            "depth": 3,
                                            "id": 5,
                                            "order": 5
                                        },
                                        {
                                            "children": [],
                                            "depth": 3,
                                            "id": 6,
                                            "order": 6
                                        }
                                    ],
                                    "depth": 2,
                                    "id": 2,
                                    "order": 2
                                },
                                {
                                    "children": [],
                                    "depth": 2,
                                    "id": 7,
                                    "order": 7
                                }
                            ],
                            "depth": 1,
                            "id": 1,
                            "order": 1
                        },
                        {
                            "children": [
                                {
                                    "children": [
                                        {
                                            "children": [],
                                            "depth": 3,
                                            "id": 11,
                                            "order": 11
                                        }
                                    ],
                                    "depth": 2,
                                    "id": 9,
                                    "order": 9
                                },
                                {
                                    "children": [],
                                    "depth": 2,
                                    "id": 12,
                                    "order": 12
                                }
                            ],
                            "depth": 1,
                            "id": 8,
                            "order": 8
                        },
                        {
                            "children": [
                                {
                                    "children": [
                                        {
                                            "children": [
                                                {
                                                    "children": [],
                                                    "depth": 4,
                                                    "id": 16,
                                                    "order": 16
                                                }
                                            ],
                                            "depth": 3,
                                            "id": 15,
                                            "order": 15
                                        }
                                    ],
                                    "depth": 2,
                                    "id": 14,
                                    "order": 14
                                },
                                {
                                    "children": [],
                                    "depth": 2,
                                    "id": 17,
                                    "order": 17
                                }
                            ],
                            "depth": 1,
                            "id": 13,
                            "order": 13
                        },
                        {
                            "children": [
                                {
                                    "children": [
                                        {
                                            "children": [
                                                {
                                                    "children": [],
                                                    "depth": 4,
                                                    "id": 22,
                                                    "order": 22
                                                }
                                            ],
                                            "depth": 3,
                                            "id": 20,
                                            "order": 20
                                        }
                                    ],
                                    "depth": 2,
                                    "id": 19,
                                    "order": 19
                                },
                                {
                                    "children": [],
                                    "depth": 2,
                                    "id": 23,
                                    "order": 23
                                }
                            ],
                            "depth": 1,
                            "id": 18,
                            "order": 18
                        },
                        {
                            "children": [],
                            "depth": 1,
                            "id": 24,
                            "order": 24
                        },
                        {
                            "children": [
                                {
                                    "children": [],
                                    "depth": 2,
                                    "id": 26,
                                    "order": 26
                                }
                            ],
                            "depth": 1,
                            "id": 25,
                            "order": 25
                        },
                        {
                            "children": [
                                {
                                    "children": [
                                        {
                                            "children": [
                                                {
                                                    "children": [
                                                        {
                                                            "children": [],
                                                            "depth": 5,
                                                            "id": 31,
                                                            "order": 31
                                                        }
                                                    ],
                                                    "depth": 4,
                                                    "id": 30,
                                                    "order": 30
                                                },
                                                {
                                                    "children": [],
                                                    "depth": 4,
                                                    "id": 33,
                                                    "order": 33
                                                },
                                                {
                                                    "children": [
                                                        {
                                                            "children": [],
                                                            "depth": 5,
                                                            "id": 35,
                                                            "order": 35
                                                        }
                                                    ],
                                                    "depth": 4,
                                                    "id": 34,
                                                    "order": 34
                                                }
                                            ],
                                            "depth": 3,
                                            "id": 29,
                                            "order": 29
                                        }
                                    ],
                                    "depth": 2,
                                    "id": 28,
                                    "order": 28
                                },
                                {
                                    "children": [
                                        {
                                            "children": [],
                                            "depth": 3,
                                            "id": 39,
                                            "order": 39
                                        }
                                    ],
                                    "depth": 2,
                                    "id": 38,
                                    "order": 38
                                },
                                {
                                    "children": [],
                                    "depth": 2,
                                    "id": 41,
                                    "order": 41
                                },
                                {
                                    "children": [],
                                    "depth": 2,
                                    "id": 42,
                                    "order": 42
                                },
                                {
                                    "children": [
                                        {
                                            "children": [],
                                            "depth": 3,
                                            "id": 44,
                                            "order": 44
                                        }
                                    ],
                                    "depth": 2,
                                    "id": 43,
                                    "order": 43
                                }
                            ],
                            "depth": 1,
                            "id": 27,
                            "order": 27
                        },
                        {
                            "children": [],
                            "depth": 1,
                            "id": 46,
                            "order": 46
                        },
                        {
                            "children": [
                                {
                                    "children": [],
                                    "depth": 2,
                                    "id": 49,
                                    "order": 49
                                }
                            ],
                            "depth": 1,
                            "id": 48,
                            "order": 48
                        },
                        {
                            "children": [
                                {
                                    "children": [
                                        {
                                            "children": [
                                                {
                                                    "children": [
                                                        {
                                                            "children": [],
                                                            "depth": 5,
                                                            "id": 56,
                                                            "order": 56
                                                        }
                                                    ],
                                                    "depth": 4,
                                                    "id": 55,
                                                    "order": 55
                                                },
                                                {
                                                    "children": [],
                                                    "depth": 4,
                                                    "id": 58,
                                                    "order": 58
                                                },
                                                {
                                                    "children": [
                                                        {
                                                            "children": [],
                                                            "depth": 5,
                                                            "id": 60,
                                                            "order": 60
                                                        }
                                                    ],
                                                    "depth": 4,
                                                    "id": 59,
                                                    "order": 59
                                                },
                                                {
                                                    "children": [],
                                                    "depth": 4,
                                                    "id": 63,
                                                    "order": 63
                                                },
                                                {
                                                    "children": [
                                                        {
                                                            "children": [],
                                                            "depth": 5,
                                                            "id": 65,
                                                            "order": 65
                                                        }
                                                    ],
                                                    "depth": 4,
                                                    "id": 64,
                                                    "order": 64
                                                }
                                            ],
                                            "depth": 3,
                                            "id": 54,
                                            "order": 54
                                        }
                                    ],
                                    "depth": 2,
                                    "id": 53,
                                    "order": 53
                                },
                                {
                                    "children": [],
                                    "depth": 2,
                                    "id": 67,
                                    "order": 67
                                }
                            ],
                            "depth": 1,
                            "id": 52,
                            "order": 52
                        }
                    ],
                    "depth": 0,
                    "id": 0,
                    "order": 0
                }
            ],
            "depth": -1,
            "id": -1,
            "order": -1
        }
    ],
    "tidyTraceNodeCount": 52
}