{
    "accountLabels": null,
    "dataMap": {
        "-1": {
            "invocation": {
                "address": "0xfde0d1575ed8e06fbf36256bcdfa1f359281455a",
                "callData": "",
                "decodedMethod": null,
                "errorInfo": "",
                "fromAddress": "",
                "gasUsed": 0,
                "id": -1,
                "methodDecoded": false,
                "operation": "",
                "output": "",
                "revert": false,
                "revertMessage": "",
                "selector": "",
                "status": false,
                "value": ""
            },
            "nodeType": 0
        },
        "0": {
            "invocation": {
                "address": "0x6980a47bee930a4584b09ee79ebe46484fbdbdd0",
                "callData": "0x0000000000000000003f3969a2ade1280000000000444b0e9a7da8bab813efae92a6651019b8bd6c0a29095ea7b30000000000000000000000007a250d5630b4cf539739df2c5dacb4c659f2488dffffffffffffffffffffffffffffffffffffffffffffffffffffffffffffffff01000004c02aaa39b223fe8d0a0e5c4f27ead9083c756cc200000000000000004563918244f40000d0e30db0000001047a250d5630b4cf539739df2c5dacb4c659f2488d5c11d7950000000000000000000000000000000000000000000000004563918244f40000000000000000000000000000000000000000000000000000000000000000000000000000000000000000000000000000000000000000000000000000000000a00000000000000000000000006980a47bee930a4584b09ee79ebe46484fbdbdd0000000000000000000000000000000000000000000000000000000006570ffbf0000000000000000000000000000000000000000000000000000000000000002000000000000000000000000c02aaa39b223fe8d0a0e5c4f27ead9083c756cc20000000000000000000000004b0e9a7da8bab813efae92a6651019b8bd6c0a2900000284c82bbe41f2cf04e3a8efa18f7032bdd7f6d98a8147153f8200000000000000000000000000000000000000000000000000000000000000400000000000000000000000000000000000000000000000000000000000000200000000000000000000000000a16a5f37774309710711a8b4e83b068306b217240000000000000000000000004b0e9a7da8bab813efae92a6651019b8bd6c0a29000000000000000000000000000000000000000000000000000000000000000000000000000000000000000000000000000000000000000000000000004c4b40000000000000000000000000000000000000000000000000000000000000000000000000000000000000000000000000000000000000000000000000000000c000000000000000000000000000000000000000000000000000000000000000c4ac9650d8000000000000000000000000000000000000000000000000000000000000002000000000000000000000000000000000000000000000000000000000000000010000000000000000000000000000000000000000000000000000000000000020000000000000000000000000000000000000000000000000000000000000003842966c680000000000000000000000000000000000000000c9112ec16d958e8da8180000760dc1e043d99394a10605b2fa08f123d60faf8400000000000000000000000000000000000000000000000000000000000000000000000000000000000000000000000000000000000000000000000000000000000000419194983a3dbfb5779c09c95f5d830d8435d9ce88b383752c3dfb8a1b84b8c9f511b7c750f1334e2f26ca9be32c2d070a4a023edf745b02468d6cba9a15a494c61b0000000000000000000000000000000000000000000000000000000000000000000004760dc1e043d99394a10605b2fa08f123d60faf84fff6cae9000001047a250d5630b4cf539739df2c5dacb4c659f2488d5c11d79500000000000000000000000000000000000000000b2a3d45e6c858e9fbbbb45a000000000000000000000000000000000000000000000000000000000000000000000000000000000000000000000000000000000000000000000000000000a00000000000000000000000006980a47bee930a4584b09ee79ebe46484fbdbdd0000000000000000000000000000000000000000000000000000000006570ffbf00000000000000000000000000000000000000000000000000000000000000020000000000000000000000004b0e9a7da8bab813efae92a6651019b8bd6c0a29000000000000000000000000c02aaa39b223fe8d0a0e5c4f27ead9083c756cc209",
                "decodedMethod": {
                    "callParams": [],
                    "constructorArguments": "",
                    "name": "yoink",
                    "returnParams": [],
                    "signature": "yoink()"
                },
                "errorInfo": "",
                "fromAddress": "0xfde0d1575ed8e06fbf36256bcdfa1f359281455a",
                "gasUsed": 292531,
                "id": 0,
                "methodDecoded": true,
                "operation": "CALL",
                "output": "",
                "revert": false,
                "revertMessage": "",
                "selector": "0x9846cd9e",
                "status": true,
                "value": "0.000000000000000055"
            },
            "nodeType": 0
        },
        "1": {
            "invocation": {
                "address": "0x4b0e9a7da8bab813efae92a6651019b8bd6c0a29",
                "callData": "0x0000000000000000000000007a250d5630b4cf539739df2c5dacb4c659f2488dffffffffffffffffffffffffffffffffffffffffffffffffffffffffffffffff",
                "decodedMethod": {
                    "callParams": [
                        {
                            "name": "spender",
                            "type": "address",
                            "value": "0x7a250d5630b4cf539739df2c5dacb4c659f2488d"
                        },
                        {
                            "decimalAvailable": true,
                            "name": "amount",
                            "type": "uint256",
                            "value": "115,792,089,237,316,195,423,570,985,008,687,907,853,269,984,665,640,564,039,457,584,007,913,129,639,935"
                        }
                    ],
                    "constructorArguments": "",
                    "name": "approve",
                    "returnParams": [
                        {
                            "name": "",
                            "type": "bool",
                            "value": true
                        }
                    ],
                    "signature": "approve(address,uint256)"
                },
                "errorInfo": "",
                "fromAddress": "0x6980a47bee930a4584b09ee79ebe46484fbdbdd0",
                "gasUsed": 29647,
                "id": 1,
                "methodDecoded": true,
                "operation": "CALL",
                "output": "0x0000000000000000000000000000000000000000000000000000000000000001",
                "revert": false,
                "revertMessage": "",
                "selector": "0x095ea7b3",
                "status": true,
                "value": "0"
            },
            "nodeType": 0
        },
        "10": {
            "invocation": {
                "address": "0x303a41300baeb37a1028af017b17b8a6edc3066a",
                "callData": "0x0000000000000000000000006980a47bee930a4584b09ee79ebe46484fbdbdd0",
                "decodedMethod": {
                    "callParams": [
                        {
                            "name": "account",
                            "type": "address",
                            "value": "0x6980a47bee930a4584b09ee79ebe46484fbdbdd0"
                        }
                    ],
                    "constructorArguments": "",
                    "name": "balanceOf",
                    "returnParams": [
                        {
                            "decimalAvailable": true,
                            "name": "",
                            "type": "uint256",
                            "value": "0"
                        }
                    ],
                    "signature": "balanceOf(address)"
                },
                "errorInfo": "",
                "fromAddress": "0x4b0e9a7da8bab813efae92a6651019b8bd6c0a29",
                "gasUsed": 2626,
                "id": 10,
                "methodDecoded": true,
                "operation": "DELEGATECALL",
                "output": "0x0000000000000000000000000000000000000000000000000000000000000000",
                "revert": false,
                "revertMessage": "",
                "selector": "0x70a08231",
                "status": true,
                "value": "0"
            },
            "nodeType": 0
        },
        "11": {
            "invocation": {
                "address": "0x760dc1e043d99394a10605b2fa08f123d60faf84",
                "callData": "0x",
                "decodedMethod": {
                    "callParams": [],
                    "constructorArguments": "",
                    "name": "getReserves",
                    "returnParams": [
                        {
                            "name": "_reserve0",
                            "type": "uint112",
                            "value": "65,692,658,856,160,314,505,008,470,321"
                        },
                        {
                            "name": "_reserve1",
                            "type": "uint112",
                            "value": "89,787,809,617,954,054,780"
                        },
                        {
                            "name": "_blockTimestampLast",
                            "type": "uint32",
                            "value": "1,701,389,183"
                        }
                    ],
                    "signature": "getReserves()"
                },
                "errorInfo": "",
                "fromAddress": "0x7a250d5630b4cf539739df2c5dacb4c659f2488d",
                "gasUsed": 2504,
                "id": 11,
                "methodDecoded": true,
                "operation": "STATICCALL",
                "output": "0x0000000000000000000000000000000000000000d443b19c68ef9e4d6cff5931000000000000000000000000000000000000000000000004de0e61219e8da27c000000000000000000000000000000000000000000000000000000006569237f",
                "revert": false,
                "revertMessage": "",
                "selector": "0x0902f1ac",
                "status": true,
                "value": "0"
            },
            "nodeType": 0
        },
        "12": {
            "invocation": {
                "address": "0xc02aaa39b223fe8d0a0e5c4f27ead9083c756cc2",
                "callData": "0x000000000000000000000000760dc1e043d99394a10605b2fa08f123d60faf84",
                "decodedMethod": {
                    "callParams": [
                        {
                            "name": "",
                            "type": "address",
                            "value": "0x760dc1e043d99394a10605b2fa08f123d60faf84"
                        }
                    ],
                    "constructorArguments": "",
                    "name": "balanceOf",
                    "returnParams": [
                        {
                            "decimalAvailable": true,
                            "name": "",
                            "type": "uint256",
                            "value": "94,787,809,617,954,054,780"
                        }
                    ],
                    "signature": "balanceOf(address)"
                },
                "errorInfo": "",
                "fromAddress": "0x7a250d5630b4cf539739df2c5dacb4c659f2488d",
                "gasUsed": 534,
                "id": 12,
                "methodDecoded": true,
                "operation": "STATICCALL",
                "output": "0x0000000000000000000000000000000000000000000000052371f2a3e381a27c",
                "revert": false,
                "revertMessage": "",
                "selector": "0x70a08231",
                "status": true,
                "value": "0"
            },
            "nodeType": 0
        },
        "13": {
            "invocation": {
                "address": "0x760dc1e043d99394a10605b2fa08f123d60faf84",
                "callData": "0x00000000000000000000000000000000000000000b2a3d45e6c858e9fbbbb45a00000000000000000000000000000000000000000000000000000000000000000000000000000000000000006980a47bee930a4584b09ee79ebe46484fbdbdd000000000000000000000000000000000000000000000000000000000000000800000000000000000000000000000000000000000000000000000000000000000",
                "decodedMethod": {
                    "callParams": [
                        {
                            "name": "amount0Out",
                            "type": "uint256",
                            "value": "3,455,399,346,269,045,701,666,911,322"
                        },
                        {
                            "name": "amount1Out",
                            "type": "uint256",
                            "value": "0"
                        },
                        {
                            "name": "to",
                            "type": "address",
                            "value": "0x6980a47bee930a4584b09ee79ebe46484fbdbdd0"
                        },
                        {
                            "name": "data",
                            "type": "bytes",
                            "value": "0x"
                        }
                    ],
                    "constructorArguments": "",
                    "name": "swap",
                    "returnParams": [],
                    "signature": "swap(uint256,uint256,address,bytes)"
                },
                "errorInfo": "",
                "fromAddress": "0x7a250d5630b4cf539739df2c5dacb4c659f2488d",
                "gasUsed": 69859,
                "id": 13,
                "methodDecoded": true,
                "operation": "CALL",
                "output": "",
                "revert": false,
                "revertMessage": "",
                "selector": "0x022c0d9f",
                "status": true,
                "value": "0"
            },
            "nodeType": 0
        },
        "14": {
            "invocation": {
                "address": "0x4b0e9a7da8bab813efae92a6651019b8bd6c0a29",
                "callData": "0x0000000000000000000000006980a47bee930a4584b09ee79ebe46484fbdbdd000000000000000000000000000000000000000000b2a3d45e6c858e9fbbbb45a",
                "decodedMethod": {
                    "callParams": [
                        {
                            "name": "to",
                            "type": "address",
                            "value": "0x6980a47bee930a4584b09ee79ebe46484fbdbdd0"
                        },
                        {
                            "decimalAvailable": true,
                            "name": "amount",
                            "type": "uint256",
                            "value": "3,455,399,346,269,045,701,666,911,322"
                        }
                    ],
                    "constructorArguments": "",
                    "name": "transfer",
                    "returnParams": [
                        {
                            "name": "",
                            "type": "bool",
                            "value": true
                        }
                    ],
                    "signature": "transfer(address,uint256)"
                },
                "errorInfo": "",
                "fromAddress": "0x760dc1e043d99394a10605b2fa08f123d60faf84",
                "gasUsed": 37204,
                "id": 14,
                "methodDecoded": true,
                "operation": "CALL",
                "output": "0x0000000000000000000000000000000000000000000000000000000000000001",
                "revert": false,
                "revertMessage": "",
                "selector": "0xa9059cbb",
                "status": true,
                "value": "0"
            },
            "nodeType": 0
        },
        "15": {
            "invocation": {
                "address": "0x303a41300baeb37a1028af017b17b8a6edc3066a",
                "callData": "0x0000000000000000000000006980a47bee930a4584b09ee79ebe46484fbdbdd000000000000000000000000000000000000000000b2a3d45e6c858e9fbbbb45a",
                "decodedMethod": {
                    "callParams": [
                        {
                            "name": "to",
                            "type": "address",
                            "value": "0x6980a47bee930a4584b09ee79ebe46484fbdbdd0"
                        },
                        {
                            "decimalAvailable": true,
                            "name": "amount",
                            "type": "uint256",
                            "value": "3,455,399,346,269,045,701,666,911,322"
                        }
                    ],
                    "constructorArguments": "",
                    "name": "transfer",
                    "returnParams": [
                        {
                            "name": "",
                            "type": "bool",
                            "value": true
                        }
                    ],
                    "signature": "transfer(address,uint256)"
                },
                "errorInfo": "",
                "fromAddress": "0x4b0e9a7da8bab813efae92a6651019b8bd6c0a29",
                "gasUsed": 37026,
                "id": 15,
                "methodDecoded": true,
                "operation": "DELEGATECALL",
                "output": "0x0000000000000000000000000000000000000000000000000000000000000001",
                "revert": false,
                "revertMessage": "",
                "selector": "0xa9059cbb",
                "status": true,
                "value": "0"
            },
            "nodeType": 0
        },
        "16": {
            "event": {
                "contract": "0x4b0e9a7da8bab813efae92a6651019b8bd6c0a29",
                "decodedLog": {
                    "name": "Transfer",
                    "params": [
                        {
                            "name": "from",
                            "type": "address",
                            "value": "0x760dc1e043d99394a10605b2fa08f123d60faf84"
                        },
                        {
                            "name": "to",
                            "type": "address",
                            "value": "0x6980a47bee930a4584b09ee79ebe46484fbdbdd0"
                        },
                        {
                            "decimalAvailable": true,
                            "name": "value",
                            "type": "uint256",
                            "value": "3,455,399,346,269,045,701,666,911,322"
                        }
                    ],
                    "signature": "Transfer(address,address,uint256)"
                },
                "id": 16,
                "logData": "0x00000000000000000000000000000000000000000b2a3d45e6c858e9fbbbb45a",
                "logDecoded": true,
                "operation": "EVENT",
                "revert": false,
                "status": true,
                "topics": [
                    "0xddf252ad1be2c89b69c2b068fc378daa952ba7f163c4a11628f55a4df523b3ef",
                    "0x000000000000000000000000760dc1e043d99394a10605b2fa08f123d60faf84",
                    "0x0000000000000000000000006980a47bee930a4584b09ee79ebe46484fbdbdd0"
                ]
            },
            "nodeType": 1
        },
        "17": {
            "invocation": {
                "address": "0x4b0e9a7da8bab813efae92a6651019b8bd6c0a29",
                "callData": "0x000000000000000000000000760dc1e043d99394a10605b2fa08f123d60faf84",
                "decodedMethod": {
                    "callParams": [
                        {
                            "name": "account",
                            "type": "address",
                            "value": "0x760dc1e043d99394a10605b2fa08f123d60faf84"
                        }
                    ],
                    "constructorArguments": "",
                    "name": "balanceOf",
                    "returnParams": [
                        {
                            "decimalAvailable": true,
                            "name": "",
                            "type": "uint256",
                            "value": "62,237,259,509,891,268,803,341,558,999"
                        }
                    ],
                    "signature": "balanceOf(address)"
                },
                "errorInfo": "",
                "fromAddress": "0x760dc1e043d99394a10605b2fa08f123d60faf84",
                "gasUsed": 798,
                "id": 17,
                "methodDecoded": true,
                "operation": "STATICCALL",
                "output": "0x0000000000000000000000000000000000000000c9197456822745637143a4d7",
                "revert": false,
                "revertMessage": "",
                "selector": "0x70a08231",
                "status": true,
                "value": "0"
            },
            "nodeType": 0
        },
        "18": {
            "invocation": {
                "address": "0x303a41300baeb37a1028af017b17b8a6edc3066a",
                "callData": "0x000000000000000000000000760dc1e043d99394a10605b2fa08f123d60faf84",
                "decodedMethod": {
                    "callParams": [
                        {
                            "name": "account",
                            "type": "address",
                            "value": "0x760dc1e043d99394a10605b2fa08f123d60faf84"
                        }
                    ],
                    "constructorArguments": "",
                    "name": "balanceOf",
                    "returnParams": [
                        {
                            "decimalAvailable": true,
                            "name": "",
                            "type": "uint256",
                            "value": "62,237,259,509,891,268,803,341,558,999"
                        }
                    ],
                    "signature": "balanceOf(address)"
                },
                "errorInfo": "",
                "fromAddress": "0x4b0e9a7da8bab813efae92a6651019b8bd6c0a29",
                "gasUsed": 626,
                "id": 18,
                "methodDecoded": true,
                "operation": "DELEGATECALL",
                "output": "0x0000000000000000000000000000000000000000c9197456822745637143a4d7",
                "revert": false,
                "revertMessage": "",
                "selector": "0x70a08231",
                "status": true,
                "value": "0"
            },
            "nodeType": 0
        },
        "19": {
            "invocation": {
                "address": "0xc02aaa39b223fe8d0a0e5c4f27ead9083c756cc2",
                "callData": "0x000000000000000000000000760dc1e043d99394a10605b2fa08f123d60faf84",
                "decodedMethod": {
                    "callParams": [
                        {
                            "name": "",
                            "type": "address",
                            "value": "0x760dc1e043d99394a10605b2fa08f123d60faf84"
                        }
                    ],
                    "constructorArguments": "",
                    "name": "balanceOf",
                    "returnParams": [
                        {
                            "decimalAvailable": true,
                            "name": "",
                            "type": "uint256",
                            "value": "94,787,809,617,954,054,780"
                        }
                    ],
                    "signature": "balanceOf(address)"
                },
                "errorInfo": "",
                "fromAddress": "0x760dc1e043d99394a10605b2fa08f123d60faf84",
                "gasUsed": 534,
                "id": 19,
                "methodDecoded": true,
                "operation": "STATICCALL",
                "output": "0x0000000000000000000000000000000000000000000000052371f2a3e381a27c",
                "revert": false,
                "revertMessage": "",
                "selector": "0x70a08231",
                "status": true,
                "value": "0"
            },
            "nodeType": 0
        },
        "2": {
            "invocation": {
                "address": "0x303a41300baeb37a1028af017b17b8a6edc3066a",
                "callData": "0x0000000000000000000000007a250d5630b4cf539739df2c5dacb4c659f2488dffffffffffffffffffffffffffffffffffffffffffffffffffffffffffffffff",
                "decodedMethod": {
                    "callParams": [
                        {
                            "name": "spender",
                            "type": "address",
                            "value": "0x7a250d5630b4cf539739df2c5dacb4c659f2488d"
                        },
                        {
                            "decimalAvailable": true,
                            "name": "amount",
                            "type": "uint256",
                            "value": "115,792,089,237,316,195,423,570,985,008,687,907,853,269,984,665,640,564,039,457,584,007,913,129,639,935"
                        }
                    ],
                    "constructorArguments": "",
                    "name": "approve",
                    "returnParams": [
                        {
                            "name": "",
                            "type": "bool",
                            "value": true
                        }
                    ],
                    "signature": "approve(address,uint256)"
                },
                "errorInfo": "",
                "fromAddress": "0x4b0e9a7da8bab813efae92a6651019b8bd6c0a29",
                "gasUsed": 26969,
                "id": 2,
                "methodDecoded": true,
                "operation": "DELEGATECALL",
                "output": "0x0000000000000000000000000000000000000000000000000000000000000001",
                "revert": false,
                "revertMessage": "",
                "selector": "0x095ea7b3",
                "status": true,
                "value": "0"
            },
            "nodeType": 0
        },
        "20": {
            "event": {
                "contract": "0x760dc1e043d99394a10605b2fa08f123d60faf84",
                "decodedLog": {
                    "name": "Sync",
                    "params": [
                        {
                            "name": "reserve0",
                            "type": "uint112",
                            "value": "62,237,259,509,891,268,803,341,558,999"
                        },
                        {
                            "name": "reserve1",
                            "type": "uint112",
                            "value": "94,787,809,617,954,054,780"
                        }
                    ],
                    "signature": "Sync(uint112,uint112)"
                },
                "id": 20,
                "logData": "0x0000000000000000000000000000000000000000c9197456822745637143a4d70000000000000000000000000000000000000000000000052371f2a3e381a27c",
                "logDecoded": true,
                "operation": "EVENT",
                "revert": false,
                "status": true,
                "topics": [
                    "0x1c411e9a96e071241c2f21f7726b17ae89e3cab4c78be50e062b03a9fffbbad1"
                ]
            },
            "nodeType": 1
        },
        "21": {
            "event": {
                "contract": "0x760dc1e043d99394a10605b2fa08f123d60faf84",
                "decodedLog": {
                    "name": "Swap",
                    "params": [
                        {
                            "name": "sender",
                            "type": "address",
                            "value": "0x7a250d5630b4cf539739df2c5dacb4c659f2488d"
                        },
                        {
                            "name": "to",
                            "type": "address",
                            "value": "0x6980a47bee930a4584b09ee79ebe46484fbdbdd0"
                        },
                        {
                            "name": "amount0In",
                            "type": "uint256",
                            "value": "0"
                        },
                        {
                            "name": "amount1In",
                            "type": "uint256",
                            "value": "5,000,000,000,000,000,000"
                        },
                        {
                            "name": "amount0Out",
                            "type": "uint256",
                            "value": "3,455,399,346,269,045,701,666,911,322"
                        },
                        {
                            "name": "amount1Out",
                            "type": "uint256",
                            "value": "0"
                        }
                    ],
                    "signature": "Swap(address,uint256,uint256,uint256,uint256,address)"
                },
                "id": 21,
                "logData": "0x00000000000000000000000000000000000000000000000000000000000000000000000000000000000000000000000000000000000000004563918244f4000000000000000000000000000000000000000000000b2a3d45e6c858e9fbbbb45a0000000000000000000000000000000000000000000000000000000000000000",
                "logDecoded": true,
                "operation": "EVENT",
                "revert": false,
                "status": true,
                "topics": [
                    "0xd78ad95fa46c994b6551d0da85fc275fe613ce37657fb8d5e3d130840159d822",
                    "0x0000000000000000000000007a250d5630b4cf539739df2c5dacb4c659f2488d",
                    "0x0000000000000000000000006980a47bee930a4584b09ee79ebe46484fbdbdd0"
                ]
            },
            "nodeType": 1
        },
        "22": {
            "invocation": {
                "address": "0x4b0e9a7da8bab813efae92a6651019b8bd6c0a29",
                "callData": "0x0000000000000000000000006980a47bee930a4584b09ee79ebe46484fbdbdd0",
                "decodedMethod": {
                    "callParams": [
                        {
                            "name": "account",
                            "type": "address",
                            "value": "0x6980a47bee930a4584b09ee79ebe46484fbdbdd0"
                        }
                    ],
                    "constructorArguments": "",
                    "name": "balanceOf",
                    "returnParams": [
                        {
                            "decimalAvailable": true,
                            "name": "",
                            "type": "uint256",
                            "value": "3,455,399,346,269,045,701,666,911,322"
                        }
                    ],
                    "signature": "balanceOf(address)"
                },
                "errorInfo": "",
                "fromAddress": "0x7a250d5630b4cf539739df2c5dacb4c659f2488d",
                "gasUsed": 798,
                "id": 22,
                "methodDecoded": true,
                "operation": "STATICCALL",
                "output": "0x00000000000000000000000000000000000000000b2a3d45e6c858e9fbbbb45a",
                "revert": false,
                "revertMessage": "",
                "selector": "0x70a08231",
                "status": true,
                "value": "0"
            },
            "nodeType": 0
        },
        "23": {
            "invocation": {
                "address": "0x303a41300baeb37a1028af017b17b8a6edc3066a",
                "callData": "0x0000000000000000000000006980a47bee930a4584b09ee79ebe46484fbdbdd0",
                "decodedMethod": {
                    "callParams": [
                        {
                            "name": "account",
                            "type": "address",
                            "value": "0x6980a47bee930a4584b09ee79ebe46484fbdbdd0"
                        }
                    ],
                    "constructorArguments": "",
                    "name": "balanceOf",
                    "returnParams": [
                        {
                            "decimalAvailable": true,
                            "name": "",
                            "type": "uint256",
                            "value": "3,455,399,346,269,045,701,666,911,322"
                        }
                    ],
                    "signature": "balanceOf(address)"
                },
                "errorInfo": "",
                "fromAddress": "0x4b0e9a7da8bab813efae92a6651019b8bd6c0a29",
                "gasUsed": 626,
                "id": 23,
                "methodDecoded": true,
                "operation": "DELEGATECALL",
                "output": "0x00000000000000000000000000000000000000000b2a3d45e6c858e9fbbbb45a",
                "revert": false,
                "revertMessage": "",
                "selector": "0x70a08231",
                "status": true,
                "value": "0"
            },
            "nodeType": 0
        },
        "24": {
            "invocation": {
                "address": "0xc82bbe41f2cf04e3a8efa18f7032bdd7f6d98a81",
                "callData": "0x00000000000000000000000000000000000000000000000000000000000000400000000000000000000000000000000000000000000000000000000000000200000000000000000000000000a16a5f37774309710711a8b4e83b068306b217240000000000000000000000004b0e9a7da8bab813efae92a6651019b8bd6c0a29000000000000000000000000000000000000000000000000000000000000000000000000000000000000000000000000000000000000000000000000004c4b40000000000000000000000000000000000000000000000000000000000000000000000000000000000000000000000000000000000000000000000000000000c000000000000000000000000000000000000000000000000000000000000000c4ac9650d8000000000000000000000000000000000000000000000000000000000000002000000000000000000000000000000000000000000000000000000000000000010000000000000000000000000000000000000000000000000000000000000020000000000000000000000000000000000000000000000000000000000000003842966c680000000000000000000000000000000000000000c9112ec16d958e8da8180000760dc1e043d99394a10605b2fa08f123d60faf8400000000000000000000000000000000000000000000000000000000000000000000000000000000000000000000000000000000000000000000000000000000000000419194983a3dbfb5779c09c95f5d830d8435d9ce88b383752c3dfb8a1b84b8c9f511b7c750f1334e2f26ca9be32c2d070a4a023edf745b02468d6cba9a15a494c61b00000000000000000000000000000000000000000000000000000000000000",
                "decodedMethod": {
                    "callParams": [
                        {
                            "name": "req",
                            "type": "(address,address,uint256,uint256,uint256,bytes)",
                            "value": [
                                {
                                    "name": "from",
                                    "type": "address",
                                    "value": "0xa16a5f37774309710711a8b4e83b068306b21724"
                                },
                                {
                                    "name": "to",
                                    "type": "address",
                                    "value": "0x4b0e9a7da8bab813efae92a6651019b8bd6c0a29"
                                },
                                {
                                    "name": "value",
                                    "type": "uint256",
                                    "value": "0"
                                },
                                {
                                    "name": "gas",
                                    "type": "uint256",
                                    "value": "5,000,000"
                                },
                                {
                                    "name": "nonce",
                                    "type": "uint256",
                                    "value": "0"
                                },
                                {
                                    "name": "data",
                                    "type": "bytes",
                                    "value": "0xac9650d8000000000000000000000000000000000000000000000000000000000000002000000000000000000000000000000000000000000000000000000000000000010000000000000000000000000000000000000000000000000000000000000020000000000000000000000000000000000000000000000000000000000000003842966c680000000000000000000000000000000000000000c9112ec16d958e8da8180000760dc1e043d99394a10605b2fa08f123d60faf840000000000000000"
                                }
                            ]
                        },
                        {
                            "name": "signature",
                            "type": "bytes",
                            "value": "0x9194983a3dbfb5779c09c95f5d830d8435d9ce88b383752c3dfb8a1b84b8c9f511b7c750f1334e2f26ca9be32c2d070a4a023edf745b02468d6cba9a15a494c61b"
                        }
                    ],
                    "constructorArguments": "",
                    "name": "execute",
                    "returnParams": [
                        {
                            "name": "",
                            "type": "bool",
                            "value": true
                        },
                        {
                            "name": "",
                            "type": "bytes",
                            "value": "0x0000000000000000000000000000000000000000000000000000000000000020000000000000000000000000000000000000000000000000000000000000000100000000000000000000000000000000000000000000000000000000000000200000000000000000000000000000000000000000000000000000000000000000"
                        }
                    ],
                    "signature": "execute((address,address,uint256,uint256,uint256,bytes),bytes)"
                },
                "errorInfo": "",
                "fromAddress": "0x6980a47bee930a4584b09ee79ebe46484fbdbdd0",
                "gasUsed": 77668,
                "id": 24,
                "methodDecoded": true,
                "operation": "CALL",
                "output": "0x0000000000000000000000000000000000000000000000000000000000000001000000000000000000000000000000000000000000000000000000000000004000000000000000000000000000000000000000000000000000000000000000800000000000000000000000000000000000000000000000000000000000000020000000000000000000000000000000000000000000000000000000000000000100000000000000000000000000000000000000000000000000000000000000200000000000000000000000000000000000000000000000000000000000000000",
                "revert": false,
                "revertMessage": "",
                "selector": "0x47153f82",
                "status": true,
                "value": "0"
            },
            "nodeType": 0
        },
        "25": {
            "invocation": {
                "address": "0x0000000000000000000000000000000000000001",
                "callData": "0x9bee81aecd0fa852fae43c9e2a4db94c609c3b91dba5ac0f01b4d5c6000000000000000000000000000000000000000000000000000000000000001b9194983a3dbfb5779c09c95f5d830d8435d9ce88b383752c3dfb8a1b84b8c9f511b7c750f1334e2f26ca9be32c2d070a4a023edf745b02468d6cba9a15a494c6",
                "decodedMethod": {
                    "callParams": [
                        {
                            "name": "hash",
                            "type": "bytes32",
                            "value": "0x2038560f9bee81aecd0fa852fae43c9e2a4db94c609c3b91dba5ac0f01b4d5c6"
                        },
                        {
                            "name": "v",
                            "type": "uint256",
                            "value": "27"
                        },
                        {
                            "name": "r",
                            "type": "bytes32",
                            "value": "0x9194983a3dbfb5779c09c95f5d830d8435d9ce88b383752c3dfb8a1b84b8c9f5"
                        },
                        {
                            "name": "s",
                            "type": "bytes32",
                            "value": "0x11b7c750f1334e2f26ca9be32c2d070a4a023edf745b02468d6cba9a15a494c6"
                        }
                    ],
                    "constructorArguments": "",
                    "name": "ecrecover",
                    "returnParams": [
                        {
                            "name": "",
                            "type": "address",
                            "value": "0xa16a5f37774309710711a8b4e83b068306b21724"
                        }
                    ],
                    "signature": "ecrecover(bytes32,uint256,bytes32,bytes32)"
                },
                "errorInfo": "",
                "fromAddress": "0xc82bbe41f2cf04e3a8efa18f7032bdd7f6d98a81",
                "gasUsed": 3000,
                "id": 25,
                "methodDecoded": true,
                "operation": "STATICCALL",
                "output": "0x000000000000000000000000a16a5f37774309710711a8b4e83b068306b21724",
                "revert": false,
                "revertMessage": "",
                "selector": "0x2038560f",
                "status": true,
                "value": "0"
            },
            "nodeType": 0
        },
        "26": {
            "invocation": {
                "address": "0x4b0e9a7da8bab813efae92a6651019b8bd6c0a29",
                "callData": "0x000000000000000000000000000000000000000000000000000000000000002000000000000000000000000000000000000000000000000000000000000000010000000000000000000000000000000000000000000000000000000000000020000000000000000000000000000000000000000000000000000000000000003842966c680000000000000000000000000000000000000000c9112ec16d958e8da8180000760dc1e043d99394a10605b2fa08f123d60faf840000000000000000a16a5f37774309710711a8b4e83b068306b21724",
                "decodedMethod": {
                    "callParams": [
                        {
                            "name": "data",
                            "type": "bytes[]",
                            "value": [
                                "0x42966c680000000000000000000000000000000000000000c9112ec16d958e8da8180000760dc1e043d99394a10605b2fa08f123d60faf84"
                            ]
                        }
                    ],
                    "constructorArguments": "",
                    "name": "multicall",
                    "returnParams": [
                        {
                            "name": "results",
                            "type": "bytes[]",
                            "value": [
                                "0x"
                            ]
                        }
                    ],
                    "signature": "multicall(bytes[])"
                },
                "errorInfo": "",
                "fromAddress": "0xc82bbe41f2cf04e3a8efa18f7032bdd7f6d98a81",
                "gasUsed": 46447,
                "id": 26,
                "methodDecoded": true,
                "operation": "CALL",
                "output": "0x0000000000000000000000000000000000000000000000000000000000000020000000000000000000000000000000000000000000000000000000000000000100000000000000000000000000000000000000000000000000000000000000200000000000000000000000000000000000000000000000000000000000000000",
                "revert": false,
                "revertMessage": "",
                "selector": "0xac9650d8",
                "status": true,
                "value": "0"
            },
            "nodeType": 0
        },
        "27": {
            "invocation": {
                "address": "0x303a41300baeb37a1028af017b17b8a6edc3066a",
                "callData": "0x000000000000000000000000000000000000000000000000000000000000002000000000000000000000000000000000000000000000000000000000000000010000000000000000000000000000000000000000000000000000000000000020000000000000000000000000000000000000000000000000000000000000003842966c680000000000000000000000000000000000000000c9112ec16d958e8da8180000760dc1e043d99394a10605b2fa08f123d60faf840000000000000000a16a5f37774309710711a8b4e83b068306b21724",
                "decodedMethod": {
                    "callParams": [
                        {
                            "name": "data",
                            "type": "bytes[]",
                            "value": [
                                "0x42966c680000000000000000000000000000000000000000c9112ec16d958e8da8180000760dc1e043d99394a10605b2fa08f123d60faf84"
                            ]
                        }
                    ],
                    "constructorArguments": "",
                    "name": "multicall",
                    "returnParams": [
                        {
                            "name": "results",
                            "type": "bytes[]",
                            "value": [
                                "0x"
                            ]
                        }
                    ],
                    "signature": "multicall(bytes[])"
                },
                "errorInfo": "",
                "fromAddress": "0x4b0e9a7da8bab813efae92a6651019b8bd6c0a29",
                "gasUsed": 46236,
                "id": 27,
                "methodDecoded": true,
                "operation": "DELEGATECALL",
                "output": "0x0000000000000000000000000000000000000000000000000000000000000020000000000000000000000000000000000000000000000000000000000000000100000000000000000000000000000000000000000000000000000000000000200000000000000000000000000000000000000000000000000000000000000000",
                "revert": false,
                "revertMessage": "",
                "selector": "0xac9650d8",
                "status": true,
                "value": "0"
            },
            "nodeType": 0
        },
        "28": {
            "invocation": {
                "address": "0x4b0e9a7da8bab813efae92a6651019b8bd6c0a29",
                "callData": "0x0000000000000000000000000000000000000000c9112ec16d958e8da8180000760dc1e043d99394a10605b2fa08f123d60faf84",
                "decodedMethod": {
                    "callParams": [
                        {
                            "name": "amount",
                            "type": "uint256",
                            "value": "62,227,259,510,000,000,000,000,000,000"
                        }
                    ],
                    "constructorArguments": "",
                    "name": "burn",
                    "returnParams": [],
                    "signature": "burn(uint256)"
                },
                "errorInfo": "",
                "fromAddress": "0x4b0e9a7da8bab813efae92a6651019b8bd6c0a29",
                "gasUsed": 43617,
                "id": 28,
                "methodDecoded": true,
                "operation": "DELEGATECALL",
                "output": "",
                "revert": false,
                "revertMessage": "",
                "selector": "0x42966c68",
                "status": true,
                "value": "0"
            },
            "nodeType": 0
        },
        "29": {
            "invocation": {
                "address": "0x303a41300baeb37a1028af017b17b8a6edc3066a",
                "callData": "0x0000000000000000000000000000000000000000c9112ec16d958e8da8180000760dc1e043d99394a10605b2fa08f123d60faf84",
                "decodedMethod": {
                    "callParams": [
                        {
                            "name": "amount",
                            "type": "uint256",
                            "value": "62,227,259,510,000,000,000,000,000,000"
                        }
                    ],
                    "constructorArguments": "",
                    "name": "burn",
                    "returnParams": [],
                    "signature": "burn(uint256)"
                },
                "errorInfo": "",
                "fromAddress": "0x4b0e9a7da8bab813efae92a6651019b8bd6c0a29",
                "gasUsed": 43448,
                "id": 29,
                "methodDecoded": true,
                "operation": "DELEGATECALL",
                "output": "",
                "revert": false,
                "revertMessage": "",
                "selector": "0x42966c68",
                "status": true,
                "value": "0"
            },
            "nodeType": 0
        },
        "3": {
            "event": {
                "contract": "0x4b0e9a7da8bab813efae92a6651019b8bd6c0a29",
                "decodedLog": {
                    "name": "Approval",
                    "params": [
                        {
                            "name": "owner",
                            "type": "address",
                            "value": "0x6980a47bee930a4584b09ee79ebe46484fbdbdd0"
                        },
                        {
                            "name": "spender",
                            "type": "address",
                            "value": "0x7a250d5630b4cf539739df2c5dacb4c659f2488d"
                        },
                        {
                            "decimalAvailable": true,
                            "name": "value",
                            "type": "uint256",
                            "value": "115,792,089,237,316,195,423,570,985,008,687,907,853,269,984,665,640,564,039,457,584,007,913,129,639,935"
                        }
                    ],
                    "signature": "Approval(address,address,uint256)"
                },
                "id": 3,
                "logData": "0xffffffffffffffffffffffffffffffffffffffffffffffffffffffffffffffff",
                "logDecoded": true,
                "operation": "EVENT",
                "revert": false,
                "status": true,
                "topics": [
                    "0x8c5be1e5ebec7d5bd14f71427d1e84f3dd0314c0f7b2291e5b200ac8c7c3b925",
                    "0x0000000000000000000000006980a47bee930a4584b09ee79ebe46484fbdbdd0",
                    "0x0000000000000000000000007a250d5630b4cf539739df2c5dacb4c659f2488d"
                ]
            },
            "nodeType": 1
        },
        "30": {
            "event": {
                "contract": "0x4b0e9a7da8bab813efae92a6651019b8bd6c0a29",
                "decodedLog": {
                    "name": "Transfer",
                    "params": [
                        {
                            "name": "from",
                            "type": "address",
                            "value": "0x760dc1e043d99394a10605b2fa08f123d60faf84"
                        },
                        {
                            "name": "to",
                            "type": "address",
                            "value": "0x0000000000000000000000000000000000000000"
                        },
                        {
                            "decimalAvailable": true,
                            "name": "value",
                            "type": "uint256",
                            "value": "62,227,259,510,000,000,000,000,000,000"
                        }
                    ],
                    "signature": "Transfer(address,address,uint256)"
                },
                "id": 30,
                "logData": "0x0000000000000000000000000000000000000000c9112ec16d958e8da8180000",
                "logDecoded": true,
                "operation": "EVENT",
                "revert": false,
                "status": true,
                "topics": [
                    "0xddf252ad1be2c89b69c2b068fc378daa952ba7f163c4a11628f55a4df523b3ef",
                    "0x000000000000000000000000760dc1e043d99394a10605b2fa08f123d60faf84",
                    "0x0000000000000000000000000000000000000000000000000000000000000000"
                ]
            },
            "nodeType": 1
        },
        "31": {
            "invocation": {
                "address": "0x760dc1e043d99394a10605b2fa08f123d60faf84",
                "callData": "0x",
                "decodedMethod": {
                    "callParams": [],
                    "constructorArguments": "",
                    "name": "sync",
                    "returnParams": [],
                    "signature": "sync()"
                },
                "errorInfo": "",
                "fromAddress": "0x6980a47bee930a4584b09ee79ebe46484fbdbdd0",
                "gasUsed": 7850,
                "id": 31,
                "methodDecoded": true,
                "operation": "CALL",
                "output": "",
                "revert": false,
                "revertMessage": "",
                "selector": "0xfff6cae9",
                "status": true,
                "value": "0"
            },
            "nodeType": 0
        },
        "32": {
            "invocation": {
                "address": "0x4b0e9a7da8bab813efae92a6651019b8bd6c0a29",
                "callData": "0x000000000000000000000000760dc1e043d99394a10605b2fa08f123d60faf84",
                "decodedMethod": {
                    "callParams": [
                        {
                            "name": "account",
                            "type": "address",
                            "value": "0x760dc1e043d99394a10605b2fa08f123d60faf84"
                        }
                    ],
                    "constructorArguments": "",
                    "name": "balanceOf",
                    "returnParams": [
                        {
                            "decimalAvailable": true,
                            "name": "",
                            "type": "uint256",
                            "value": "9,999,999,891,268,803,341,558,999"
                        }
                    ],
                    "signature": "balanceOf(address)"
                },
                "errorInfo": "",
                "fromAddress": "0x760dc1e043d99394a10605b2fa08f123d60faf84",
                "gasUsed": 798,
                "id": 32,
                "methodDecoded": true,
                "operation": "STATICCALL",
                "output": "0x0000000000000000000000000000000000000000000845951491b6d5c92ba4d7",
                "revert": false,
                "revertMessage": "",
                "selector": "0x70a08231",
                "status": true,
                "value": "0"
            },
            "nodeType": 0
        },
        "33": {
            "invocation": {
                "address": "0x303a41300baeb37a1028af017b17b8a6edc3066a",
                "callData": "0x000000000000000000000000760dc1e043d99394a10605b2fa08f123d60faf84",
                "decodedMethod": {
                    "callParams": [
                        {
                            "name": "account",
                            "type": "address",
                            "value": "0x760dc1e043d99394a10605b2fa08f123d60faf84"
                        }
                    ],
                    "constructorArguments": "",
                    "name": "balanceOf",
                    "returnParams": [
                        {
                            "decimalAvailable": true,
                            "name": "",
                            "type": "uint256",
                            "value": "9,999,999,891,268,803,341,558,999"
                        }
                    ],
                    "signature": "balanceOf(address)"
                },
                "errorInfo": "",
                "fromAddress": "0x4b0e9a7da8bab813efae92a6651019b8bd6c0a29",
                "gasUsed": 626,
                "id": 33,
                "methodDecoded": true,
                "operation": "DELEGATECALL",
                "output": "0x0000000000000000000000000000000000000000000845951491b6d5c92ba4d7",
                "revert": false,
                "revertMessage": "",
                "selector": "0x70a08231",
                "status": true,
                "value": "0"
            },
            "nodeType": 0
        },
        "34": {
            "invocation": {
                "address": "0xc02aaa39b223fe8d0a0e5c4f27ead9083c756cc2",
                "callData": "0x000000000000000000000000760dc1e043d99394a10605b2fa08f123d60faf84",
                "decodedMethod": {
                    "callParams": [
                        {
                            "name": "",
                            "type": "address",
                            "value": "0x760dc1e043d99394a10605b2fa08f123d60faf84"
                        }
                    ],
                    "constructorArguments": "",
                    "name": "balanceOf",
                    "returnParams": [
                        {
                            "decimalAvailable": true,
                            "name": "",
                            "type": "uint256",
                            "value": "94,787,809,617,954,054,780"
                        }
                    ],
                    "signature": "balanceOf(address)"
                },
                "errorInfo": "",
                "fromAddress": "0x760dc1e043d99394a10605b2fa08f123d60faf84",
                "gasUsed": 534,
                "id": 34,
                "methodDecoded": true,
                "operation": "STATICCALL",
                "output": "0x0000000000000000000000000000000000000000000000052371f2a3e381a27c",
                "revert": false,
                "revertMessage": "",
                "selector": "0x70a08231",
                "status": true,
                "value": "0"
            },
            "nodeType": 0
        },
        "35": {
            "event": {
                "contract": "0x760dc1e043d99394a10605b2fa08f123d60faf84",
                "decodedLog": {
                    "name": "Sync",
                    "params": [
                        {
                            "name": "reserve0",
                            "type": "uint112",
                            "value": "9,999,999,891,268,803,341,558,999"
                        },
                        {
                            "name": "reserve1",
                            "type": "uint112",
                            "value": "94,787,809,617,954,054,780"
                        }
                    ],
                    "signature": "Sync(uint112,uint112)"
                },
                "id": 35,
                "logData": "0x0000000000000000000000000000000000000000000845951491b6d5c92ba4d70000000000000000000000000000000000000000000000052371f2a3e381a27c",
                "logDecoded": true,
                "operation": "EVENT",
                "revert": false,
                "status": true,
                "topics": [
                    "0x1c411e9a96e071241c2f21f7726b17ae89e3cab4c78be50e062b03a9fffbbad1"
                ]
            },
            "nodeType": 1
        },
        "36": {
            "invocation": {
                "address": "0x7a250d5630b4cf539739df2c5dacb4c659f2488d",
                "callData": "0x00000000000000000000000000000000000000000b2a3d45e6c858e9fbbbb45a000000000000000000000000000000000000000000000000000000000000000000000000000000000000000000000000000000000000000000000000000000a00000000000000000000000006980a47bee930a4584b09ee79ebe46484fbdbdd0000000000000000000000000000000000000000000000000000000006570ffbf00000000000000000000000000000000000000000000000000000000000000020000000000000000000000004b0e9a7da8bab813efae92a6651019b8bd6c0a29000000000000000000000000c02aaa39b223fe8d0a0e5c4f27ead9083c756cc2",
                "decodedMethod": {
                    "callParams": [
                        {
                            "name": "amountIn",
                            "type": "uint256",
                            "value": "3,455,399,346,269,045,701,666,911,322"
                        },
                        {
                            "name": "amountOutMin",
                            "type": "uint256",
                            "value": "0"
                        },
                        {
                            "name": "path",
                            "type": "address[]",
                            "value": [
                                "0x4b0e9a7da8bab813efae92a6651019b8bd6c0a29",
                                "0xc02aaa39b223fe8d0a0e5c4f27ead9083c756cc2"
                            ]
                        },
                        {
                            "name": "to",
                            "type": "address",
                            "value": "0x6980a47bee930a4584b09ee79ebe46484fbdbdd0"
                        },
                        {
                            "name": "deadline",
                            "type": "uint256",
                            "value": "1,701,904,319"
                        }
                    ],
                    "constructorArguments": "",
                    "name": "swapExactTokensForTokensSupportingFeeOnTransferTokens",
                    "returnParams": [],
                    "signature": "swapExactTokensForTokensSupportingFeeOnTransferTokens(uint256,uint256,address[],address,uint256)"
                },
                "errorInfo": "",
                "fromAddress": "0x6980a47bee930a4584b09ee79ebe46484fbdbdd0",
                "gasUsed": 35945,
                "id": 36,
                "methodDecoded": true,
                "operation": "CALL",
                "output": "",
                "revert": false,
                "revertMessage": "",
                "selector": "0x5c11d795",
                "status": true,
                "value": "0"
            },
            "nodeType": 0
        },
        "37": {
            "invocation": {
                "address": "0x4b0e9a7da8bab813efae92a6651019b8bd6c0a29",
                "callData": "0x0000000000000000000000006980a47bee930a4584b09ee79ebe46484fbdbdd0000000000000000000000000760dc1e043d99394a10605b2fa08f123d60faf8400000000000000000000000000000000000000000b2a3d45e6c858e9fbbbb45a",
                "decodedMethod": {
                    "callParams": [
                        {
                            "name": "from",
                            "type": "address",
                            "value": "0x6980a47bee930a4584b09ee79ebe46484fbdbdd0"
                        },
                        {
                            "name": "to",
                            "type": "address",
                            "value": "0x760dc1e043d99394a10605b2fa08f123d60faf84"
                        },
                        {
                            "decimalAvailable": true,
                            "name": "amount",
                            "type": "uint256",
                            "value": "3,455,399,346,269,045,701,666,911,322"
                        }
                    ],
                    "constructorArguments": "",
                    "name": "transferFrom",
                    "returnParams": [
                        {
                            "name": "",
                            "type": "bool",
                            "value": true
                        }
                    ],
                    "signature": "transferFrom(address,address,uint256)"
                },
                "errorInfo": "",
                "fromAddress": "0x7a250d5630b4cf539739df2c5dacb4c659f2488d",
                "gasUsed": 6932,
                "id": 37,
                "methodDecoded": true,
                "operation": "CALL",
                "output": "0x0000000000000000000000000000000000000000000000000000000000000001",
                "revert": false,
                "revertMessage": "",
                "selector": "0x23b872dd",
                "status": true,
                "value": "0"
            },
            "nodeType": 0
        },
        "38": {
            "invocation": {
                "address": "0x303a41300baeb37a1028af017b17b8a6edc3066a",
                "callData": "0x0000000000000000000000006980a47bee930a4584b09ee79ebe46484fbdbdd0000000000000000000000000760dc1e043d99394a10605b2fa08f123d60faf8400000000000000000000000000000000000000000b2a3d45e6c858e9fbbbb45a",
                "decodedMethod": {
                    "callParams": [
                        {
                            "name": "from",
                            "type": "address",
                            "value": "0x6980a47bee930a4584b09ee79ebe46484fbdbdd0"
                        },
                        {
                            "name": "to",
                            "type": "address",
                            "value": "0x760dc1e043d99394a10605b2fa08f123d60faf84"
                        },
                        {
                            "decimalAvailable": true,
                            "name": "amount",
                            "type": "uint256",
                            "value": "3,455,399,346,269,045,701,666,911,322"
                        }
                    ],
                    "constructorArguments": "",
                    "name": "transferFrom",
                    "returnParams": [
                        {
                            "name": "",
                            "type": "bool",
                            "value": true
                        }
                    ],
                    "signature": "transferFrom(address,address,uint256)"
                },
                "errorInfo": "",
                "fromAddress": "0x4b0e9a7da8bab813efae92a6651019b8bd6c0a29",
                "gasUsed": 6748,
                "id": 38,
                "methodDecoded": true,
                "operation": "DELEGATECALL",
                "output": "0x0000000000000000000000000000000000000000000000000000000000000001",
                "revert": false,
                "revertMessage": "",
                "selector": "0x23b872dd",
                "status": true,
                "value": "0"
            },
            "nodeType": 0
        },
        "39": {
            "event": {
                "contract": "0x4b0e9a7da8bab813efae92a6651019b8bd6c0a29",
                "decodedLog": {
                    "name": "Transfer",
                    "params": [
                        {
                            "name": "from",
                            "type": "address",
                            "value": "0x6980a47bee930a4584b09ee79ebe46484fbdbdd0"
                        },
                        {
                            "name": "to",
                            "type": "address",
                            "value": "0x760dc1e043d99394a10605b2fa08f123d60faf84"
                        },
                        {
                            "decimalAvailable": true,
                            "name": "value",
                            "type": "uint256",
                            "value": "3,455,399,346,269,045,701,666,911,322"
                        }
                    ],
                    "signature": "Transfer(address,address,uint256)"
                },
                "id": 39,
                "logData": "0x00000000000000000000000000000000000000000b2a3d45e6c858e9fbbbb45a",
                "logDecoded": true,
                "operation": "EVENT",
                "revert": false,
                "status": true,
                "topics": [
                    "0xddf252ad1be2c89b69c2b068fc378daa952ba7f163c4a11628f55a4df523b3ef",
                    "0x0000000000000000000000006980a47bee930a4584b09ee79ebe46484fbdbdd0",
                    "0x000000000000000000000000760dc1e043d99394a10605b2fa08f123d60faf84"
                ]
            },
            "nodeType": 1
        },
        "4": {
            "invocation": {
                "address": "0xc02aaa39b223fe8d0a0e5c4f27ead9083c756cc2",
                "callData": "0x",
                "decodedMethod": {
                    "callParams": [],
                    "constructorArguments": "",
                    "name": "deposit",
                    "returnParams": [],
                    "signature": "deposit()"
                },
                "errorInfo": "",
                "fromAddress": "0x6980a47bee930a4584b09ee79ebe46484fbdbdd0",
                "gasUsed": 6874,
                "id": 4,
                "methodDecoded": true,
                "operation": "CALL",
                "output": "",
                "revert": false,
                "revertMessage": "",
                "selector": "0xd0e30db0",
                "status": true,
                "value": "5"
            },
            "nodeType": 0
        },
        "40": {
            "invocation": {
                "address": "0xc02aaa39b223fe8d0a0e5c4f27ead9083c756cc2",
                "callData": "0x0000000000000000000000006980a47bee930a4584b09ee79ebe46484fbdbdd0",
                "decodedMethod": {
                    "callParams": [
                        {
                            "name": "",
                            "type": "address",
                            "value": "0x6980a47bee930a4584b09ee79ebe46484fbdbdd0"
                        }
                    ],
                    "constructorArguments": "",
                    "name": "balanceOf",
                    "returnParams": [
                        {
                            "decimalAvailable": true,
                            "name": "",
                            "type": "uint256",
                            "value": "1"
                        }
                    ],
                    "signature": "balanceOf(address)"
                },
                "errorInfo": "",
                "fromAddress": "0x7a250d5630b4cf539739df2c5dacb4c659f2488d",
                "gasUsed": 534,
                "id": 40,
                "methodDecoded": true,
                "operation": "STATICCALL",
                "output": "0x0000000000000000000000000000000000000000000000000000000000000001",
                "revert": false,
                "revertMessage": "",
                "selector": "0x70a08231",
                "status": true,
                "value": "0"
            },
            "nodeType": 0
        },
        "41": {
            "invocation": {
                "address": "0x760dc1e043d99394a10605b2fa08f123d60faf84",
                "callData": "0x",
                "decodedMethod": {
                    "callParams": [],
                    "constructorArguments": "",
                    "name": "getReserves",
                    "returnParams": [
                        {
                            "name": "_reserve0",
                            "type": "uint112",
                            "value": "9,999,999,891,268,803,341,558,999"
                        },
                        {
                            "name": "_reserve1",
                            "type": "uint112",
                            "value": "94,787,809,617,954,054,780"
                        },
                        {
                            "name": "_blockTimestampLast",
                            "type": "uint32",
                            "value": "1,701,904,319"
                        }
                    ],
                    "signature": "getReserves()"
                },
                "errorInfo": "",
                "fromAddress": "0x7a250d5630b4cf539739df2c5dacb4c659f2488d",
                "gasUsed": 504,
                "id": 41,
                "methodDecoded": true,
                "operation": "STATICCALL",
                "output": "0x0000000000000000000000000000000000000000000845951491b6d5c92ba4d70000000000000000000000000000000000000000000000052371f2a3e381a27c000000000000000000000000000000000000000000000000000000006570ffbf",
                "revert": false,
                "revertMessage": "",
                "selector": "0x0902f1ac",
                "status": true,
                "value": "0"
            },
            "nodeType": 0
        },
        "42": {
            "invocation": {
                "address": "0x4b0e9a7da8bab813efae92a6651019b8bd6c0a29",
                "callData": "0x000000000000000000000000760dc1e043d99394a10605b2fa08f123d60faf84",
                "decodedMethod": {
                    "callParams": [
                        {
                            "name": "account",
                            "type": "address",
                            "value": "0x760dc1e043d99394a10605b2fa08f123d60faf84"
                        }
                    ],
                    "constructorArguments": "",
                    "name": "balanceOf",
                    "returnParams": [
                        {
                            "decimalAvailable": true,
                            "name": "",
                            "type": "uint256",
                            "value": "3,465,399,346,160,314,505,008,470,321"
                        }
                    ],
                    "signature": "balanceOf(address)"
                },
                "errorInfo": "",
                "fromAddress": "0x7a250d5630b4cf539739df2c5dacb4c659f2488d",
                "gasUsed": 798,
                "id": 42,
                "methodDecoded": true,
                "operation": "STATICCALL",
                "output": "0x00000000000000000000000000000000000000000b3282dafb5a0fbfc4e75931",
                "revert": false,
                "revertMessage": "",
                "selector": "0x70a08231",
                "status": true,
                "value": "0"
            },
            "nodeType": 0
        },
        "43": {
            "invocation": {
                "address": "0x303a41300baeb37a1028af017b17b8a6edc3066a",
                "callData": "0x000000000000000000000000760dc1e043d99394a10605b2fa08f123d60faf84",
                "decodedMethod": {
                    "callParams": [
                        {
                            "name": "account",
                            "type": "address",
                            "value": "0x760dc1e043d99394a10605b2fa08f123d60faf84"
                        }
                    ],
                    "constructorArguments": "",
                    "name": "balanceOf",
                    "returnParams": [
                        {
                            "decimalAvailable": true,
                            "name": "",
                            "type": "uint256",
                            "value": "3,465,399,346,160,314,505,008,470,321"
                        }
                    ],
                    "signature": "balanceOf(address)"
                },
                "errorInfo": "",
                "fromAddress": "0x4b0e9a7da8bab813efae92a6651019b8bd6c0a29",
                "gasUsed": 626,
                "id": 43,
                "methodDecoded": true,
                "operation": "DELEGATECALL",
                "output": "0x00000000000000000000000000000000000000000b3282dafb5a0fbfc4e75931",
                "revert": false,
                "revertMessage": "",
                "selector": "0x70a08231",
                "status": true,
                "value": "0"
            },
            "nodeType": 0
        },
        "44": {
            "invocation": {
                "address": "0x760dc1e043d99394a10605b2fa08f123d60faf84",
                "callData": "0x00000000000000000000000000000000000000000000000000000000000000000000000000000000000000000000000000000000000000051fa345781919402c0000000000000000000000006980a47bee930a4584b09ee79ebe46484fbdbdd000000000000000000000000000000000000000000000000000000000000000800000000000000000000000000000000000000000000000000000000000000000",
                "decodedMethod": {
                    "callParams": [
                        {
                            "name": "amount0Out",
                            "type": "uint256",
                            "value": "0"
                        },
                        {
                            "name": "amount1Out",
                            "type": "uint256",
                            "value": "94,513,462,587,046,838,316"
                        },
                        {
                            "name": "to",
                            "type": "address",
                            "value": "0x6980a47bee930a4584b09ee79ebe46484fbdbdd0"
                        },
                        {
                            "name": "data",
                            "type": "bytes",
                            "value": "0x"
                        }
                    ],
                    "constructorArguments": "",
                    "name": "swap",
                    "returnParams": [],
                    "signature": "swap(uint256,uint256,address,bytes)"
                },
                "errorInfo": "",
                "fromAddress": "0x7a250d5630b4cf539739df2c5dacb4c659f2488d",
                "gasUsed": 19501,
                "id": 44,
                "methodDecoded": true,
                "operation": "CALL",
                "output": "",
                "revert": false,
                "revertMessage": "",
                "selector": "0x022c0d9f",
                "status": true,
                "value": "0"
            },
            "nodeType": 0
        },
        "45": {
            "invocation": {
                "address": "0xc02aaa39b223fe8d0a0e5c4f27ead9083c756cc2",
                "callData": "0x0000000000000000000000006980a47bee930a4584b09ee79ebe46484fbdbdd00000000000000000000000000000000000000000000000051fa345781919402c",
                "decodedMethod": {
                    "callParams": [
                        {
                            "name": "dst",
                            "type": "address",
                            "value": "0x6980a47bee930a4584b09ee79ebe46484fbdbdd0"
                        },
                        {
                            "decimalAvailable": true,
                            "name": "wad",
                            "type": "uint256",
                            "value": "94,513,462,587,046,838,316"
                        }
                    ],
                    "constructorArguments": "",
                    "name": "transfer",
                    "returnParams": [
                        {
                            "name": "",
                            "type": "bool",
                            "value": true
                        }
                    ],
                    "signature": "transfer(address,uint256)"
                },
                "errorInfo": "",
                "fromAddress": "0x760dc1e043d99394a10605b2fa08f123d60faf84",
                "gasUsed": 6062,
                "id": 45,
                "methodDecoded": true,
                "operation": "CALL",
                "output": "0x0000000000000000000000000000000000000000000000000000000000000001",
                "revert": false,
                "revertMessage": "",
                "selector": "0xa9059cbb",
                "status": true,
                "value": "0"
            },
            "nodeType": 0
        },
        "46": {
            "event": {
                "contract": "0xc02aaa39b223fe8d0a0e5c4f27ead9083c756cc2",
                "decodedLog": {
                    "name": "Transfer",
                    "params": [
                        {
                            "name": "src",
                            "type": "address",
                            "value": "0x760dc1e043d99394a10605b2fa08f123d60faf84"
                        },
                        {
                            "name": "dst",
                            "type": "address",
                            "value": "0x6980a47bee930a4584b09ee79ebe46484fbdbdd0"
                        },
                        {
                            "decimalAvailable": true,
                            "name": "wad",
                            "type": "uint256",
                            "value": "94,513,462,587,046,838,316"
                        }
                    ],
                    "signature": "Transfer(address,address,uint256)"
                },
                "id": 46,
                "logData": "0x0000000000000000000000000000000000000000000000051fa345781919402c",
                "logDecoded": true,
                "operation": "EVENT",
                "revert": false,
                "status": true,
                "topics": [
                    "0xddf252ad1be2c89b69c2b068fc378daa952ba7f163c4a11628f55a4df523b3ef",
                    "0x000000000000000000000000760dc1e043d99394a10605b2fa08f123d60faf84",
                    "0x0000000000000000000000006980a47bee930a4584b09ee79ebe46484fbdbdd0"
                ]
            },
            "nodeType": 1
        },
        "47": {
            "invocation": {
                "address": "0x4b0e9a7da8bab813efae92a6651019b8bd6c0a29",
                "callData": "0x000000000000000000000000760dc1e043d99394a10605b2fa08f123d60faf84",
                "decodedMethod": {
                    "callParams": [
                        {
                            "name": "account",
                            "type": "address",
                            "value": "0x760dc1e043d99394a10605b2fa08f123d60faf84"
                        }
                    ],
                    "constructorArguments": "",
                    "name": "balanceOf",
                    "returnParams": [
                        {
                            "decimalAvailable": true,
                            "name": "",
                            "type": "uint256",
                            "value": "3,465,399,346,160,314,505,008,470,321"
                        }
                    ],
                    "signature": "balanceOf(address)"
                },
                "errorInfo": "",
                "fromAddress": "0x760dc1e043d99394a10605b2fa08f123d60faf84",
                "gasUsed": 798,
                "id": 47,
                "methodDecoded": true,
                "operation": "STATICCALL",
                "output": "0x00000000000000000000000000000000000000000b3282dafb5a0fbfc4e75931",
                "revert": false,
                "revertMessage": "",
                "selector": "0x70a08231",
                "status": true,
                "value": "0"
            },
            "nodeType": 0
        },
        "48": {
            "invocation": {
                "address": "0x303a41300baeb37a1028af017b17b8a6edc3066a",
                "callData": "0x000000000000000000000000760dc1e043d99394a10605b2fa08f123d60faf84",
                "decodedMethod": {
                    "callParams": [
                        {
                            "name": "account",
                            "type": "address",
                            "value": "0x760dc1e043d99394a10605b2fa08f123d60faf84"
                        }
                    ],
                    "constructorArguments": "",
                    "name": "balanceOf",
                    "returnParams": [
                        {
                            "decimalAvailable": true,
                            "name": "",
                            "type": "uint256",
                            "value": "3,465,399,346,160,314,505,008,470,321"
                        }
                    ],
                    "signature": "balanceOf(address)"
                },
                "errorInfo": "",
                "fromAddress": "0x4b0e9a7da8bab813efae92a6651019b8bd6c0a29",
                "gasUsed": 626,
                "id": 48,
                "methodDecoded": true,
                "operation": "DELEGATECALL",
                "output": "0x00000000000000000000000000000000000000000b3282dafb5a0fbfc4e75931",
                "revert": false,
                "revertMessage": "",
                "selector": "0x70a08231",
                "status": true,
                "value": "0"
            },
            "nodeType": 0
        },
        "49": {
            "invocation": {
                "address": "0xc02aaa39b223fe8d0a0e5c4f27ead9083c756cc2",
                "callData": "0x000000000000000000000000760dc1e043d99394a10605b2fa08f123d60faf84",
                "decodedMethod": {
                    "callParams": [
                        {
                            "name": "",
                            "type": "address",
                            "value": "0x760dc1e043d99394a10605b2fa08f123d60faf84"
                        }
                    ],
                    "constructorArguments": "",
                    "name": "balanceOf",
                    "returnParams": [
                        {
                            "decimalAvailable": true,
                            "name": "",
                            "type": "uint256",
                            "value": "274,347,030,907,216,464"
                        }
                    ],
                    "signature": "balanceOf(address)"
                },
                "errorInfo": "",
                "fromAddress": "0x760dc1e043d99394a10605b2fa08f123d60faf84",
                "gasUsed": 534,
                "id": 49,
                "methodDecoded": true,
                "operation": "STATICCALL",
                "output": "0x00000000000000000000000000000000000000000000000003cead2bca686250",
                "revert": false,
                "revertMessage": "",
                "selector": "0x70a08231",
                "status": true,
                "value": "0"
            },
            "nodeType": 0
        },
        "5": {
            "event": {
                "contract": "0xc02aaa39b223fe8d0a0e5c4f27ead9083c756cc2",
                "decodedLog": {
                    "name": "Deposit",
                    "params": [
                        {
                            "name": "dst",
                            "type": "address",
                            "value": "0x6980a47bee930a4584b09ee79ebe46484fbdbdd0"
                        },
                        {
                            "name": "wad",
                            "type": "uint256",
                            "value": "5,000,000,000,000,000,000"
                        }
                    ],
                    "signature": "Deposit(address,uint256)"
                },
                "id": 5,
                "logData": "0x0000000000000000000000000000000000000000000000004563918244f40000",
                "logDecoded": true,
                "operation": "EVENT",
                "revert": false,
                "status": true,
                "topics": [
                    "0xe1fffcc4923d04b559f4d29a8bfc6cda04eb5b0d3c460751c2402c5c5cc9109c",
                    "0x0000000000000000000000006980a47bee930a4584b09ee79ebe46484fbdbdd0"
                ]
            },
            "nodeType": 1
        },
        "50": {
            "event": {
                "contract": "0x760dc1e043d99394a10605b2fa08f123d60faf84",
                "decodedLog": {
                    "name": "Sync",
                    "params": [
                        {
                            "name": "reserve0",
                            "type": "uint112",
                            "value": "3,465,399,346,160,314,505,008,470,321"
                        },
                        {
                            "name": "reserve1",
                            "type": "uint112",
                            "value": "274,347,030,907,216,464"
                        }
                    ],
                    "signature": "Sync(uint112,uint112)"
                },
                "id": 50,
                "logData": "0x00000000000000000000000000000000000000000b3282dafb5a0fbfc4e7593100000000000000000000000000000000000000000000000003cead2bca686250",
                "logDecoded": true,
                "operation": "EVENT",
                "revert": false,
                "status": true,
                "topics": [
                    "0x1c411e9a96e071241c2f21f7726b17ae89e3cab4c78be50e062b03a9fffbbad1"
                ]
            },
            "nodeType": 1
        },
        "51": {
            "event": {
                "contract": "0x760dc1e043d99394a10605b2fa08f123d60faf84",
                "decodedLog": {
                    "name": "Swap",
                    "params": [
                        {
                            "name": "sender",
                            "type": "address",
                            "value": "0x7a250d5630b4cf539739df2c5dacb4c659f2488d"
                        },
                        {
                            "name": "to",
                            "type": "address",
                            "value": "0x6980a47bee930a4584b09ee79ebe46484fbdbdd0"
                        },
                        {
                            "name": "amount0In",
                            "type": "uint256",
                            "value": "3,455,399,346,269,045,701,666,911,322"
                        },
                        {
                            "name": "amount1In",
                            "type": "uint256",
                            "value": "0"
                        },
                        {
                            "name": "amount0Out",
                            "type": "uint256",
                            "value": "0"
                        },
                        {
                            "name": "amount1Out",
                            "type": "uint256",
                            "value": "94,513,462,587,046,838,316"
                        }
                    ],
                    "signature": "Swap(address,uint256,uint256,uint256,uint256,address)"
                },
                "id": 51,
                "logData": "0x00000000000000000000000000000000000000000b2a3d45e6c858e9fbbbb45a000000000000000000000000000000000000000000000000000000000000000000000000000000000000000000000000000000000000000000000000000000000000000000000000000000000000000000000000000000051fa345781919402c",
                "logDecoded": true,
                "operation": "EVENT",
                "revert": false,
                "status": true,
                "topics": [
                    "0xd78ad95fa46c994b6551d0da85fc275fe613ce37657fb8d5e3d130840159d822",
                    "0x0000000000000000000000007a250d5630b4cf539739df2c5dacb4c659f2488d",
                    "0x0000000000000000000000006980a47bee930a4584b09ee79ebe46484fbdbdd0"
                ]
            },
            "nodeType": 1
        },
        "52": {
            "invocation": {
                "address": "0xc02aaa39b223fe8d0a0e5c4f27ead9083c756cc2",
                "callData": "0x0000000000000000000000006980a47bee930a4584b09ee79ebe46484fbdbdd0",
                "decodedMethod": {
                    "callParams": [
                        {
                            "name": "",
                            "type": "address",
                            "value": "0x6980a47bee930a4584b09ee79ebe46484fbdbdd0"
                        }
                    ],
                    "constructorArguments": "",
                    "name": "balanceOf",
                    "returnParams": [
                        {
                            "decimalAvailable": true,
                            "name": "",
                            "type": "uint256",
                            "value": "94,513,462,587,046,838,317"
                        }
                    ],
                    "signature": "balanceOf(address)"
                },
                "errorInfo": "",
                "fromAddress": "0x7a250d5630b4cf539739df2c5dacb4c659f2488d",
                "gasUsed": 534,
                "id": 52,
                "methodDecoded": true,
                "operation": "STATICCALL",
                "output": "0x0000000000000000000000000000000000000000000000051fa345781919402d",
                "revert": false,
                "revertMessage": "",
                "selector": "0x70a08231",
                "status": true,
                "value": "0"
            },
            "nodeType": 0
        },
        "53": {
            "invocation": {
                "address": "0xc02aaa39b223fe8d0a0e5c4f27ead9083c756cc2",
                "callData": "0x0000000000000000000000006980a47bee930a4584b09ee79ebe46484fbdbdd0",
                "decodedMethod": {
                    "callParams": [
                        {
                            "name": "",
                            "type": "address",
                            "value": "0x6980a47bee930a4584b09ee79ebe46484fbdbdd0"
                        }
                    ],
                    "constructorArguments": "",
                    "name": "balanceOf",
                    "returnParams": [
                        {
                            "decimalAvailable": true,
                            "name": "",
                            "type": "uint256",
                            "value": "94,513,462,587,046,838,317"
                        }
                    ],
                    "signature": "balanceOf(address)"
                },
                "errorInfo": "",
                "fromAddress": "0x6980a47bee930a4584b09ee79ebe46484fbdbdd0",
                "gasUsed": 534,
                "id": 53,
                "methodDecoded": true,
                "operation": "STATICCALL",
                "output": "0x0000000000000000000000000000000000000000000000051fa345781919402d",
                "revert": false,
                "revertMessage": "",
                "selector": "0x70a08231",
                "status": true,
                "value": "0"
            },
            "nodeType": 0
        },
        "54": {
            "invocation": {
                "address": "0xc02aaa39b223fe8d0a0e5c4f27ead9083c756cc2",
                "callData": "0x0000000000000000000000000000000000000000000000051fa345781919402c",
                "decodedMethod": {
                    "callParams": [
                        {
                            "name": "wad",
                            "type": "uint256",
                            "value": "94,513,462,587,046,838,316"
                        }
                    ],
                    "constructorArguments": "",
                    "name": "withdraw",
                    "returnParams": [],
                    "signature": "withdraw(uint256)"
                },
                "errorInfo": "",
                "fromAddress": "0x6980a47bee930a4584b09ee79ebe46484fbdbdd0",
                "gasUsed": 9290,
                "id": 54,
                "methodDecoded": true,
                "operation": "CALL",
                "output": "",
                "revert": false,
                "revertMessage": "",
                "selector": "0x2e1a7d4d",
                "status": true,
                "value": "0"
            },
            "nodeType": 0
        },
        "55": {
            "invocation": {
                "address": "0x6980a47bee930a4584b09ee79ebe46484fbdbdd0",
                "callData": "0x",
                "decodedMethod": null,
                "errorInfo": "",
                "fromAddress": "0xc02aaa39b223fe8d0a0e5c4f27ead9083c756cc2",
                "gasUsed": 150,
                "id": 55,
                "methodDecoded": false,
                "operation": "CALL",
                "output": "",
                "revert": false,
                "revertMessage": "",
                "selector": "fallback",
                "status": true,
                "value": "94.513462587046838316"
            },
            "nodeType": 0
        },
        "56": {
            "event": {
                "contract": "0xc02aaa39b223fe8d0a0e5c4f27ead9083c756cc2",
                "decodedLog": {
                    "name": "Withdrawal",
                    "params": [
                        {
                            "name": "src",
                            "type": "address",
                            "value": "0x6980a47bee930a4584b09ee79ebe46484fbdbdd0"
                        },
                        {
                            "name": "wad",
                            "type": "uint256",
                            "value": "94,513,462,587,046,838,316"
                        }
                    ],
                    "signature": "Withdrawal(address,uint256)"
                },
                "id": 56,
                "logData": "0x0000000000000000000000000000000000000000000000051fa345781919402c",
                "logDecoded": true,
                "operation": "EVENT",
                "revert": false,
                "status": true,
                "topics": [
                    "0x7fcf532c15f0a6db0bd6d0e038bea71d30d808c7d98cb3bf7268a95bf5081b65",
                    "0x0000000000000000000000006980a47bee930a4584b09ee79ebe46484fbdbdd0"
                ]
            },
            "nodeType": 1
        },
        "57": {
            "invocation": {
                "address": "0xdafea492d9c6733ae3d56b7ed1adb60692c98bc5",
                "callData": "0x",
                "decodedMethod": null,
                "errorInfo": "",
                "fromAddress": "0x6980a47bee930a4584b09ee79ebe46484fbdbdd0",
                "gasUsed": 0,
                "id": 57,
                "methodDecoded": false,
                "operation": "CALL",
                "output": "",
                "revert": false,
                "revertMessage": "",
                "selector": "fallback",
                "status": true,
                "value": "4.923240442287576107"
            },
            "nodeType": 0
        },
        "6": {
            "invocation": {
                "address": "0x7a250d5630b4cf539739df2c5dacb4c659f2488d",
                "callData": "0x0000000000000000000000000000000000000000000000004563918244f40000000000000000000000000000000000000000000000000000000000000000000000000000000000000000000000000000000000000000000000000000000000a00000000000000000000000006980a47bee930a4584b09ee79ebe46484fbdbdd0000000000000000000000000000000000000000000000000000000006570ffbf0000000000000000000000000000000000000000000000000000000000000002000000000000000000000000c02aaa39b223fe8d0a0e5c4f27ead9083c756cc20000000000000000000000004b0e9a7da8bab813efae92a6651019b8bd6c0a29",
                "decodedMethod": {
                    "callParams": [
                        {
                            "name": "amountIn",
                            "type": "uint256",
                            "value": "5,000,000,000,000,000,000"
                        },
                        {
                            "name": "amountOutMin",
                            "type": "uint256",
                            "value": "0"
                        },
                        {
                            "name": "path",
                            "type": "address[]",
                            "value": [
                                "0xc02aaa39b223fe8d0a0e5c4f27ead9083c756cc2",
                                "0x4b0e9a7da8bab813efae92a6651019b8bd6c0a29"
                            ]
                        },
                        {
                            "name": "to",
                            "type": "address",
                            "value": "0x6980a47bee930a4584b09ee79ebe46484fbdbdd0"
                        },
                        {
                            "name": "deadline",
                            "type": "uint256",
                            "value": "1,701,904,319"
                        }
                    ],
                    "constructorArguments": "",
                    "name": "swapExactTokensForTokensSupportingFeeOnTransferTokens",
                    "returnParams": [],
                    "signature": "swapExactTokensForTokensSupportingFeeOnTransferTokens(uint256,uint256,address[],address,uint256)"
                },
                "errorInfo": "",
                "fromAddress": "0x6980a47bee930a4584b09ee79ebe46484fbdbdd0",
                "gasUsed": 96410,
                "id": 6,
                "methodDecoded": true,
                "operation": "CALL",
                "output": "",
                "revert": false,
                "revertMessage": "",
                "selector": "0x5c11d795",
                "status": true,
                "value": "0"
            },
            "nodeType": 0
        },
        "7": {
            "invocation": {
                "address": "0xc02aaa39b223fe8d0a0e5c4f27ead9083c756cc2",
                "callData": "0x0000000000000000000000006980a47bee930a4584b09ee79ebe46484fbdbdd0000000000000000000000000760dc1e043d99394a10605b2fa08f123d60faf840000000000000000000000000000000000000000000000004563918244f40000",
                "decodedMethod": {
                    "callParams": [
                        {
                            "name": "src",
                            "type": "address",
                            "value": "0x6980a47bee930a4584b09ee79ebe46484fbdbdd0"
                        },
                        {
                            "name": "dst",
                            "type": "address",
                            "value": "0x760dc1e043d99394a10605b2fa08f123d60faf84"
                        },
                        {
                            "decimalAvailable": true,
                            "name": "wad",
                            "type": "uint256",
                            "value": "5,000,000,000,000,000,000"
                        }
                    ],
                    "constructorArguments": "",
                    "name": "transferFrom",
                    "returnParams": [
                        {
                            "name": "",
                            "type": "bool",
                            "value": true
                        }
                    ],
                    "signature": "transferFrom(address,address,uint256)"
                },
                "errorInfo": "",
                "fromAddress": "0x7a250d5630b4cf539739df2c5dacb4c659f2488d",
                "gasUsed": 10225,
                "id": 7,
                "methodDecoded": true,
                "operation": "CALL",
                "output": "0x0000000000000000000000000000000000000000000000000000000000000001",
                "revert": false,
                "revertMessage": "",
                "selector": "0x23b872dd",
                "status": true,
                "value": "0"
            },
            "nodeType": 0
        },
        "8": {
            "event": {
                "contract": "0xc02aaa39b223fe8d0a0e5c4f27ead9083c756cc2",
                "decodedLog": {
                    "name": "Transfer",
                    "params": [
                        {
                            "name": "src",
                            "type": "address",
                            "value": "0x6980a47bee930a4584b09ee79ebe46484fbdbdd0"
                        },
                        {
                            "name": "dst",
                            "type": "address",
                            "value": "0x760dc1e043d99394a10605b2fa08f123d60faf84"
                        },
                        {
                            "decimalAvailable": true,
                            "name": "wad",
                            "type": "uint256",
                            "value": "5,000,000,000,000,000,000"
                        }
                    ],
                    "signature": "Transfer(address,address,uint256)"
                },
                "id": 8,
                "logData": "0x0000000000000000000000000000000000000000000000004563918244f40000",
                "logDecoded": true,
                "operation": "EVENT",
                "revert": false,
                "status": true,
                "topics": [
                    "0xddf252ad1be2c89b69c2b068fc378daa952ba7f163c4a11628f55a4df523b3ef",
                    "0x0000000000000000000000006980a47bee930a4584b09ee79ebe46484fbdbdd0",
                    "0x000000000000000000000000760dc1e043d99394a10605b2fa08f123d60faf84"
                ]
            },
            "nodeType": 1
        },
        "9": {
            "invocation": {
                "address": "0x4b0e9a7da8bab813efae92a6651019b8bd6c0a29",
                "callData": "0x0000000000000000000000006980a47bee930a4584b09ee79ebe46484fbdbdd0",
                "decodedMethod": {
                    "callParams": [
                        {
                            "name": "account",
                            "type": "address",
                            "value": "0x6980a47bee930a4584b09ee79ebe46484fbdbdd0"
                        }
                    ],
                    "constructorArguments": "",
                    "name": "balanceOf",
                    "returnParams": [
                        {
                            "decimalAvailable": true,
                            "name": "",
                            "type": "uint256",
                            "value": "0"
                        }
                    ],
                    "signature": "balanceOf(address)"
                },
                "errorInfo": "",
                "fromAddress": "0x7a250d5630b4cf539739df2c5dacb4c659f2488d",
                "gasUsed": 2798,
                "id": 9,
                "methodDecoded": true,
                "operation": "STATICCALL",
                "output": "0x0000000000000000000000000000000000000000000000000000000000000000",
                "revert": false,
                "revertMessage": "",
                "selector": "0x70a08231",
                "status": true,
                "value": "0"
            },
            "nodeType": 0
        }
    },
    "gasFlame": [
        {
            "children": [
                {
                    "children": [
                        {
                            "children": [],
                            "depth": 0,
                            "name": "Initial Gas",
                            "value": 33040
                        },
                        {
                            "children": [
                                {
                                    "children": [
                                        {
                                            "children": [],
                                            "depth": 2,
                                            "name": "approve",
                                            "value": 26969
                                        }
                                    ],
                                    "depth": 1,
                                    "name": "approve",
                                    "value": 29647
                                },
                                {
                                    "children": [],
                                    "depth": 1,
                                    "name": "deposit",
                                    "value": 6874
                                },
                                {
                                    "children": [
                                        {
                                            "children": [],
                                            "depth": 2,
                                            "name": "transferFrom",
                                            "value": 10225
                                        },
                                        {
                                            "children": [
                                                {
                                                    "children": [],
                                                    "depth": 3,
                                                    "name": "balanceOf",
                                                    "value": 2626
                                                }
                                            ],
                                            "depth": 2,
                                            "name": "balanceOf",
                                            "value": 2798
                                        },
                                        {
                                            "children": [],
                                            "depth": 2,
                                            "name": "getReserves",
                                            "value": 2504
                                        },
                                        {
                                            "children": [],
                                            "depth": 2,
                                            "name": "balanceOf",
                                            "value": 534
                                        },
                                        {
                                            "children": [
                                                {
                                                    "children": [
                                                        {
                                                            "children": [],
                                                            "depth": 4,
                                                            "name": "transfer",
                                                            "value": 37026
                                                        }
                                                    ],
                                                    "depth": 3,
                                                    "name": "transfer",
                                                    "value": 37204
                                                },
                                                {
                                                    "children": [
                                                        {
                                                            "children": [],
                                                            "depth": 4,
                                                            "name": "balanceOf",
                                                            "value": 626
                                                        }
                                                    ],
                                                    "depth": 3,
                                                    "name": "balanceOf",
                                                    "value": 798
                                                },
                                                {
                                                    "children": [],
                                                    "depth": 3,
                                                    "name": "balanceOf",
                                                    "value": 534
                                                }
                                            ],
                                            "depth": 2,
                                            "name": "swap",
                                            "value": 69859
                                        },
                                        {
                                            "children": [
                                                {
                                                    "children": [],
                                                    "depth": 3,
                                                    "name": "balanceOf",
                                                    "value": 626
                                                }
                                            ],
                                            "depth": 2,
                                            "name": "balanceOf",
                                            "value": 798
                                        }
                                    ],
                                    "depth": 1,
                                    "name": "swapExactTokensForTokensSupportingFeeOnTransferTokens",
                                    "value": 96410
                                },
                                {
                                    "children": [
                                        {
                                            "children": [],
                                            "depth": 2,
                                            "name": "ecrecover",
                                            "value": 3000
                                        },
                                        {
                                            "children": [
                                                {
                                                    "children": [
                                                        {
                                                            "children": [
                                                                {
                                                                    "children": [],
                                                                    "depth": 5,
                                                                    "name": "burn",
                                                                    "value": 43448
                                                                }
                                                            ],
                                                            "depth": 4,
                                                            "name": "burn",
                                                            "value": 43617
                                                        }
                                                    ],
                                                    "depth": 3,
                                                    "name": "multicall",
                                                    "value": 46236
                                                }
                                            ],
                                            "depth": 2,
                                            "name": "multicall",
                                            "value": 46447
                                        }
                                    ],
                                    "depth": 1,
                                    "name": "execute",
                                    "value": 77668
                                },
                                {
                                    "children": [
                                        {
                                            "children": [
                                                {
                                                    "children": [],
                                                    "depth": 3,
                                                    "name": "balanceOf",
                                                    "value": 626
                                                }
                                            ],
                                            "depth": 2,
                                            "name": "balanceOf",
                                            "value": 798
                                        },
                                        {
                                            "children": [],
                                            "depth": 2,
                                            "name": "balanceOf",
                                            "value": 534
                                        }
                                    ],
                                    "depth": 1,
                                    "name": "sync",
                                    "value": 7850
                                },
                                {
                                    "children": [
                                        {
                                            "children": [
                                                {
                                                    "children": [],
                                                    "depth": 3,
                                                    "name": "transferFrom",
                                                    "value": 6748
                                                }
                                            ],
                                            "depth": 2,
                                            "name": "transferFrom",
                                            "value": 6932
                                        },
                                        {
                                            "children": [],
                                            "depth": 2,
                                            "name": "balanceOf",
                                            "value": 534
                                        },
                                        {
                                            "children": [],
                                            "depth": 2,
                                            "name": "getReserves",
                                            "value": 504
                                        },
                                        {
                                            "children": [
                                                {
                                                    "children": [],
                                                    "depth": 3,
                                                    "name": "balanceOf",
                                                    "value": 626
                                                }
                                            ],
                                            "depth": 2,
                                            "name": "balanceOf",
                                            "value": 798
                                        },
                                        {
                                            "children": [
                                                {
                                                    "children": [],
                                                    "depth": 3,
                                                    "name": "transfer",
                                                    "value": 6062
                                                },
                                                {
                                                    "children": [
                                                        {
                                                            "children": [],
                                                            "depth": 4,
                                                            "name": "balanceOf",
                                                            "value": 626
                                                        }
                                                    ],
                                                    "depth": 3,
                                                    "name": "balanceOf",
                                                    "value": 798
                                                },
                                                {
                                                    "children": [],
                                                    "depth": 3,
                                                    "name": "balanceOf",
                                                    "value": 534
                                                }
                                            ],
                                            "depth": 2,
                                            "name": "swap",
                                            "value": 19501
                                        },
                                        {
                                            "children": [],
                                            "depth": 2,
                                            "name": "balanceOf",
                                            "value": 534
                                        }
                                    ],
                                    "depth": 1,
                                    "name": "swapExactTokensForTokensSupportingFeeOnTransferTokens",
                                    "value": 35945
                                },
                                {
                                    "children": [],
                                    "depth": 1,
                                    "name": "balanceOf",
                                    "value": 534
                                },
                                {
                                    "children": [
                                        {
                                            "children": [],
                                            "depth": 2,
                                            "name": "fallback",
                                            "value": 150
                                        }
                                    ],
                                    "depth": 1,
                                    "name": "withdraw",
                                    "value": 9290
                                },
                                {
                                    "children": [],
                                    "depth": 1,
                                    "name": "fallback",
                                    "value": 0
                                }
                            ],
                            "depth": 0,
                            "name": "Executed Gas",
                            "value": 293391
                        }
                    ],
                    "depth": -1,
                    "name": "Actual Gas Used",
                    "value": 292531
                },
                {
                    "children": [],
                    "depth": -1,
                    "name": "Refunded Gas",
                    "value": 33900
                }
            ],
            "depth": -2,
            "name": "Total Gas",
            "value": 326431
        }
    ],
    "isConfirmed": true,
    "mainTrace": [
        {
            "children": [
                {
                    "children": [
                        {
                            "children": [
                                {
                                    "children": [
                                        {
                                            "children": [],
                                            "depth": 3,
                                            "id": 3,
                                            "order": 3
                                        }
                                    ],
                                    "depth": 2,
                                    "id": 2,
                                    "order": 2
                                }
                            ],
                            "depth": 1,
                            "id": 1,
                            "order": 1
                        },
                        {
                            "children": [
                                {
                                    "children": [],
                                    "depth": 2,
                                    "id": 5,
                                    "order": 5
                                }
                            ],
                            "depth": 1,
                            "id": 4,
                            "order": 4
                        },
                        {
                            "children": [
                                {
                                    "children": [
                                        {
                                            "children": [],
                                            "depth": 3,
                                            "id": 8,
                                            "order": 8
                                        }
                                    ],
                                    "depth": 2,
                                    "id": 7,
                                    "order": 7
                                },
                                {
                                    "children": [
                                        {
                                            "children": [],
                                            "depth": 3,
                                            "id": 10,
                                            "order": 10
                                        }
                                    ],
                                    "depth": 2,
                                    "id": 9,
                                    "order": 9
                                },
                                {
                                    "children": [],
                                    "depth": 2,
                                    "id": 11,
                                    "order": 11
                                },
                                {
                                    "children": [],
                                    "depth": 2,
                                    "id": 12,
                                    "order": 12
                                },
                                {
                                    "children": [
                                        {
                                            "children": [
                                                {
                                                    "children": [
                                                        {
                                                            "children": [],
                                                            "depth": 5,
                                                            "id": 16,
                                                            "order": 16
                                                        }
                                                    ],
                                                    "depth": 4,
                                                    "id": 15,
                                                    "order": 15
                                                }
                                            ],
                                            "depth": 3,
                                            "id": 14,
                                            "order": 14
                                        },
                                        {
                                            "children": [
                                                {
                                                    "children": [],
                                                    "depth": 4,
                                                    "id": 18,
                                                    "order": 18
                                                }
                                            ],
                                            "depth": 3,
                                            "id": 17,
                                            "order": 17
                                        },
                                        {
                                            "children": [],
                                            "depth": 3,
                                            "id": 19,
                                            "order": 19
                                        },
                                        {
                                            "children": [],
                                            "depth": 3,
                                            "id": 20,
                                            "order": 20
                                        },
                                        {
                                            "children": [],
                                            "depth": 3,
                                            "id": 21,
                                            "order": 21
                                        }
                                    ],
                                    "depth": 2,
                                    "id": 13,
                                    "order": 13
                                },
                                {
                                    "children": [
                                        {
                                            "children": [],
                                            "depth": 3,
                                            "id": 23,
                                            "order": 23
                                        }
                                    ],
                                    "depth": 2,
                                    "id": 22,
                                    "order": 22
                                }
                            ],
                            "depth": 1,
                            "id": 6,
                            "order": 6
                        },
                        {
                            "children": [
                                {
                                    "children": [],
                                    "depth": 2,
                                    "id": 25,
                                    "order": 25
                                },
                                {
                                    "children": [
                                        {
                                            "children": [
                                                {
                                                    "children": [
                                                        {
                                                            "children": [
                                                                {
                                                                    "children": [],
                                                                    "depth": 6,
                                                                    "id": 30,
                                                                    "order": 30
                                                                }
                                                            ],
                                                            "depth": 5,
                                                            "id": 29,
                                                            "order": 29
                                                        }
                                                    ],
                                                    "depth": 4,
                                                    "id": 28,
                                                    "order": 28
                                                }
                                            ],
                                            "depth": 3,
                                            "id": 27,
                                            "order": 27
                                        }
                                    ],
                                    "depth": 2,
                                    "id": 26,
                                    "order": 26
                                }
                            ],
                            "depth": 1,
                            "id": 24,
                            "order": 24
                        },
                        {
                            "children": [
                                {
                                    "children": [
                                        {
                                            "children": [],
                                            "depth": 3,
                                            "id": 33,
                                            "order": 33
                                        }
                                    ],
                                    "depth": 2,
                                    "id": 32,
                                    "order": 32
                                },
                                {
                                    "children": [],
                                    "depth": 2,
                                    "id": 34,
                                    "order": 34
                                },
                                {
                                    "children": [],
                                    "depth": 2,
                                    "id": 35,
                                    "order": 35
                                }
                            ],
                            "depth": 1,
                            "id": 31,
                            "order": 31
                        },
                        {
                            "children": [
                                {
                                    "children": [
                                        {
                                            "children": [
                                                {
                                                    "children": [],
                                                    "depth": 4,
                                                    "id": 39,
                                                    "order": 39
                                                }
                                            ],
                                            "depth": 3,
                                            "id": 38,
                                            "order": 38
                                        }
                                    ],
                                    "depth": 2,
                                    "id": 37,
                                    "order": 37
                                },
                                {
                                    "children": [],
                                    "depth": 2,
                                    "id": 40,
                                    "order": 40
                                },
                                {
                                    "children": [],
                                    "depth": 2,
                                    "id": 41,
                                    "order": 41
                                },
                                {
                                    "children": [
                                        {
                                            "children": [],
                                            "depth": 3,
                                            "id": 43,
                                            "order": 43
                                        }
                                    ],
                                    "depth": 2,
                                    "id": 42,
                                    "order": 42
                                },
                                {
                                    "children": [
                                        {
                                            "children": [
                                                {
                                                    "children": [],
                                                    "depth": 4,
                                                    "id": 46,
                                                    "order": 46
                                                }
                                            ],
                                            "depth": 3,
                                            "id": 45,
                                            "order": 45
                                        },
                                        {
                                            "children": [
                                                {
                                                    "children": [],
                                                    "depth": 4,
                                                    "id": 48,
                                                    "order": 48
                                                }
                                            ],
                                            "depth": 3,
                                            "id": 47,
                                            "order": 47
                                        },
                                        {
                                            "children": [],
                                            "depth": 3,
                                            "id": 49,
                                            "order": 49
                                        },
                                        {
                                            "children": [],
                                            "depth": 3,
                                            "id": 50,
                                            "order": 50
                                        },
                                        {
                                            "children": [],
                                            "depth": 3,
                                            "id": 51,
                                            "order": 51
                                        }
                                    ],
                                    "depth": 2,
                                    "id": 44,
                                    "order": 44
                                },
                                {
                                    "children": [],
                                    "depth": 2,
                                    "id": 52,
                                    "order": 52
                                }
                            ],
                            "depth": 1,
                            "id": 36,
                            "order": 36
                        },
                        {
                            "children": [],
                            "depth": 1,
                            "id": 53,
                            "order": 53
                        },
                        {
                            "children": [
                                {
                                    "children": [],
                                    "depth": 2,
                                    "id": 55,
                                    "order": 55
                                },
                                {
                                    "children": [],
                                    "depth": 2,
                                    "id": 56,
                                    "order": 56
                                }
                            ],
                            "depth": 1,
                            "id": 54,
                            "order": 54
                        },
                        {
                            "children": [],
                            "depth": 1,
                            "id": 57,
                            "order": 57
                        }
                    ],
                    "depth": 0,
                    "id": 0,
                    "order": 0
                }
            ],
            "depth": -1,
            "id": -1,
            "order": -1
        }
    ],
    "mainTraceNodeCount": 58,
    "parentIdMap": {
        "0": -1,
        "1": 0,
        "10": 9,
        "11": 6,
        "12": 6,
        "13": 6,
        "14": 13,
        "15": 14,
        "16": 15,
        "17": 13,
        "18": 17,
        "19": 13,
        "2": 1,
        "20": 13,
        "21": 13,
        "22": 6,
        "23": 22,
        "24": 0,
        "25": 24,
        "26": 24,
        "27": 26,
        "28": 27,
        "29": 28,
        "3": 2,
        "30": 29,
        "31": 0,
        "32": 31,
        "33": 32,
        "34": 31,
        "35": 31,
        "36": 0,
        "37": 36,
        "38": 37,
        "39": 38,
        "4": 0,
        "40": 36,
        "41": 36,
        "42": 36,
        "43": 42,
        "44": 36,
        "45": 44,
        "46": 45,
        "47": 44,
        "48": 47,
        "49": 44,
        "5": 4,
        "50": 44,
        "51": 44,
        "52": 36,
        "53": 0,
        "54": 0,
        "55": 54,
        "56": 54,
        "57": 0,
        "6": 0,
        "7": 6,
        "8": 7,
        "9": 6
    },
    "tidyTrace": [
        {
            "children": [
                {
                    "children": [
                        {
                            "children": [
                                {
                                    "children": [
                                        {
                                            "children": [],
                                            "depth": 3,
                                            "id": 3,
                                            "order": 3
                                        }
                                    ],
                                    "depth": 2,
                                    "id": 2,
                                    "order": 2
                                }
                            ],
                            "depth": 1,
                            "id": 1,
                            "order": 1
                        },
                        {
                            "children": [
                                {
                                    "children": [],
                                    "depth": 2,
                                    "id": 5,
                                    "order": 5
                                }
                            ],
                            "depth": 1,
                            "id": 4,
                            "order": 4
                        },
                        {
                            "children": [
                                {
                                    "children": [
                                        {
                                            "children": [],
                                            "depth": 3,
                                            "id": 8,
                                            "order": 8
                                        }
                                    ],
                                    "depth": 2,
                                    "id": 7,
                                    "order": 7
                                },
                                {
                                    "children": [
                                        {
                                            "children": [
                                                {
                                                    "children": [
                                                        {
                                                            "children": [],
                                                            "depth": 5,
                                                            "id": 16,
                                                            "order": 16
                                                        }
                                                    ],
                                                    "depth": 4,
                                                    "id": 15,
                                                    "order": 15
                                                }
                                            ],
                                            "depth": 3,
                                            "id": 14,
                                            "order": 14
                                        },
                                        {
                                            "children": [],
                                            "depth": 3,
                                            "id": 20,
                                            "order": 20
                                        },
                                        {
                                            "children": [],
                                            "depth": 3,
                                            "id": 21,
                                            "order": 21
                                        }
                                    ],
                                    "depth": 2,
                                    "id": 13,
                                    "order": 13
                                }
                            ],
                            "depth": 1,
                            "id": 6,
                            "order": 6
                        },
                        {
                            "children": [
                                {
                                    "children": [
                                        {
                                            "children": [
                                                {
                                                    "children": [
                                                        {
                                                            "children": [
                                                                {
                                                                    "children": [],
                                                                    "depth": 6,
                                                                    "id": 30,
                                                                    "order": 30
                                                                }
                                                            ],
                                                            "depth": 5,
                                                            "id": 29,
                                                            "order": 29
                                                        }
                                                    ],
                                                    "depth": 4,
                                                    "id": 28,
                                                    "order": 28
                                                }
                                            ],
                                            "depth": 3,
                                            "id": 27,
                                            "order": 27
                                        }
                                    ],
                                    "depth": 2,
                                    "id": 26,
                                    "order": 26
                                }
                            ],
                            "depth": 1,
                            "id": 24,
                            "order": 24
                        },
                        {
                            "children": [
                                {
                                    "children": [],
                                    "depth": 2,
                                    "id": 35,
                                    "order": 35
                                }
                            ],
                            "depth": 1,
                            "id": 31,
                            "order": 31
                        },
                        {
                            "children": [
                                {
                                    "children": [
                                        {
                                            "children": [
                                                {
                                                    "children": [],
                                                    "depth": 4,
                                                    "id": 39,
                                                    "order": 39
                                                }
                                            ],
                                            "depth": 3,
                                            "id": 38,
                                            "order": 38
                                        }
                                    ],
                                    "depth": 2,
                                    "id": 37,
                                    "order": 37
                                },
                                {
                                    "children": [
                                        {
                                            "children": [
                                                {
                                                    "children": [],
                                                    "depth": 4,
                                                    "id": 46,
                                                    "order": 46
                                                }
                                            ],
                                            "depth": 3,
                                            "id": 45,
                                            "order": 45
                                        },
                                        {
                                            "children": [],
                                            "depth": 3,
                                            "id": 50,
                                            "order": 50
                                        },
                                        {
                                            "children": [],
                                            "depth": 3,
                                            "id": 51,
                                            "order": 51
                                        }
                                    ],
                                    "depth": 2,
                                    "id": 44,
                                    "order": 44
                                }
                            ],
                            "depth": 1,
                            "id": 36,
                            "order": 36
                        },
                        {
                            "children": [
                                {
                                    "children": [],
                                    "depth": 2,
                                    "id": 55,
                                    "order": 55
                                },
                                {
                                    "children": [],
                                    "depth": 2,
                                    "id": 56,
                                    "order": 56
                                }
                            ],
                            "depth": 1,
                            "id": 54,
                            "order": 54
                        },
                        {
                            "children": [],
                            "depth": 1,
                            "id": 57,
                            "order": 57
                        }
                    ],
                    "depth": 0,
                    "id": 0,
                    "order": 0
                }
            ],
            "depth": -1,
            "id": -1,
            "order": -1
        }
    ],
    "tidyTraceNodeCount": 36
}