{
    "accountLabels": null,
    "dataMap": {
        "-1": {
            "invocation": {
                "address": "0xa8c83b1b30291a3a1a118058b5445cc83041cd9d",
                "callData": "",
                "decodedMethod": null,
                "errorInfo": "",
                "fromAddress": "",
                "gasUsed": 0,
                "id": -1,
                "methodDecoded": false,
                "operation": "",
                "output": "",
                "revert": false,
                "revertMessage": "",
                "selector": "",
                "status": false,
                "value": ""
            },
            "nodeType": 0
        },
        "0": {
            "invocation": {
                "address": "0x88a69b4e698a4b090df6cf5bd7b2d47325ad30a3",
                "callData": "0x0000000000000000000000002260fac5e5542a773aa44fbcfedf7c193bc2c59900000000000000000000000000000000000000000000000000000000000f4240000000000000000000000000000000000000000000000000000000006265616d000000000000000000000000a8c83b1b30291a3a1a118058b5445cc83041cd9d0000000000000000000000000000000000000000000000000000000000000000",
                "decodedMethod": {
                    "callParams": [
                        {
                            "name": "_token",
                            "type": "address",
                            "value": "0x2260fac5e5542a773aa44fbcfedf7c193bc2c599"
                        },
                        {
                            "name": "_amount",
                            "type": "uint256",
                            "value": "1,000,000"
                        },
                        {
                            "name": "_destination",
                            "type": "uint32",
                            "value": "1,650,811,245"
                        },
                        {
                            "name": "_recipient",
                            "type": "bytes32",
                            "value": "0x000000000000000000000000a8c83b1b30291a3a1a118058b5445cc83041cd9d"
                        },
                        {
                            "name": "",
                            "type": "bool",
                            "value": false
                        }
                    ],
                    "constructorArguments": "",
                    "name": "send",
                    "returnParams": [],
                    "signature": "send(address,uint256,uint32,bytes32,bool)"
                },
                "errorInfo": "",
                "fromAddress": "0xa8c83b1b30291a3a1a118058b5445cc83041cd9d",
                "gasUsed": 244879,
                "id": 0,
                "methodDecoded": true,
                "operation": "CALL",
                "output": "",
                "revert": false,
                "revertMessage": "",
                "selector": "0xa9bd1226",
                "status": true,
                "value": "0"
            },
            "nodeType": 0
        },
        "1": {
            "invocation": {
                "address": "0xb70588b1a51f847d13158ff18e9cac861df5fb00",
                "callData": "0x",
                "decodedMethod": null,
                "errorInfo": "",
                "fromAddress": "0x88a69b4e698a4b090df6cf5bd7b2d47325ad30a3",
                "gasUsed": 2160,
                "id": 1,
                "methodDecoded": false,
                "operation": "STATICCALL",
                "output": "0x00000000000000000000000015fda9f60310d09fea54e3c99d1197dff5107248",
                "revert": false,
                "revertMessage": "",
                "selector": "fallback",
                "status": true,
                "value": "0"
            },
            "nodeType": 0
        },
        "10": {
            "invocation": {
                "address": "0x2260fac5e5542a773aa44fbcfedf7c193bc2c599",
                "callData": "0x",
                "decodedMethod": {
                    "callParams": [],
                    "constructorArguments": "",
                    "name": "decimals",
                    "returnParams": [
                        {
                            "name": "",
                            "type": "uint8",
                            "value": "8"
                        }
                    ],
                    "signature": "decimals()"
                },
                "errorInfo": "",
                "fromAddress": "0x88a69b4e698a4b090df6cf5bd7b2d47325ad30a3",
                "gasUsed": 431,
                "id": 10,
                "methodDecoded": true,
                "operation": "STATICCALL",
                "output": "0x0000000000000000000000000000000000000000000000000000000000000008",
                "revert": false,
                "revertMessage": "",
                "selector": "0x313ce567",
                "status": true,
                "value": "0"
            },
            "nodeType": 0
        },
        "11": {
            "invocation": {
                "address": "0x0a6f564c5c9bebd66f1595f1b51d1f3de6ef3b79",
                "callData": "0x0000000000000000000000002260fac5e5542a773aa44fbcfedf7c193bc2c599",
                "decodedMethod": {
                    "callParams": [
                        {
                            "name": "_account",
                            "type": "address",
                            "value": "0x2260fac5e5542a773aa44fbcfedf7c193bc2c599"
                        }
                    ],
                    "constructorArguments": "",
                    "name": "getTokenId",
                    "returnParams": [
                        {
                            "name": "",
                            "type": "uint256",
                            "value": "6,648,936"
                        }
                    ],
                    "signature": "getTokenId(address)"
                },
                "errorInfo": "",
                "fromAddress": "0x88a69b4e698a4b090df6cf5bd7b2d47325ad30a3",
                "gasUsed": 22070,
                "id": 11,
                "methodDecoded": true,
                "operation": "STATICCALL",
                "output": "0x00000000000000000000000000000000000000000000000000000000006574680000000000000000000000002260fac5e5542a773aa44fbcfedf7c193bc2c599",
                "revert": false,
                "revertMessage": "",
                "selector": "0xf1537686",
                "status": true,
                "value": "0"
            },
            "nodeType": 0
        },
        "12": {
            "invocation": {
                "address": "0x4d5ff8a01ed833e11aba43821d2881a5f2911f98",
                "callData": "0x",
                "decodedMethod": null,
                "errorInfo": "",
                "fromAddress": "0x0a6f564c5c9bebd66f1595f1b51d1f3de6ef3b79",
                "gasUsed": 160,
                "id": 12,
                "methodDecoded": false,
                "operation": "STATICCALL",
                "output": "0x000000000000000000000000c1fae48ae1225fce8698503d5bb1378db5ce14f6",
                "revert": false,
                "revertMessage": "",
                "selector": "fallback",
                "status": true,
                "value": "0"
            },
            "nodeType": 0
        },
        "13": {
            "invocation": {
                "address": "0xc1fae48ae1225fce8698503d5bb1378db5ce14f6",
                "callData": "0x0000000000000000000000002260fac5e5542a773aa44fbcfedf7c193bc2c599",
                "decodedMethod": {
                    "callParams": [
                        {
                            "name": "_local",
                            "type": "address",
                            "value": "0x2260fac5e5542a773aa44fbcfedf7c193bc2c599"
                        }
                    ],
                    "constructorArguments": "",
                    "name": "getTokenId",
                    "returnParams": [
                        {
                            "name": "_domain",
                            "type": "uint32",
                            "value": "6,648,936"
                        },
                        {
                            "name": "_id",
                            "type": "bytes32",
                            "value": "0x0000000000000000000000002260fac5e5542a773aa44fbcfedf7c193bc2c599"
                        }
                    ],
                    "signature": "getTokenId(address)"
                },
                "errorInfo": "",
                "fromAddress": "0x0a6f564c5c9bebd66f1595f1b51d1f3de6ef3b79",
                "gasUsed": 21242,
                "id": 13,
                "methodDecoded": true,
                "operation": "DELEGATECALL",
                "output": "0x00000000000000000000000000000000000000000000000000000000006574680000000000000000000000002260fac5e5542a773aa44fbcfedf7c193bc2c599",
                "revert": false,
                "revertMessage": "",
                "selector": "0xf1537686",
                "status": true,
                "value": "0"
            },
            "nodeType": 0
        },
        "14": {
            "invocation": {
                "address": "0xfe8874778f946ac2990a29eba3cfd50760593b2f",
                "callData": "0x",
                "decodedMethod": {
                    "callParams": [],
                    "constructorArguments": "",
                    "name": "localDomain",
                    "returnParams": [
                        {
                            "name": "",
                            "type": "uint32",
                            "value": "6,648,936"
                        }
                    ],
                    "signature": "localDomain()"
                },
                "errorInfo": "",
                "fromAddress": "0x0a6f564c5c9bebd66f1595f1b51d1f3de6ef3b79",
                "gasUsed": 13388,
                "id": 14,
                "methodDecoded": true,
                "operation": "STATICCALL",
                "output": "0x0000000000000000000000000000000000000000000000000000000000657468",
                "revert": false,
                "revertMessage": "",
                "selector": "0x8d3638f4",
                "status": true,
                "value": "0"
            },
            "nodeType": 0
        },
        "15": {
            "invocation": {
                "address": "0x92d3404a7e6c91455bbd81475cd9fad96acff4c8",
                "callData": "0x",
                "decodedMethod": {
                    "callParams": [],
                    "constructorArguments": "",
                    "name": "localDomain",
                    "returnParams": [
                        {
                            "name": "",
                            "type": "uint32",
                            "value": "6,648,936"
                        }
                    ],
                    "signature": "localDomain()"
                },
                "errorInfo": "",
                "fromAddress": "0xfe8874778f946ac2990a29eba3cfd50760593b2f",
                "gasUsed": 8119,
                "id": 15,
                "methodDecoded": true,
                "operation": "STATICCALL",
                "output": "0x0000000000000000000000000000000000000000000000000000000000657468",
                "revert": false,
                "revertMessage": "",
                "selector": "0x8d3638f4",
                "status": true,
                "value": "0"
            },
            "nodeType": 0
        },
        "16": {
            "invocation": {
                "address": "0x063e871f8db991cead34b557a00b157b360084cc",
                "callData": "0x",
                "decodedMethod": null,
                "errorInfo": "",
                "fromAddress": "0x92d3404a7e6c91455bbd81475cd9fad96acff4c8",
                "gasUsed": 2160,
                "id": 16,
                "methodDecoded": false,
                "operation": "STATICCALL",
                "output": "0x0000000000000000000000001f98fdc4d8d0806eb3902d57df7a2183b333b80c",
                "revert": false,
                "revertMessage": "",
                "selector": "fallback",
                "status": true,
                "value": "0"
            },
            "nodeType": 0
        },
        "17": {
            "invocation": {
                "address": "0x1f98fdc4d8d0806eb3902d57df7a2183b333b80c",
                "callData": "0x",
                "decodedMethod": {
                    "callParams": [],
                    "constructorArguments": "",
                    "name": "localDomain",
                    "returnParams": [
                        {
                            "name": "",
                            "type": "uint32",
                            "value": "6,648,936"
                        }
                    ],
                    "signature": "localDomain()"
                },
                "errorInfo": "",
                "fromAddress": "0x92d3404a7e6c91455bbd81475cd9fad96acff4c8",
                "gasUsed": 297,
                "id": 17,
                "methodDecoded": true,
                "operation": "DELEGATECALL",
                "output": "0x0000000000000000000000000000000000000000000000000000000000657468",
                "revert": false,
                "revertMessage": "",
                "selector": "0x8d3638f4",
                "status": true,
                "value": "0"
            },
            "nodeType": 0
        },
        "18": {
            "invocation": {
                "address": "0xfe8874778f946ac2990a29eba3cfd50760593b2f",
                "callData": "0x",
                "decodedMethod": {
                    "callParams": [],
                    "constructorArguments": "",
                    "name": "home",
                    "returnParams": [
                        {
                            "name": "",
                            "type": "address",
                            "value": "0x92d3404a7e6c91455bbd81475cd9fad96acff4c8"
                        }
                    ],
                    "signature": "home()"
                },
                "errorInfo": "",
                "fromAddress": "0x88a69b4e698a4b090df6cf5bd7b2d47325ad30a3",
                "gasUsed": 380,
                "id": 18,
                "methodDecoded": true,
                "operation": "STATICCALL",
                "output": "0x00000000000000000000000092d3404a7e6c91455bbd81475cd9fad96acff4c8",
                "revert": false,
                "revertMessage": "",
                "selector": "0x9fa92f9d",
                "status": true,
                "value": "0"
            },
            "nodeType": 0
        },
        "19": {
            "invocation": {
                "address": "0x0000000000000000000000000000000000000004",
                "callData": "0x0000000000000000000000002260fac5e5542a773aa44fbcfedf7c193bc2c599",
                "decodedMethod": {
                    "callParams": [
                        {
                            "name": "data",
                            "type": "bytes",
                            "value": "0x006574680000000000000000000000002260fac5e5542a773aa44fbcfedf7c193bc2c599"
                        }
                    ],
                    "constructorArguments": "",
                    "name": "dataCopy()",
                    "returnParams": [
                        {
                            "name": "data",
                            "type": "bytes",
                            "value": "0x006574680000000000000000000000002260fac5e5542a773aa44fbcfedf7c193bc2c599"
                        }
                    ],
                    "signature": "dataCopy(bytes)"
                },
                "errorInfo": "",
                "fromAddress": "0x88a69b4e698a4b090df6cf5bd7b2d47325ad30a3",
                "gasUsed": 21,
                "id": 19,
                "methodDecoded": true,
                "operation": "STATICCALL",
                "output": "0x006574680000000000000000000000002260fac5e5542a773aa44fbcfedf7c193bc2c599",
                "revert": false,
                "revertMessage": "",
                "selector": "0x00657468",
                "status": true,
                "value": "0"
            },
            "nodeType": 0
        },
        "2": {
            "invocation": {
                "address": "0x15fda9f60310d09fea54e3c99d1197dff5107248",
                "callData": "0x0000000000000000000000002260fac5e5542a773aa44fbcfedf7c193bc2c59900000000000000000000000000000000000000000000000000000000000f4240000000000000000000000000000000000000000000000000000000006265616d000000000000000000000000a8c83b1b30291a3a1a118058b5445cc83041cd9d0000000000000000000000000000000000000000000000000000000000000000",
                "decodedMethod": {
                    "callParams": [
                        {
                            "name": "_token",
                            "type": "address",
                            "value": "0x2260fac5e5542a773aa44fbcfedf7c193bc2c599"
                        },
                        {
                            "name": "_amount",
                            "type": "uint256",
                            "value": "1,000,000"
                        },
                        {
                            "name": "_destination",
                            "type": "uint32",
                            "value": "1,650,811,245"
                        },
                        {
                            "name": "_recipient",
                            "type": "bytes32",
                            "value": "0x000000000000000000000000a8c83b1b30291a3a1a118058b5445cc83041cd9d"
                        },
                        {
                            "name": "",
                            "type": "bool",
                            "value": false
                        }
                    ],
                    "constructorArguments": "",
                    "name": "send",
                    "returnParams": [],
                    "signature": "send(address,uint256,uint32,bytes32,bool)"
                },
                "errorInfo": "",
                "fromAddress": "0x88a69b4e698a4b090df6cf5bd7b2d47325ad30a3",
                "gasUsed": 219577,
                "id": 2,
                "methodDecoded": true,
                "operation": "DELEGATECALL",
                "output": "",
                "revert": false,
                "revertMessage": "",
                "selector": "0xa9bd1226",
                "status": true,
                "value": "0"
            },
            "nodeType": 0
        },
        "20": {
            "invocation": {
                "address": "0x0000000000000000000000000000000000000004",
                "callData": "0x000000000000000000a8c83b1b30291a3a1a118058b5445cc83041cd9d00000000000000000000000000000000000000000000000000000000000f4240e6e85ded018819209cfb948d074cb65de145734b5b0852e4a5db25cac2b8c39a",
                "decodedMethod": {
                    "callParams": [
                        {
                            "name": "data",
                            "type": "bytes",
                            "value": "0x03000000000000000000000000a8c83b1b30291a3a1a118058b5445cc83041cd9d00000000000000000000000000000000000000000000000000000000000f4240e6e85ded018819209cfb948d074cb65de145734b5b0852e4a5db25cac2b8c39a"
                        }
                    ],
                    "constructorArguments": "",
                    "name": "dataCopy()",
                    "returnParams": [
                        {
                            "name": "data",
                            "type": "bytes",
                            "value": "0x03000000000000000000000000a8c83b1b30291a3a1a118058b5445cc83041cd9d00000000000000000000000000000000000000000000000000000000000f4240e6e85ded018819209cfb948d074cb65de145734b5b0852e4a5db25cac2b8c39a"
                        }
                    ],
                    "signature": "dataCopy(bytes)"
                },
                "errorInfo": "",
                "fromAddress": "0x88a69b4e698a4b090df6cf5bd7b2d47325ad30a3",
                "gasUsed": 27,
                "id": 20,
                "methodDecoded": true,
                "operation": "STATICCALL",
                "output": "0x03000000000000000000000000a8c83b1b30291a3a1a118058b5445cc83041cd9d00000000000000000000000000000000000000000000000000000000000f4240e6e85ded018819209cfb948d074cb65de145734b5b0852e4a5db25cac2b8c39a",
                "revert": false,
                "revertMessage": "",
                "selector": "0x03000000",
                "status": true,
                "value": "0"
            },
            "nodeType": 0
        },
        "21": {
            "invocation": {
                "address": "0x92d3404a7e6c91455bbd81475cd9fad96acff4c8",
                "callData": "0x000000000000000000000000000000000000000000000000000000006265616d000000000000000000000000d3dfd3ede74e0dcebc1aa685e151332857efce2d00000000000000000000000000000000000000000000000000000000000000600000000000000000000000000000000000000000000000000000000000000085006574680000000000000000000000002260fac5e5542a773aa44fbcfedf7c193bc2c59903000000000000000000000000a8c83b1b30291a3a1a118058b5445cc83041cd9d00000000000000000000000000000000000000000000000000000000000f4240e6e85ded018819209cfb948d074cb65de145734b5b0852e4a5db25cac2b8c39a000000000000000000000000000000000000000000000000000000",
                "decodedMethod": {
                    "callParams": [
                        {
                            "name": "_destinationDomain",
                            "type": "uint32",
                            "value": "1,650,811,245"
                        },
                        {
                            "name": "_recipientAddress",
                            "type": "bytes32",
                            "value": "0x000000000000000000000000d3dfd3ede74e0dcebc1aa685e151332857efce2d"
                        },
                        {
                            "name": "_messageBody",
                            "type": "bytes",
                            "value": "0x006574680000000000000000000000002260fac5e5542a773aa44fbcfedf7c193bc2c59903000000000000000000000000a8c83b1b30291a3a1a118058b5445cc83041cd9d00000000000000000000000000000000000000000000000000000000000f4240e6e85ded018819209cfb948d074cb65de145734b5b0852e4a5db25cac2b8c39a"
                        }
                    ],
                    "constructorArguments": "",
                    "name": "dispatch",
                    "returnParams": [],
                    "signature": "dispatch(uint32,bytes32,bytes)"
                },
                "errorInfo": "",
                "fromAddress": "0x88a69b4e698a4b090df6cf5bd7b2d47325ad30a3",
                "gasUsed": 131770,
                "id": 21,
                "methodDecoded": true,
                "operation": "CALL",
                "output": "",
                "revert": false,
                "revertMessage": "",
                "selector": "0xfa31de01",
                "status": true,
                "value": "0"
            },
            "nodeType": 0
        },
        "22": {
            "invocation": {
                "address": "0x063e871f8db991cead34b557a00b157b360084cc",
                "callData": "0x",
                "decodedMethod": null,
                "errorInfo": "",
                "fromAddress": "0x92d3404a7e6c91455bbd81475cd9fad96acff4c8",
                "gasUsed": 160,
                "id": 22,
                "methodDecoded": false,
                "operation": "STATICCALL",
                "output": "0x0000000000000000000000001f98fdc4d8d0806eb3902d57df7a2183b333b80c",
                "revert": false,
                "revertMessage": "",
                "selector": "fallback",
                "status": true,
                "value": "0"
            },
            "nodeType": 0
        },
        "23": {
            "invocation": {
                "address": "0x1f98fdc4d8d0806eb3902d57df7a2183b333b80c",
                "callData": "0x000000000000000000000000000000000000000000000000000000006265616d000000000000000000000000d3dfd3ede74e0dcebc1aa685e151332857efce2d00000000000000000000000000000000000000000000000000000000000000600000000000000000000000000000000000000000000000000000000000000085006574680000000000000000000000002260fac5e5542a773aa44fbcfedf7c193bc2c59903000000000000000000000000a8c83b1b30291a3a1a118058b5445cc83041cd9d00000000000000000000000000000000000000000000000000000000000f4240e6e85ded018819209cfb948d074cb65de145734b5b0852e4a5db25cac2b8c39a000000000000000000000000000000000000000000000000000000",
                "decodedMethod": {
                    "callParams": [
                        {
                            "name": "_destinationDomain",
                            "type": "uint32",
                            "value": "1,650,811,245"
                        },
                        {
                            "name": "_recipientAddress",
                            "type": "bytes32",
                            "value": "0x000000000000000000000000d3dfd3ede74e0dcebc1aa685e151332857efce2d"
                        },
                        {
                            "name": "_messageBody",
                            "type": "bytes",
                            "value": "0x006574680000000000000000000000002260fac5e5542a773aa44fbcfedf7c193bc2c59903000000000000000000000000a8c83b1b30291a3a1a118058b5445cc83041cd9d00000000000000000000000000000000000000000000000000000000000f4240e6e85ded018819209cfb948d074cb65de145734b5b0852e4a5db25cac2b8c39a"
                        }
                    ],
                    "constructorArguments": "",
                    "name": "dispatch",
                    "returnParams": [],
                    "signature": "dispatch(uint32,bytes32,bytes)"
                },
                "errorInfo": "",
                "fromAddress": "0x92d3404a7e6c91455bbd81475cd9fad96acff4c8",
                "gasUsed": 130912,
                "id": 23,
                "methodDecoded": true,
                "operation": "DELEGATECALL",
                "output": "",
                "revert": false,
                "revertMessage": "",
                "selector": "0xfa31de01",
                "status": true,
                "value": "0"
            },
            "nodeType": 0
        },
        "24": {
            "event": {
                "contract": "0x92d3404a7e6c91455bbd81475cd9fad96acff4c8",
                "decodedLog": {
                    "name": "Dispatch",
                    "params": [
                        {
                            "name": "messageHash",
                            "type": "bytes32",
                            "value": "0xc740c34510e41895f130df2b5216f1670815e55850d011cf840bb1df19be3f2e"
                        },
                        {
                            "name": "leafIndex",
                            "type": "uint256",
                            "value": "19,980"
                        },
                        {
                            "name": "destinationAndNonce",
                            "type": "uint64",
                            "value": "7,090,180,309,144,054,835"
                        },
                        {
                            "name": "committedRoot",
                            "type": "bytes32",
                            "value": "0x95dc83f421272453f8e28f5b11f51459f5c6ae4977b11e8ae3c07596a3470e58"
                        },
                        {
                            "name": "message",
                            "type": "bytes",
                            "value": "0x0065746800000000000000000000000088a69b4e698a4b090df6cf5bd7b2d47325ad30a300002c336265616d000000000000000000000000d3dfd3ede74e0dcebc1aa685e151332857efce2d006574680000000000000000000000002260fac5e5542a773aa44fbcfedf7c193bc2c59903000000000000000000000000a8c83b1b30291a3a1a118058b5445cc83041cd9d00000000000000000000000000000000000000000000000000000000000f4240e6e85ded018819209cfb948d074cb65de145734b5b0852e4a5db25cac2b8c39a"
                        }
                    ],
                    "signature": "Dispatch(bytes32,uint256,uint64,bytes32,bytes)"
                },
                "id": 24,
                "logData": "0x95dc83f421272453f8e28f5b11f51459f5c6ae4977b11e8ae3c07596a3470e58000000000000000000000000000000000000000000000000000000000000004000000000000000000000000000000000000000000000000000000000000000d10065746800000000000000000000000088a69b4e698a4b090df6cf5bd7b2d47325ad30a300002c336265616d000000000000000000000000d3dfd3ede74e0dcebc1aa685e151332857efce2d006574680000000000000000000000002260fac5e5542a773aa44fbcfedf7c193bc2c59903000000000000000000000000a8c83b1b30291a3a1a118058b5445cc83041cd9d00000000000000000000000000000000000000000000000000000000000f4240e6e85ded018819209cfb948d074cb65de145734b5b0852e4a5db25cac2b8c39a000000000000000000000000000000",
                "logDecoded": true,
                "operation": "EVENT",
                "revert": false,
                "status": true,
                "topics": [
                    "0x9d4c83d2e57d7d381feb264b44a5015e7f9ef26340f4fc46b558a6dc16dd811a",
                    "0xc740c34510e41895f130df2b5216f1670815e55850d011cf840bb1df19be3f2e",
                    "0x0000000000000000000000000000000000000000000000000000000000004e0c",
                    "0x0000000000000000000000000000000000000000000000006265616d00002c33"
                ]
            },
            "nodeType": 1
        },
        "25": {
            "event": {
                "contract": "0x88a69b4e698a4b090df6cf5bd7b2d47325ad30a3",
                "decodedLog": {
                    "name": "Send",
                    "params": [
                        {
                            "name": "token",
                            "type": "address",
                            "value": "0x2260fac5e5542a773aa44fbcfedf7c193bc2c599"
                        },
                        {
                            "name": "from",
                            "type": "address",
                            "value": "0xa8c83b1b30291a3a1a118058b5445cc83041cd9d"
                        },
                        {
                            "name": "toDomain",
                            "type": "uint32",
                            "value": "1,650,811,245"
                        },
                        {
                            "name": "toId",
                            "type": "bytes32",
                            "value": "0x000000000000000000000000a8c83b1b30291a3a1a118058b5445cc83041cd9d"
                        },
                        {
                            "name": "amount",
                            "type": "uint256",
                            "value": "1,000,000"
                        },
                        {
                            "name": "toHook",
                            "type": "bool",
                            "value": false
                        }
                    ],
                    "signature": "Send(address,address,uint32,bytes32,uint256,bool)"
                },
                "id": 25,
                "logData": "0x000000000000000000000000a8c83b1b30291a3a1a118058b5445cc83041cd9d00000000000000000000000000000000000000000000000000000000000f42400000000000000000000000000000000000000000000000000000000000000000",
                "logDecoded": true,
                "operation": "EVENT",
                "revert": false,
                "status": true,
                "topics": [
                    "0xa3d219cf126a12be40d7ad1ceef46231c987988dd4e686457b610e1b6b80a4bf",
                    "0x0000000000000000000000002260fac5e5542a773aa44fbcfedf7c193bc2c599",
                    "0x000000000000000000000000a8c83b1b30291a3a1a118058b5445cc83041cd9d",
                    "0x000000000000000000000000000000000000000000000000000000006265616d"
                ]
            },
            "nodeType": 1
        },
        "3": {
            "invocation": {
                "address": "0x0a6f564c5c9bebd66f1595f1b51d1f3de6ef3b79",
                "callData": "0x0000000000000000000000002260fac5e5542a773aa44fbcfedf7c193bc2c599",
                "decodedMethod": {
                    "callParams": [
                        {
                            "name": "_token",
                            "type": "address",
                            "value": "0x2260fac5e5542a773aa44fbcfedf7c193bc2c599"
                        }
                    ],
                    "constructorArguments": "",
                    "name": "isLocalOrigin",
                    "returnParams": [
                        {
                            "name": "",
                            "type": "bool",
                            "value": true
                        }
                    ],
                    "signature": "isLocalOrigin(address)"
                },
                "errorInfo": "",
                "fromAddress": "0x88a69b4e698a4b090df6cf5bd7b2d47325ad30a3",
                "gasUsed": 12981,
                "id": 3,
                "methodDecoded": true,
                "operation": "STATICCALL",
                "output": "0x0000000000000000000000000000000000000000000000000000000000000001",
                "revert": false,
                "revertMessage": "",
                "selector": "0xc86415cb",
                "status": true,
                "value": "0"
            },
            "nodeType": 0
        },
        "4": {
            "invocation": {
                "address": "0x4d5ff8a01ed833e11aba43821d2881a5f2911f98",
                "callData": "0x",
                "decodedMethod": null,
                "errorInfo": "",
                "fromAddress": "0x0a6f564c5c9bebd66f1595f1b51d1f3de6ef3b79",
                "gasUsed": 2160,
                "id": 4,
                "methodDecoded": false,
                "operation": "STATICCALL",
                "output": "0x000000000000000000000000c1fae48ae1225fce8698503d5bb1378db5ce14f6",
                "revert": false,
                "revertMessage": "",
                "selector": "fallback",
                "status": true,
                "value": "0"
            },
            "nodeType": 0
        },
        "5": {
            "invocation": {
                "address": "0xc1fae48ae1225fce8698503d5bb1378db5ce14f6",
                "callData": "0x0000000000000000000000002260fac5e5542a773aa44fbcfedf7c193bc2c599",
                "decodedMethod": {
                    "callParams": [
                        {
                            "name": "_token",
                            "type": "address",
                            "value": "0x2260fac5e5542a773aa44fbcfedf7c193bc2c599"
                        }
                    ],
                    "constructorArguments": "",
                    "name": "isLocalOrigin",
                    "returnParams": [
                        {
                            "name": "",
                            "type": "bool",
                            "value": true
                        }
                    ],
                    "signature": "isLocalOrigin(address)"
                },
                "errorInfo": "",
                "fromAddress": "0x0a6f564c5c9bebd66f1595f1b51d1f3de6ef3b79",
                "gasUsed": 5156,
                "id": 5,
                "methodDecoded": true,
                "operation": "DELEGATECALL",
                "output": "0x0000000000000000000000000000000000000000000000000000000000000001",
                "revert": false,
                "revertMessage": "",
                "selector": "0xc86415cb",
                "status": true,
                "value": "0"
            },
            "nodeType": 0
        },
        "6": {
            "invocation": {
                "address": "0x2260fac5e5542a773aa44fbcfedf7c193bc2c599",
                "callData": "0x000000000000000000000000a8c83b1b30291a3a1a118058b5445cc83041cd9d00000000000000000000000088a69b4e698a4b090df6cf5bd7b2d47325ad30a300000000000000000000000000000000000000000000000000000000000f4240",
                "decodedMethod": {
                    "callParams": [
                        {
                            "name": "_from",
                            "type": "address",
                            "value": "0xa8c83b1b30291a3a1a118058b5445cc83041cd9d"
                        },
                        {
                            "name": "_to",
                            "type": "address",
                            "value": "0x88a69b4e698a4b090df6cf5bd7b2d47325ad30a3"
                        },
                        {
                            "decimalAvailable": true,
                            "name": "_value",
                            "type": "uint256",
                            "value": "1,000,000"
                        }
                    ],
                    "constructorArguments": "",
                    "name": "transferFrom",
                    "returnParams": [
                        {
                            "name": "",
                            "type": "bool",
                            "value": true
                        }
                    ],
                    "signature": "transferFrom(address,address,uint256)"
                },
                "errorInfo": "",
                "fromAddress": "0x88a69b4e698a4b090df6cf5bd7b2d47325ad30a3",
                "gasUsed": 21370,
                "id": 6,
                "methodDecoded": true,
                "operation": "CALL",
                "output": "0x0000000000000000000000000000000000000000000000000000000000000001",
                "revert": false,
                "revertMessage": "",
                "selector": "0x23b872dd",
                "status": true,
                "value": "0"
            },
            "nodeType": 0
        },
        "7": {
            "event": {
                "contract": "0x2260fac5e5542a773aa44fbcfedf7c193bc2c599",
                "decodedLog": {
                    "name": "Transfer",
                    "params": [
                        {
                            "name": "from",
                            "type": "address",
                            "value": "0xa8c83b1b30291a3a1a118058b5445cc83041cd9d"
                        },
                        {
                            "name": "to",
                            "type": "address",
                            "value": "0x88a69b4e698a4b090df6cf5bd7b2d47325ad30a3"
                        },
                        {
                            "decimalAvailable": true,
                            "name": "value",
                            "type": "uint256",
                            "value": "1,000,000"
                        }
                    ],
                    "signature": "Transfer(address,address,uint256)"
                },
                "id": 7,
                "logData": "0x00000000000000000000000000000000000000000000000000000000000f4240",
                "logDecoded": true,
                "operation": "EVENT",
                "revert": false,
                "status": true,
                "topics": [
                    "0xddf252ad1be2c89b69c2b068fc378daa952ba7f163c4a11628f55a4df523b3ef",
                    "0x000000000000000000000000a8c83b1b30291a3a1a118058b5445cc83041cd9d",
                    "0x00000000000000000000000088a69b4e698a4b090df6cf5bd7b2d47325ad30a3"
                ]
            },
            "nodeType": 1
        },
        "8": {
            "invocation": {
                "address": "0x2260fac5e5542a773aa44fbcfedf7c193bc2c599",
                "callData": "0x",
                "decodedMethod": {
                    "callParams": [],
                    "constructorArguments": "",
                    "name": "name",
                    "returnParams": [
                        {
                            "name": "",
                            "type": "string",
                            "value": "Wrapped BTC"
                        }
                    ],
                    "signature": "name()"
                },
                "errorInfo": "",
                "fromAddress": "0x88a69b4e698a4b090df6cf5bd7b2d47325ad30a3",
                "gasUsed": 3002,
                "id": 8,
                "methodDecoded": true,
                "operation": "CALL",
                "output": "0x0000000000000000000000000000000000000000000000000000000000000020000000000000000000000000000000000000000000000000000000000000000b5772617070656420425443000000000000000000000000000000000000000000",
                "revert": false,
                "revertMessage": "",
                "selector": "0x06fdde03",
                "status": true,
                "value": "0"
            },
            "nodeType": 0
        },
        "9": {
            "invocation": {
                "address": "0x2260fac5e5542a773aa44fbcfedf7c193bc2c599",
                "callData": "0x",
                "decodedMethod": {
                    "callParams": [],
                    "constructorArguments": "",
                    "name": "symbol",
                    "returnParams": [
                        {
                            "name": "",
                            "type": "string",
                            "value": "WBTC"
                        }
                    ],
                    "signature": "symbol()"
                },
                "errorInfo": "",
                "fromAddress": "0x88a69b4e698a4b090df6cf5bd7b2d47325ad30a3",
                "gasUsed": 3376,
                "id": 9,
                "methodDecoded": true,
                "operation": "STATICCALL",
                "output": "0x000000000000000000000000000000000000000000000000000000000000002000000000000000000000000000000000000000000000000000000000000000045742544300000000000000000000000000000000000000000000000000000000",
                "revert": false,
                "revertMessage": "",
                "selector": "0x95d89b41",
                "status": true,
                "value": "0"
            },
            "nodeType": 0
        }
    },
    "gasFlame": [
        {
            "children": [
                {
                    "children": [
                        {
                            "children": [],
                            "depth": 0,
                            "name": "Initial Gas",
                            "value": 22268
                        },
                        {
                            "children": [
                                {
                                    "children": [],
                                    "depth": 1,
                                    "name": "fallback",
                                    "value": 2160
                                },
                                {
                                    "children": [
                                        {
                                            "children": [
                                                {
                                                    "children": [],
                                                    "depth": 3,
                                                    "name": "fallback",
                                                    "value": 2160
                                                },
                                                {
                                                    "children": [],
                                                    "depth": 3,
                                                    "name": "isLocalOrigin",
                                                    "value": 5156
                                                }
                                            ],
                                            "depth": 2,
                                            "name": "isLocalOrigin",
                                            "value": 12981
                                        },
                                        {
                                            "children": [],
                                            "depth": 2,
                                            "name": "transferFrom",
                                            "value": 21370
                                        },
                                        {
                                            "children": [],
                                            "depth": 2,
                                            "name": "name",
                                            "value": 3002
                                        },
                                        {
                                            "children": [],
                                            "depth": 2,
                                            "name": "symbol",
                                            "value": 3376
                                        },
                                        {
                                            "children": [],
                                            "depth": 2,
                                            "name": "decimals",
                                            "value": 431
                                        },
                                        {
                                            "children": [
                                                {
                                                    "children": [],
                                                    "depth": 3,
                                                    "name": "fallback",
                                                    "value": 160
                                                },
                                                {
                                                    "children": [
                                                        {
                                                            "children": [
                                                                {
                                                                    "children": [
                                                                        {
                                                                            "children": [],
                                                                            "depth": 6,
                                                                            "name": "fallback",
                                                                            "value": 2160
                                                                        },
                                                                        {
                                                                            "children": [],
                                                                            "depth": 6,
                                                                            "name": "localDomain",
                                                                            "value": 297
                                                                        }
                                                                    ],
                                                                    "depth": 5,
                                                                    "name": "localDomain",
                                                                    "value": 8119
                                                                }
                                                            ],
                                                            "depth": 4,
                                                            "name": "localDomain",
                                                            "value": 13388
                                                        }
                                                    ],
                                                    "depth": 3,
                                                    "name": "getTokenId",
                                                    "value": 21242
                                                }
                                            ],
                                            "depth": 2,
                                            "name": "getTokenId",
                                            "value": 22070
                                        },
                                        {
                                            "children": [],
                                            "depth": 2,
                                            "name": "home",
                                            "value": 380
                                        },
                                        {
                                            "children": [],
                                            "depth": 2,
                                            "name": "dataCopy()",
                                            "value": 21
                                        },
                                        {
                                            "children": [],
                                            "depth": 2,
                                            "name": "dataCopy()",
                                            "value": 27
                                        },
                                        {
                                            "children": [
                                                {
                                                    "children": [],
                                                    "depth": 3,
                                                    "name": "fallback",
                                                    "value": 160
                                                },
                                                {
                                                    "children": [],
                                                    "depth": 3,
                                                    "name": "dispatch",
                                                    "value": 130912
                                                }
                                            ],
                                            "depth": 2,
                                            "name": "dispatch",
                                            "value": 131770
                                        }
                                    ],
                                    "depth": 1,
                                    "name": "send",
                                    "value": 219577
                                }
                            ],
                            "depth": 0,
                            "name": "Executed Gas",
                            "value": 227411
                        }
                    ],
                    "depth": -1,
                    "name": "Actual Gas Used",
                    "value": 244879
                },
                {
                    "children": [],
                    "depth": -1,
                    "name": "Refunded Gas",
                    "value": 4800
                }
            ],
            "depth": -2,
            "name": "Total Gas",
            "value": 249679
        }
    ],
    "isConfirmed": true,
    "mainTrace": [
        {
            "children": [
                {
                    "children": [
                        {
                            "children": [],
                            "depth": 1,
                            "id": 1,
                            "order": 1
                        },
                        {
                            "children": [
                                {
                                    "children": [
                                        {
                                            "children": [],
                                            "depth": 3,
                                            "id": 4,
                                            "order": 4
                                        },
                                        {
                                            "children": [],
                                            "depth": 3,
                                            "id": 5,
                                            "order": 5
                                        }
                                    ],
                                    "depth": 2,
                                    "id": 3,
                                    "order": 3
                                },
                                {
                                    "children": [
                                        {
                                            "children": [],
                                            "depth": 3,
                                            "id": 7,
                                            "order": 7
                                        }
                                    ],
                                    "depth": 2,
                                    "id": 6,
                                    "order": 6
                                },
                                {
                                    "children": [],
                                    "depth": 2,
                                    "id": 8,
                                    "order": 8
                                },
                                {
                                    "children": [],
                                    "depth": 2,
                                    "id": 9,
                                    "order": 9
                                },
                                {
                                    "children": [],
                                    "depth": 2,
                                    "id": 10,
                                    "order": 10
                                },
                                {
                                    "children": [
                                        {
                                            "children": [],
                                            "depth": 3,
                                            "id": 12,
                                            "order": 12
                                        },
                                        {
                                            "children": [
                                                {
                                                    "children": [
                                                        {
                                                            "children": [
                                                                {
                                                                    "children": [],
                                                                    "depth": 6,
                                                                    "id": 16,
                                                                    "order": 16
                                                                },
                                                                {
                                                                    "children": [],
                                                                    "depth": 6,
                                                                    "id": 17,
                                                                    "order": 17
                                                                }
                                                            ],
                                                            "depth": 5,
                                                            "id": 15,
                                                            "order": 15
                                                        }
                                                    ],
                                                    "depth": 4,
                                                    "id": 14,
                                                    "order": 14
                                                }
                                            ],
                                            "depth": 3,
                                            "id": 13,
                                            "order": 13
                                        }
                                    ],
                                    "depth": 2,
                                    "id": 11,
                                    "order": 11
                                },
                                {
                                    "children": [],
                                    "depth": 2,
                                    "id": 18,
                                    "order": 18
                                },
                                {
                                    "children": [],
                                    "depth": 2,
                                    "id": 19,
                                    "order": 19
                                },
                                {
                                    "children": [],
                                    "depth": 2,
                                    "id": 20,
                                    "order": 20
                                },
                                {
                                    "children": [
                                        {
                                            "children": [],
                                            "depth": 3,
                                            "id": 22,
                                            "order": 22
                                        },
                                        {
                                            "children": [
                                                {
                                                    "children": [],
                                                    "depth": 4,
                                                    "id": 24,
                                                    "order": 24
                                                }
                                            ],
                                            "depth": 3,
                                            "id": 23,
                                            "order": 23
                                        }
                                    ],
                                    "depth": 2,
                                    "id": 21,
                                    "order": 21
                                },
                                {
                                    "children": [],
                                    "depth": 2,
                                    "id": 25,
                                    "order": 25
                                }
                            ],
                            "depth": 1,
                            "id": 2,
                            "order": 2
                        }
                    ],
                    "depth": 0,
                    "id": 0,
                    "order": 0
                }
            ],
            "depth": -1,
            "id": -1,
            "order": -1
        }
    ],
    "mainTraceNodeCount": 26,
    "parentIdMap": {
        "0": -1,
        "1": 0,
        "10": 2,
        "11": 2,
        "12": 11,
        "13": 11,
        "14": 13,
        "15": 14,
        "16": 15,
        "17": 15,
        "18": 2,
        "19": 2,
        "2": 0,
        "20": 2,
        "21": 2,
        "22": 21,
        "23": 21,
        "24": 23,
        "25": 2,
        "3": 2,
        "4": 3,
        "5": 3,
        "6": 2,
        "7": 6,
        "8": 2,
        "9": 2
    },
    "tidyTrace": [
        {
            "children": [
                {
                    "children": [
                        {
                            "children": [
                                {
                                    "children": [
                                        {
                                            "children": [],
                                            "depth": 3,
                                            "id": 7,
                                            "order": 7
                                        }
                                    ],
                                    "depth": 2,
                                    "id": 6,
                                    "order": 6
                                },
                                {
                                    "children": [],
                                    "depth": 2,
                                    "id": 8,
                                    "order": 8
                                },
                                {
                                    "children": [
                                        {
                                            "children": [
                                                {
                                                    "children": [],
                                                    "depth": 4,
                                                    "id": 24,
                                                    "order": 24
                                                }
                                            ],
                                            "depth": 3,
                                            "id": 23,
                                            "order": 23
                                        }
                                    ],
                                    "depth": 2,
                                    "id": 21,
                                    "order": 21
                                },
                                {
                                    "children": [],
                                    "depth": 2,
                                    "id": 25,
                                    "order": 25
                                }
                            ],
                            "depth": 1,
                            "id": 2,
                            "order": 2
                        }
                    ],
                    "depth": 0,
                    "id": 0,
                    "order": 0
                }
            ],
            "depth": -1,
            "id": -1,
            "order": -1
        }
    ],
    "tidyTraceNodeCount": 9
}