{
    "accountLabels": null,
    "dataMap": {
        "-1": {
            "invocation": {
                "address": "0xc0e82c1ed4786f8b7f806d1b8a6335ec485266ff",
                "callData": "",
                "decodedMethod": null,
                "errorInfo": "",
                "fromAddress": "",
                "gasUsed": 0,
                "id": -1,
                "methodDecoded": false,
                "operation": "",
                "output": "",
                "revert": false,
                "revertMessage": "",
                "selector": "",
                "status": false,
                "value": ""
            },
            "nodeType": 0
        },
        "0": {
            "invocation": {
                "address": "0xeb8f71a5669a55cf90e384c77e74c4bdf9ae7754",
                "callData": "0x000000000000000000000000000000000000000000000000000000000000002000000000000000000000000000000000000000000000000000000000000000e0000000000000000000000000cd07a7695e3372acd2b2077557de93e667b92bd8000000000000000000000000000000000000000000000000000000000000006000000000000000000000000000000000000000000000000000000000000000a000000000000000000000000000000000000000000000000000000000000000010000000000000000000000009008d19f58aabd9ed0d60971565aa8510560ab4100000000000000000000000000000000000000000000000000000000000000010000000000000000000000006b175474e89094c44da98b954eedeac495271d0f",
                "decodedMethod": {
                    "callParams": [],
                    "constructorArguments": "",
                    "name": "execute_44g58pv",
                    "returnParams": [],
                    "signature": "execute_44g58pv()"
                },
                "errorInfo": "",
                "fromAddress": "0xc0e82c1ed4786f8b7f806d1b8a6335ec485266ff",
                "gasUsed": 58349,
                "id": 0,
                "methodDecoded": true,
                "operation": "CALL",
                "output": "",
                "revert": false,
                "revertMessage": "",
                "selector": "0x00000000",
                "status": true,
                "value": "0"
            },
            "nodeType": 0
        },
        "1": {
            "invocation": {
                "address": "0x6b175474e89094c44da98b954eedeac495271d0f",
                "callData": "0x0000000000000000000000009008d19f58aabd9ed0d60971565aa8510560ab41",
                "decodedMethod": {
                    "callParams": [
                        {
                            "name": "",
                            "type": "address",
                            "value": "0x9008d19f58aabd9ed0d60971565aa8510560ab41"
                        }
                    ],
                    "constructorArguments": "",
                    "name": "balanceOf",
                    "returnParams": [
                        {
                            "decimalAvailable": true,
                            "name": "",
                            "type": "uint256",
                            "value": "114,824,890,807,160,711,319,588"
                        }
                    ],
                    "signature": "balanceOf(address)"
                },
                "errorInfo": "",
                "fromAddress": "0xeb8f71a5669a55cf90e384c77e74c4bdf9ae7754",
                "gasUsed": 2602,
                "id": 1,
                "methodDecoded": true,
                "operation": "STATICCALL",
                "output": "0x000000000000000000000000000000000000000000001850ab783cc486b29024",
                "revert": false,
                "revertMessage": "",
                "selector": "0x70a08231",
                "status": true,
                "value": "0"
            },
            "nodeType": 0
        },
        "2": {
            "invocation": {
                "address": "0x6b175474e89094c44da98b954eedeac495271d0f",
                "callData": "0x0000000000000000000000009008d19f58aabd9ed0d60971565aa8510560ab41000000000000000000000000cd07a7695e3372acd2b2077557de93e667b92bd8",
                "decodedMethod": {
                    "callParams": [
                        {
                            "name": "",
                            "type": "address",
                            "value": "0x9008d19f58aabd9ed0d60971565aa8510560ab41"
                        },
                        {
                            "name": "",
                            "type": "address",
                            "value": "0xcd07a7695e3372acd2b2077557de93e667b92bd8"
                        }
                    ],
                    "constructorArguments": "",
                    "name": "allowance",
                    "returnParams": [
                        {
                            "decimalAvailable": true,
                            "name": "",
                            "type": "uint256",
                            "value": "115,792,089,237,316,195,423,570,985,008,687,907,853,269,984,665,640,564,039,457,584,007,913,129,639,935"
                        }
                    ],
                    "signature": "allowance(address,address)"
                },
                "errorInfo": "",
                "fromAddress": "0xeb8f71a5669a55cf90e384c77e74c4bdf9ae7754",
                "gasUsed": 2677,
                "id": 2,
                "methodDecoded": true,
                "operation": "STATICCALL",
                "output": "0xffffffffffffffffffffffffffffffffffffffffffffffffffffffffffffffff",
                "revert": false,
                "revertMessage": "",
                "selector": "0xdd62ed3e",
                "status": true,
                "value": "0"
            },
            "nodeType": 0
        },
        "3": {
            "invocation": {
                "address": "0xcd07a7695e3372acd2b2077557de93e667b92bd8",
                "callData": "0x00000000000000000000000000000000000000000000000000000000000000c0000000000000000000000000eb8f71a5669a55cf90e384c77e74c4bdf9ae7754000000000000000000000000000000000000000000000000000000000000020000000000000000000000000000000000000000000000000000000000000002400000000000000000000000000000000000000000000000000000000000000280ffffffffffffffffffffffffffffffffffffffffffffffffffffffffffffffff000000000000000000000000000000000000000000000000000000000000000100000000000000000000000000000000000000000000000000000000000000200000000000000000000000006b175474e89094c44da98b954eedeac495271d0f00000000000000000000000000000000000000000000000000000000000000000000000000000000000000000000000000000000000000000000000000000060000000000000000000000000000000000000000000000000000000000000006423b872dd0000000000000000000000009008d19f58aabd9ed0d60971565aa8510560ab41000000000000000000000000c0e82c1ed4786f8b7f806d1b8a6335ec485266ff000000000000000000000000000000000000000000001850ab783cc486b290240000000000000000000000000000000000000000000000000000000000000000000000000000000000000000000000000000000000000000000000010000000000000000000000006b175474e89094c44da98b954eedeac495271d0f0000000000000000000000000000000000000000000000000000000000000001000000000000000000000000000000000000000000000000000000000000000000000000000000000000000000000000000000000000000000000000000000010000000000000000000000000000000000000000000000000000000000000000",
                "decodedMethod": {
                    "callParams": [
                        {
                            "name": "interactions",
                            "type": "(address,uint256,bytes)[]",
                            "value": [
                                [
                                    {
                                        "name": "target",
                                        "type": "address",
                                        "value": "0x6b175474e89094c44da98b954eedeac495271d0f"
                                    },
                                    {
                                        "name": "value",
                                        "type": "uint256",
                                        "value": "0"
                                    },
                                    {
                                        "name": "callData",
                                        "type": "bytes",
                                        "value": "0x23b872dd0000000000000000000000009008d19f58aabd9ed0d60971565aa8510560ab41000000000000000000000000c0e82c1ed4786f8b7f806d1b8a6335ec485266ff000000000000000000000000000000000000000000001850ab783cc486b29024"
                                    }
                                ]
                            ]
                        },
                        {
                            "name": "vault",
                            "type": "address",
                            "value": "0xeb8f71a5669a55cf90e384c77e74c4bdf9ae7754"
                        },
                        {
                            "name": "tokens",
                            "type": "address[]",
                            "value": [
                                "0x6b175474e89094c44da98b954eedeac495271d0f"
                            ]
                        },
                        {
                            "name": "tokenPrices",
                            "type": "uint256[]",
                            "value": [
                                "0"
                            ]
                        },
                        {
                            "name": "balanceChanges",
                            "type": "int256[]",
                            "value": [
                                "0"
                            ]
                        },
                        {
                            "name": "allowedLoss",
                            "type": "uint256",
                            "value": "115,792,089,237,316,195,423,570,985,008,687,907,853,269,984,665,640,564,039,457,584,007,913,129,639,935"
                        }
                    ],
                    "constructorArguments": "",
                    "name": "envelope",
                    "returnParams": [],
                    "signature": "envelope((address,uint256,bytes)[],address,address[],uint256[],int256[],uint256)"
                },
                "errorInfo": "",
                "fromAddress": "0xeb8f71a5669a55cf90e384c77e74c4bdf9ae7754",
                "gasUsed": 19410,
                "id": 3,
                "methodDecoded": true,
                "operation": "CALL",
                "output": "",
                "revert": false,
                "revertMessage": "",
                "selector": "0xafd7223f",
                "status": true,
                "value": "0"
            },
            "nodeType": 0
        },
        "4": {
            "invocation": {
                "address": "0x6b175474e89094c44da98b954eedeac495271d0f",
                "callData": "0x000000000000000000000000eb8f71a5669a55cf90e384c77e74c4bdf9ae7754",
                "decodedMethod": {
                    "callParams": [
                        {
                            "name": "",
                            "type": "address",
                            "value": "0xeb8f71a5669a55cf90e384c77e74c4bdf9ae7754"
                        }
                    ],
                    "constructorArguments": "",
                    "name": "balanceOf",
                    "returnParams": [
                        {
                            "decimalAvailable": true,
                            "name": "",
                            "type": "uint256",
                            "value": "0"
                        }
                    ],
                    "signature": "balanceOf(address)"
                },
                "errorInfo": "",
                "fromAddress": "0xcd07a7695e3372acd2b2077557de93e667b92bd8",
                "gasUsed": 2602,
                "id": 4,
                "methodDecoded": true,
                "operation": "STATICCALL",
                "output": "0x0000000000000000000000000000000000000000000000000000000000000000",
                "revert": false,
                "revertMessage": "",
                "selector": "0x70a08231",
                "status": true,
                "value": "0"
            },
            "nodeType": 0
        },
        "5": {
            "invocation": {
                "address": "0x6b175474e89094c44da98b954eedeac495271d0f",
                "callData": "0x0000000000000000000000009008d19f58aabd9ed0d60971565aa8510560ab41000000000000000000000000c0e82c1ed4786f8b7f806d1b8a6335ec485266ff000000000000000000000000000000000000000000001850ab783cc486b29024",
                "decodedMethod": {
                    "callParams": [
                        {
                            "name": "src",
                            "type": "address",
                            "value": "0x9008d19f58aabd9ed0d60971565aa8510560ab41"
                        },
                        {
                            "name": "dst",
                            "type": "address",
                            "value": "0xc0e82c1ed4786f8b7f806d1b8a6335ec485266ff"
                        },
                        {
                            "decimalAvailable": true,
                            "name": "wad",
                            "type": "uint256",
                            "value": "114,824,890,807,160,711,319,588"
                        }
                    ],
                    "constructorArguments": "",
                    "name": "transferFrom",
                    "returnParams": [
                        {
                            "name": "",
                            "type": "bool",
                            "value": true
                        }
                    ],
                    "signature": "transferFrom(address,address,uint256)"
                },
                "errorInfo": "",
                "fromAddress": "0xcd07a7695e3372acd2b2077557de93e667b92bd8",
                "gasUsed": 11418,
                "id": 5,
                "methodDecoded": true,
                "operation": "CALL",
                "output": "0x0000000000000000000000000000000000000000000000000000000000000001",
                "revert": false,
                "revertMessage": "",
                "selector": "0x23b872dd",
                "status": true,
                "value": "0"
            },
            "nodeType": 0
        },
        "6": {
            "event": {
                "contract": "0x6b175474e89094c44da98b954eedeac495271d0f",
                "decodedLog": {
                    "name": "Transfer",
                    "params": [
                        {
                            "name": "src",
                            "type": "address",
                            "value": "0x9008d19f58aabd9ed0d60971565aa8510560ab41"
                        },
                        {
                            "name": "dst",
                            "type": "address",
                            "value": "0xc0e82c1ed4786f8b7f806d1b8a6335ec485266ff"
                        },
                        {
                            "decimalAvailable": true,
                            "name": "wad",
                            "type": "uint256",
                            "value": "114,824,890,807,160,711,319,588"
                        }
                    ],
                    "signature": "Transfer(address,address,uint256)"
                },
                "id": 6,
                "logData": "0x000000000000000000000000000000000000000000001850ab783cc486b29024",
                "logDecoded": true,
                "operation": "EVENT",
                "revert": false,
                "status": true,
                "topics": [
                    "0xddf252ad1be2c89b69c2b068fc378daa952ba7f163c4a11628f55a4df523b3ef",
                    "0x0000000000000000000000009008d19f58aabd9ed0d60971565aa8510560ab41",
                    "0x000000000000000000000000c0e82c1ed4786f8b7f806d1b8a6335ec485266ff"
                ]
            },
            "nodeType": 1
        },
        "7": {
            "invocation": {
                "address": "0x6b175474e89094c44da98b954eedeac495271d0f",
                "callData": "0x000000000000000000000000eb8f71a5669a55cf90e384c77e74c4bdf9ae7754",
                "decodedMethod": {
                    "callParams": [
                        {
                            "name": "",
                            "type": "address",
                            "value": "0xeb8f71a5669a55cf90e384c77e74c4bdf9ae7754"
                        }
                    ],
                    "constructorArguments": "",
                    "name": "balanceOf",
                    "returnParams": [
                        {
                            "decimalAvailable": true,
                            "name": "",
                            "type": "uint256",
                            "value": "0"
                        }
                    ],
                    "signature": "balanceOf(address)"
                },
                "errorInfo": "",
                "fromAddress": "0xcd07a7695e3372acd2b2077557de93e667b92bd8",
                "gasUsed": 602,
                "id": 7,
                "methodDecoded": true,
                "operation": "STATICCALL",
                "output": "0x0000000000000000000000000000000000000000000000000000000000000000",
                "revert": false,
                "revertMessage": "",
                "selector": "0x70a08231",
                "status": true,
                "value": "0"
            },
            "nodeType": 0
        }
    },
    "gasFlame": [
        {
            "children": [
                {
                    "children": [
                        {
                            "children": [],
                            "depth": 0,
                            "name": "Initial Gas",
                            "value": 22960
                        },
                        {
                            "children": [
                                {
                                    "children": [],
                                    "depth": 1,
                                    "name": "balanceOf",
                                    "value": 2602
                                },
                                {
                                    "children": [],
                                    "depth": 1,
                                    "name": "allowance",
                                    "value": 2677
                                },
                                {
                                    "children": [
                                        {
                                            "children": [],
                                            "depth": 2,
                                            "name": "balanceOf",
                                            "value": 2602
                                        },
                                        {
                                            "children": [],
                                            "depth": 2,
                                            "name": "transferFrom",
                                            "value": 11418
                                        },
                                        {
                                            "children": [],
                                            "depth": 2,
                                            "name": "balanceOf",
                                            "value": 602
                                        }
                                    ],
                                    "depth": 1,
                                    "name": "envelope",
                                    "value": 19410
                                }
                            ],
                            "depth": 0,
                            "name": "Executed Gas",
                            "value": 40189
                        }
                    ],
                    "depth": -1,
                    "name": "Actual Gas Used",
                    "value": 58349
                },
                {
                    "children": [],
                    "depth": -1,
                    "name": "Refunded Gas",
                    "value": 4800
                }
            ],
            "depth": -2,
            "name": "Total Gas",
            "value": 63149
        }
    ],
    "isConfirmed": true,
    "mainTrace": [
        {
            "children": [
                {
                    "children": [
                        {
                            "children": [],
                            "depth": 1,
                            "id": 1,
                            "order": 1
                        },
                        {
                            "children": [],
                            "depth": 1,
                            "id": 2,
                            "order": 2
                        },
                        {
                            "children": [
                                {
                                    "children": [],
                                    "depth": 2,
                                    "id": 4,
                                    "order": 4
                                },
                                {
                                    "children": [
                                        {
                                            "children": [],
                                            "depth": 3,
                                            "id": 6,
                                            "order": 6
                                        }
                                    ],
                                    "depth": 2,
                                    "id": 5,
                                    "order": 5
                                },
                                {
                                    "children": [],
                                    "depth": 2,
                                    "id": 7,
                                    "order": 7
                                }
                            ],
                            "depth": 1,
                            "id": 3,
                            "order": 3
                        }
                    ],
                    "depth": 0,
                    "id": 0,
                    "order": 0
                }
            ],
            "depth": -1,
            "id": -1,
            "order": -1
        }
    ],
    "mainTraceNodeCount": 8,
    "parentIdMap": {
        "0": -1,
        "1": 0,
        "2": 0,
        "3": 0,
        "4": 3,
        "5": 3,
        "6": 5,
        "7": 3
    },
    "tidyTrace": [
        {
            "children": [
                {
                    "children": [
                        {
                            "children": [
                                {
                                    "children": [
                                        {
                                            "children": [],
                                            "depth": 3,
                                            "id": 6,
                                            "order": 6
                                        }
                                    ],
                                    "depth": 2,
                                    "id": 5,
                                    "order": 5
                                }
                            ],
                            "depth": 1,
                            "id": 3,
                            "order": 3
                        }
                    ],
                    "depth": 0,
                    "id": 0,
                    "order": 0
                }
            ],
            "depth": -1,
            "id": -1,
            "order": -1
        }
    ],
    "tidyTraceNodeCount": 4
}